:020000040800F2
:10000000B80800209D010008A3180008BF170008C9
:10001000A118000849070008191E00080000000088
:10002000000000000000000000000000871A000827
:100030004B07000800000000A5180008891A0008F6
:10004000B7010008B7010008B7010008B7010008B0
:10005000B7010008B7010008B7010008B7010008A0
:10006000B7010008B7010008B7010008B701000890
:10007000B7010008B7010008B7010008B701000880
:10008000B7010008B7010008B7010008B701000870
:10009000B7010008B7010008B7010008B701000860
:1000A000B7010008B7010008B7010008B701000850
:1000B000B7010008B7010008B7010008B701000840
:1000C000B7010008B7010008B7010008B701000830
:1000D000B7010008B70100080D1E0008B7010008AD
:1000E000B7010008B7010008B7010008B701000810
:1000F000B7010008B7010008B7010008B701000800
:10010000B7010008B7010008B7010008B7010008EF
:10011000B7010008B7010008B7010008B7010008DF
:10012000B7010008B7010008B7010008B7010008CF
:10013000B7010008B7010008B7010008B7010008BF
:10014000B7010008B7010008B7010008B7010008AF
:10015000B7010008B7010008B7010008B70100089F
:10016000B7010008B7010008B7010008B70100088F
:10017000B7010008B7010008B7010008000000003F
:10018000B7010008B7010008DFF80CD000F0CAFA88
:1001900000480047BD270008B808002006488047EF
:1001A00006480047FEE7FEE7FEE7FEE7FEE7FEE75C
:1001B000FEE7FEE7FEE7FEE7211B000889010008D5
:1001C0002DE9F05F0546002092469B46884606468C
:1001D000814640241BE0284641464746224600F01F
:1001E0007FF953465A46C01A914110D3114618461A
:1001F000224600F066F92D1A67EB01084F462246A9
:100200000120002100F05DF917EB00094E41201E8E
:10021000A4F10104DFDC484631462A464346BDE8E6
:10022000F09F40EA01039B0703D009E008C9121FB1
:1002300008C0042AFAD203E011F8013B00F8013BA0
:10024000521EF9D27047D2B201E000F8012B491ECC
:10025000FBD270470022F6E710B513460A46044663
:100260001946FFF7F0FF204610BD2DE9FE4F8046EE
:1002700081EA0300C00F0C46009021F0004123F0FA
:100280000045B8EB0200A94105D240462146904600
:100290001C460B46024623F00040104347D0270D72
:1002A000C7F30A00C3F30A510290401A0190402894
:1002B0006BDAC3F3130040F4801B0098924620B120
:1002C0000023D2EB030A63EB0B0B01985946C0F1F4
:1002D0004002504600F0F5F806460D465046594695
:1002E000019A00F00DF910EB08006141002487EA43
:1002F000115284EAE7731A4340D0009A62B3019A1C
:10030000012A4FEA075215DC001B61EB02014FF096
:10031000004202EA0752CDE90042001C41F580117B
:1003200032462B4600F00DF903B0BDE8F08F404691
:100330002146F9E7001B61EB0201001C41F5801327
:1003400000185B412018A2F5001747EB030140EAB3
:10035000D570B6196D4111E06D084FEA360645EAD1
:10036000C0754FEA0752001B61EB0201001C41F50A
:10037000801149084FEA30000019514132462B469E
:1003800003B0BDE8F04F00F0CDB800980122400066
:100390000023D0EB020263EBE073009821464FEAA2
:1003A000E074B8EB000061EB0401E9E783F000437F
:1003B0005BE781F0004158E72DE9F04D81EA030445
:1003C00004F0004B21F0004514464FF0000A23F0E2
:1003D000004150EA050220D054EA01021DD0C5F3C5
:1003E0000A570246C5F31303C1F31300C1F30A56BB
:1003F00040F4801543F48013A7EB0608101BD64683
:1004000008F2FD3873EB050002D308F1010801E0A2
:1004100092185B41B8F1000F03DA00200146BDE8F5
:10042000F08D00204FF48011064684460EE0171B25
:1004300073EB050705D3121B63EB050306434CEA78
:10044000010C49084FEA300092185B4150EA01075D
:10045000EDD152EA030012D082EA040083EA0501DA
:10046000084305D0101BAB4106D20122002306E051
:1004700000224FF0004302E06FF0010253101AEB2C
:1004800006004CEB085110EB0A0041EB0B01BDE8F4
:10049000F04D00F047B830B50B4601460020202251
:1004A000012409E021FA02F59D4205D303FA02F581
:1004B000491B04FA02F52844151EA2F10102F1DCE1
:1004C00030BD202A04DB203A00FA02F100207047F8
:1004D0009140C2F1200320FA03F319439040704782
:1004E000202A04DB203A21FA02F00021704721FA89
:1004F00002F3D040C2F120029140084319467047F0
:10050000202A06DBCB17203A41FA02F043EAE073D7
:1005100006E041FA02F3D040C2F1200291400843C4
:100520001946704710B5141E73F1000408DA401C18
:1005300041F1000192185B411A4301D120F0010002
:1005400010BD2DE9F04D92469B4611B1B1FA81F2F2
:1005500002E0B0FA80F220329046FFF7B2FF044684
:100560000F4640EA0A0041EA0B0153465A46084347
:1005700013D0114653EA010019D0C8F14002504689
:10058000FFF7AEFF05460E46504659464246FFF776
:1005900098FF084305D0012004E020463946BDE815
:1005A000F08D0020054346EAE0762C4337430A9855
:1005B0006305E40AA0EB08000022FD0A44EA475460
:1005C0000A3002D500200146E9E70105101969410A
:1005D000DDE9084500196941BDE8F04DA2E72DE9C4
:1005E000FE4F81EA030404F0004421F0004100942E
:1005F0004FF0000B23F0004350EA01045ED052EAB2
:1006000003045BD0C3F30A54C1F30A552C44A4F28B
:10061000F3340194A0FB0254C1F3130141F480119F
:10062000C3F3130343F4801301FB024400FB034EA6
:10063000840A970A44EA815447EA8357A4FB07686F
:1006400002958D0A05FB07854FEA932C04FB0C5499
:100650002705029D4FEA065847EA1637B5EB08050D
:100660006EEB070C870E920E47EA811742EA83125F
:10067000A7FB0201B6EB0B0164EB00042B0D43EA70
:100680000C335E1844EB1C50DA465146E7FB02017E
:10069000C5F313044FEA0B3343EA14534FEA043211
:1006A000019C43EA0603A4F10C040294009CCDE9EA
:1006B00000B4FFF746FF03B0BDE8F08F002001460D
:1006C000F9E7C1F30A52C1F3130140F2FF3341F4D9
:1006D00080119A4202DA00200146704740F233430B
:1006E0009A42A2F2334202DC5242FFF7F9BEFFF710
:1006F000E8BE000030B5041E71F1000404DB4FF0C9
:100700000044404264EB0101141E73F1000405DB58
:100710001C464FF00043524263EB0403994208BF6A
:10072000904230BD064C074D06E0E06840F0010302
:1007300094E8070098471034AC42F6D3FFF728FD41
:100740006029000880290008FEE7704772B6FEE7BE
:1007500000250BA001F09CFB114C4FF47A76294642
:10076000206800F099F8010006D00EA001F090FB7F
:10077000304600F08FF9F2E712A001F089FBF7E7AD
:100780003D3D3D546573742055617274205365720C
:10079000766F2050696E673D3D3D720A0000000093
:1007A00010000020536572766F204F66666C696E8C
:1007B000652C4572726F7220436F64653D2564201D
:1007C0000D0A0000536572766F204F6E6C696E657E
:1007D000200D0A0010B5DCB004466A4640F26311F1
:1007E00059A801F0A1F859A9204600F029F859A804
:1007F00001F061F8401E81B259A801F080F85CB0A8
:1008000010BD10B504460088A0F5E051053901D0AF
:10081000032010BDA0781E2801D9042010BDA08897
:10082000B0F5AC7F01D9052010BD2046FFF7D2FFFF
:1008300094F86411884201D0062010BD002010BD3C
:1008400070B50D4604460188284601F016F9A178D6
:10085000284601F001F994F8660110B9A088FF2834
:1008600008D9FF21284601F0F7F8A188284601F0B1
:1008700004F903E0C1B2284601F0EEF8A288A11DF8
:10088000284601F0EBF8284601F020F801462846FA
:10089000BDE8704001F0E0B813B5DCB000210122E2
:1008A000009104465DAB114600F072F801A92046A4
:1008B00000F00BF8002806D19DF80A109DF874216D
:1008C000914200D007205EB010BD2DE9F0410D46E9
:1008D000044600F0DFF900F1640651E0A06800F082
:1008E000EAFF05284CD30021A06801F057F8A0F5D5
:1008F000E051A068053902D001F095F840E00321ED
:1009000001F037F8FF28A06820D0032101F031F86A
:10091000002185F866110844401D87B2A06800F0E8
:10092000CAFFB8422CD3A06801F08EF82880A068D6
:1009300001F079F8A87095F866010028A0680DD03C
:1009400001F071F8A06801F07FF809E0042101F0DE
:1009500025F8012185F866110221DCE701F063F832
:10096000A88082B2A91DA06801F05FF8A06801F01C
:100970005AF885F864012846BDE8F041FFF741BF09
:1009800000F088F9B042A9D30220BDE8F081000050
:100990002DE9F041DAB015460E46044698464FF46C
:1009A000B4720D496846609FFFF73BFC8DF802600A
:1009B000ADF804508DF866712A4641460DF10600E7
:1009C000FFF72FFC68466168FFF73AFF204601F009
:1009D00024FA5AB0BDE8F081F82700082DE9F0416B
:1009E0000446876D00F056F9054694F83500002658
:1009F000022806D08020606584F834600120BDE8BC
:100A0000F0812068016821F01601016020684169C9
:100A100021F080014161206C08B9A06C20B12068F0
:100A2000016821F0080101602068016821F00101DE
:100A300001600CE000F02EF9401B052807D92020AA
:100A40006065032084F8350084F83460D7E72068B7
:100A50000068C007EED194F85C103F208840B86071
:100A6000012084F8350084F834600020C7E790F84E
:100A70003510022903D080214165012070470521EE
:100A800080F835100068016821F001010160002044
:100A90007047000070B5044600F0FCF80546601C85
:100AA00002D004480078044400F0F4F8401BA0424F
:100AB000FAD370BD000000202DE9F84FDFF89C91BB
:100AC0000022A9F1040B03274FF00F0C09F1040ACF
:100AD000ABF1040E01250B6895402B40AB426ED163
:100AE0000C7904F00304012C01D0022C15D1866886
:100AF000540007FA04F826EA0806D1F80C8008FA30
:100B000004F848EA0608C0F808804468AC430D7948
:100B1000C5F300159540254345600C79E443A407CF
:100B200008D0C568540007FA04F6B5438E68A6409D
:100B30002E43C6600C7904F00304022C11D1D408B2
:100B400000EB8406356A5407E40E0CFA04F825EA33
:100B50000805D1F8108008FA04F848EA0508C6F834
:100B600020800568540007FA04F6B5430E7906F0B4
:100B70000306A6402E4306604C6814F4403F66D03E
:100B8000374C256845F480452560246822F003052C
:100B900004F480440094334C05EB0408D8F808585A
:100BA0009407260F0CFA06F4A5432F4CA04201D15E
:100BB000002424E02D4CA04202D101241FE046E095
:100BC0002B4CA04201D1022419E02A4CA04201D1B1
:100BD000032414E0284CA04201D104240FE0274C48
:100BE000A04201D105240AE0254CA04201D10624EF
:100BF00005E0244CA04201D1072400E00824B440C1
:100C00002C43C8F80848D9F800404D464E689C432C
:100C1000F60200D51C432C60DAF8004055464E68B9
:100C20009C43B60200D51C432C60DBF800405D46B7
:100C30004E689C43B60300D51C432C60DEF8004090
:100C400075464E689C43F60300D51C432C60521C2D
:100C5000102AFFF43FAFBDE8F88F0000083C0140C8
:100C600044380240003001400000024000040240CD
:100C700000080240000C0240001002400014024034
:100C800000180240001C02400AB18161704709044B
:100C9000FBE700000148806870470000000000206A
:100CA000024881680278114481607047000000208A
:100CB0000B4810B5016841F400710160016841F40E
:100CC00080610160016841F480710160032000F0DF
:100CD0006FF80F2000F006F800F024F8002010BD97
:100CE000003C024070B50D4D04464FF47A712878EF
:100CF000B1FBF0F00A490968B1FBF0F000F000FB2D
:100D000048B9102C07D200222146501E00F030F8BE
:100D100000206C6070BD012070BD0000000000204C
:100D20000C0000200A4808B5016841F480410160C8
:100D3000006800F4804000900548001F016841F001
:100D400080510160006800F08050009008BD0000F4
:100D500044380240002809DB00F01F0201219140C5
:100D60004009800000F1E020C0F800117047000049
:100D7000F0B40E4B1B68C3F30223C3F10704042C29
:100D800000D904241D1D072D01D2002300E0DB1E25
:100D9000012606FA04F56D1E0D409D409E40761E0C
:100DA000164045EA0601F0BC01F082B80CED00E007
:100DB000064A00F0070110684FF6FF03184040EAAA
:100DC0000120034908431060704700000CED00E06B
:100DD0000000FA052DE9F0470D46040065D0DFF864
:100DE0001491D9F80000EFB200F00700A84207D232
:100DF00089F80070D9F8000000F00700A84254D12B
:100E000020683D4E810712D5400703D5306840F475
:100E1000E05030602078000703D5306840F460402F
:100E200030603068A16820F0F0000843306020781E
:100E3000C0072DD0304960680839012812D0022837
:100E400013D0032811D00968890700292DDA3168E9
:100E500021F0030101433160FFF71CFF804641F29E
:100E6000883A0EE009688903EFE709688901ECE731
:100E7000FFF710FFA0EB0801514502D90320BDE8A0
:100E8000F0873068616800F00C00B0EB810FEFD1A3
:100E9000D9F80010484601F00701A94207D90770A8
:100EA000006800F00700A84201D00120E7E72078A1
:100EB000400705D53068E16820F4E0500843306011
:100EC0002078000706D53068216920F4604040EAA8
:100ED000C100306000F038F83168084AC1F30311EE
:100EE000515CC8400649086006480068FFF7FAFEF2
:100EF0000020C4E7003C024008380240E027000818
:100F00000C0000200400002004480549006809681E
:100F1000044AC1F38221515CC84070470C00002094
:100F200008380240F02700080448054900680968AD
:100F3000044AC1F34231515CC84070470C000020A4
:100F400008380240F0270008154810B5006810F076
:100F50000C01144813D0431004290FD008290ED1D6
:100F60000F4C241F216801F03F022168490207D578
:100F70002068C0F38810A0FB030106E0184610BDEE
:100F80002168C1F38811A1FB00010023FFF718F9C4
:100F90002168C1F30141491C4900B0FBF1F010BDCB
:100FA000083802400024F4002DE9F84F040075D001
:100FB0002078DFF838A3C007AAF1040548D00AF169
:100FC00004000168C1F38101012908D00068C0F361
:100FD000810002280AD1DAF80000400206D528680C
:100FE000800335D560680028E1D031E06068B0F555
:100FF000803F10D0B0F5A02F286810D020F48030AA
:101000002860286820F4802028606068A0B1FFF77D
:1010100041FE06460CE0286840F48030F4E740F4D6
:1010200080202860F7E7FFF735FE801B642871D821
:1010300028688003F7D50BE0FFF72CFE064604E096
:10104000FFF728FE801B6428F1D828688003F7D4B6
:101050002078DFF89C9280074FF0000B3DD5A34825
:10106000001D016811F00C0F08D00068C0F381006A
:1010700002280AD1DAF80000400206D42868800766
:1010800015D5E068012809D111E0E068B8B1012068
:10109000C9F80000FFF7FEFD064605E022E1FFF774
:1010A000F9FD801B0228C2D828688007F7D5286878
:1010B000216920F0F80040EAC10028600DE0C9F87D
:1010C00000B0FFF7E7FD064604E0FFF7E3FD801BF5
:1010D00002281FD828688007F7D42078000722D577
:1010E000824F84486169703771B101210160FFF757
:1010F000D1FD064604E0FFF7CDFD801B022809D88C
:1011000038688007F7D50EE0C0F800B0FFF7C2FDE1
:10111000064605E082E0FFF7BDFD801B02287DD872
:1011200038688007F7D42078400765D56F484FF0BE
:1011300000083C300068C0000BD46C483C300168AB
:1011400041F08051016000684FF0010800F08050CC
:101150000090694F3868C0050FD4386840F480703B
:101160003860FFF797FD064604E0FFF793FD801B0C
:10117000022853D83868C005F7D55C4FA0686C3793
:1011800001280FD00528386810D020F00100386001
:10119000386820F004003860A068B0B1FFF77AFD2D
:1011A00006460EE0386840F00100F4E740F0040025
:1011B0003860F7E7FFF76EFD811B41F2883081420E
:1011C00063D838688007F5D50DE0FFF763FD064664
:1011D00006E0FFF75FFD811B41F28830814254D861
:1011E00038688007F5D4B8F1000F05D03F483C308F
:1011F000016821F080510160A069B8B33B49091D25
:101200000968C1F38101022946D00228584606D058
:10121000C9F86000FFF73EFD044639E035E04F466F
:10122000C9F86000FFF736FD064604E0FFF732FD1F
:10123000801B022829D828688001F7D4D4E9070147
:101240000843A16A2D4A490802EB0141626A41EA5A
:101250008211084394F82C1040EA0161CAF800108A
:1012600001203866FFF716FD044605E03CE0FFF775
:1012700011FD001B022808D828688001F7D533E04B
:10128000FFF708FD001B022802D90320BDE8F88FF4
:1012900028688001F4D427E00128F7D0DAF80000AC
:1012A000E26900F4800191421CD1226A00F03F0102
:1012B000914217D147F6C071626A0140B1EB821FBB
:1012C00010D1A26A4FF0FF3300F4403103EB520219
:1012D000B1EB024F06D194F82C1000F07060B0EB27
:1012E000016F01D00120D1E70020CFE70438024090
:1012F00000004742800E4742007000400000FFFFA0
:1013000010B5401EB0F1807F01D3012010BD4FF019
:10131000E02460610F21601700F0CAFD0020A06189
:1013200007202061002010BD70477047F8B50168A4
:1013300004460868CA684B6910F00F0F4FF00005AB
:1013400059D003F0010602F49077374365D0C10706
:1013500005D0D10503D5216C41F00101216441077D
:1013600005D5D90703D0216C41F002012164810722
:1013700005D5D90703D0216C41F004012164010790
:1013800007D502F02001314303D0216C41F0080160
:101390002164216C00293AD0800604D5900602D53C
:1013A000204600F0F4FB20684069216CC0F38010F7
:1013B000090700D460B3204600F0C2FB20684069F2
:1013C000400621D52068143050E8001F21F040016C
:1013D00040E80012002AF5D1A06BA8B16C49016564
:1013E000A06BFFF744FB002811D0A06B016D01B08A
:1013F000BDE8F040084783060FD593060DD520467B
:10140000BDE8F84000F0C3BB2046FFF78EFFF8BDF3
:101410002046FFF78AFF2564F8BD266B2023012EA6
:1014200079D1C60677D5D60675D508684868009084
:101430004869400640D5A16B086840680004000C6C
:10144000EAD0A28D8242E7D9E085C869B0F5807FF5
:101450002DD020680C3050E8001F21F4807140E846
:101460000012002AF5D12068143050E8001F21F046
:10147000010140E80012002AF5D12068143050E83C
:10148000001F21F0400140E80012002AF5D184F845
:101490003E30256320680C3050E8001F21F0100119
:1014A00040E80012002AF5D1A06BFFF797FAA08D53
:1014B000E18D401A81B229E0A08DE18D401A81B200
:1014C000E08D0028A8D00029A6D020680C3050E874
:1014D000002F22F4907240E80026002EF5D12068FB
:1014E000143050E8002F22F0010240E80026002EC0
:1014F000F5D184F83E30256320680C3050E8002F89
:1015000022F0100240E80023002BF5D12046FFF71F
:101510000BFFF8BDFFE705062BD5150629D594F876
:101520003D002128F5D1A068B0F5805F01D1206988
:10153000B0B1206A411C2162216800784860E08CCB
:10154000401E0004000CE084E3D12068C16821F053
:101550008001C1602068C16841F04001C160D8E7E6
:10156000206A0088C0F308004860206A801C20625E
:10157000E5E74006CDD55006CBD5CA68204622F017
:101580004002CA6084F83D3000F018F9C1E700005D
:10159000311B000870B5040004D094F83D0000250C
:1015A00010B106E0012070BD84F83C50204600F0E8
:1015B00023F8242084F83D002068C16821F40051FC
:1015C000C160204600F044FB2068016921F490418D
:1015D00001612068416921F02A0141612068C168E8
:1015E00041F40051C1602564202084F83D0084F856
:1015F0003E00002070BD0000F0B587B00446142105
:101600006846FEF727FE264F21680026254A02235A
:10161000032407252448B9421BD1224914310F68FD
:1016200047F010070F60096801F01001059111687B
:1016300041F001011160116801F0010105916102A1
:101640008DE84A006946CDE90345FFF735FA07B052
:10165000F0BD164FB942FAD1124910310F6847F464
:1016600000370F60096801F400310591116841F0FD
:1016700001011160116801F0010105910C218DE853
:101680004A006946CDE90345FFF716FA00221146E4
:101690002620FFF76DFB2620FFF75CFBD7E7000055
:1016A0000010014030380240000002400044004079
:1016B00090F83E30202B0ED159B152B190F83C3009
:1016C000012B08D0012380F83C300023036300F095
:1016D00045BB0120704702207047000010B5094C3F
:1016E00000682168096888420BD107480178A06822
:1016F00000F086F92068BDE8104001220249FFF79A
:10170000D7BF10BDA8040020140000202DE9F84325
:10171000044690F83D001F4615460E4620284BD142
:10172000C6B1BDB194F83C00012845D0012084F831
:101730003C004FF00008C4F84080212084F83D00B0
:10174000FFF7A8FAA5848146E584A068B0F5805F1C
:1017500003D004E00120BDE8F883206920B13546BC
:10176000002684F83C800EE00025FAE78021204620
:1017700000F011FBA0B9ADB115F8010B216848606C
:10178000E08C401EE084E08C4B464FF00002009756
:101790000028EBD14FF04001204600F0FCFA30B1B8
:1017A0000320D8E736F8020BC0F30800E6E7202054
:1017B00084F83D000020CEE70220CCE77047FEE72A
:1017C00070B586B014216846FEF744FD1648002522
:1017D000016841F020010160016801F020010591DC
:1017E000016841F080010160016801F0800105910C
:1017F000016841F00101016000680C4E00F0010039
:101800004FF4C0640590002221463046FFF73CFAB1
:101810000121CDE90041CDE9021569463046FFF7C7
:101820004BF906B070BD0000303802400014024091
:101830000C4810B50A4901604FF4E13141600021C4
:1018400081600C22C160C0E904128161C161FFF7AF
:10185000A1FE002803D0BDE81040FEF777BF10BD01
:10186000001001401C0000200C4810B50A4901601E
:101870004FF4E1314160002181600C22C160C0E978
:1018800004128161C161FFF785FE002803D0BDE825
:101890001040FEF75BBF10BD004400406000002018
:1018A000FEE7FEE7704700B503895B1E00F003F812
:1018B000181A80B200BD8288C1888A4201D8881A6D
:1018C00002E00089511A401A80B2704770B5034691
:1018D000FFF7F1FF0546002001460DE09A88491CFC
:1018E0001C890A44B2FBF4F604FB16221C6892B26F
:1018F00089B2A25C1044C0B2A942EFD370BD10B54A
:101900000C460346FFF7D7FFA04201D8002010BDC8
:101910009888641C19892044B0FBF1F201FB120085
:10192000196880B2085C10BD026000228280C2800B
:10193000491C0181114603E003685A54491C89B2CD
:1019400003898B42F8D8704710B50446FFF7ABFF08
:101950002189491E89B2884201D1012010BD002091
:1019600010BD00B5FFF79FFF08B1002000BD0120AA
:1019700000BD10B50C460346FFF79DFFA04201D8FD
:10198000002010BD9888641C19892044B0FBF1F236
:1019900001FB1200196880B2085C10BD10B50C463E
:1019A0000346FFF788FF641CA04201D8002010BD49
:1019B000988819892044B0FBF1F201FB120080B233
:1019C000421CB2FBF1F401FB142219688A5C085C2A
:1019D00040EA022010BD10B50446FFF7B5FF08B17C
:1019E000002010BDA0882189401CB0FBF1F201FB52
:1019F000120081B2A18022680023505C535410BDB4
:101A000030B50D460446FFF7ACFF00280AD1E08848
:101A10002189401CB0FBF1F201FB120080B2E08092
:101A200021680D5430BDFFF7D6BFF0B515460E4600
:101A30000746002405E03846FFF7CDFF3055641C0B
:101A4000A4B2AC42F7D3F0BD08B569460222FFF755
:101A5000ECFFBDF8000008BDFFF7D2BFF0B515469A
:101A60000E460746002405E0315D3846FFF7C8FF03
:101A7000641CA4B2AC42F7D3F0BD03B501A90222A5
:101A8000FFF7ECFF0CBD7047FFF70AB930B593B014
:101A900030216846FEF7DEFB14210CA8FEF7DAFBC6
:101AA0001D480025016841F080510160006800F088
:101AB000805011901948016841F48041016000682C
:101AC000022400F480401190012000900004019055
:101AD0008001CDE9064008AA0420A82182E813006D
:101AE0000B906846FFF760FA08B172B6FEE70CA9E2
:101AF0000F2081E831004FF4A0500F904FF4805038
:101B0000109005210CA8FFF765F9002801D072B6E6
:101B1000FEE713B030BD00004038024000700040C6
:101B20000248016841F470010160704788ED00E0EF
:101B300010B5806B0021C185C184FFF7F6FB10BD95
:101B400001680C3151E8002F22F4907241E8002323
:101B5000002BF5D10168143151E8002F22F0010269
:101B600041E80023002BF5D1016B012909D101685F
:101B70000C3151E8002F22F0100241E80023002B25
:101B8000F5D1202180F83E1000210163704708B58F
:101B900090F83E10222901D0022008BD81684FF440
:101BA0008053994201D1026922B1826A99421BD0C5
:101BB00049B10AE00268816A5268C2F308020A80E9
:101BC000816A891C08E0016971B10168496801F006
:101BD0007F011170816A491C8162C18D491E09040F
:101BE000090CC18503D019E001684968F1E7016873
:101BF000CA6822F02002CA600168CA6822F48072B2
:101C0000CA6001684A6922F001024A61202180F815
:101C10003E10016B012903D0FFF760FD002008BDD5
:101C20000021016301680C3151E8002F22F01002FD
:101C300041E80023002BF5D101680A68D20602D5DD
:101C40000A6849680091818DFFF76EFBE6E70000A6
:101C500070B5044600680169E26821F440511143FF
:101C60000161A1682069E269014360691043014391
:101C70002068C26849F20C639A430A43C260206834
:101C80004169A26921F440711143416131492068E1
:101C9000884202D03049884202D1FFF745F901E07D
:101CA000FFF732F9E2690023192164253226B2F5E3
:101CB000004F626828D0A0FB0101930F9200FEF74D
:101CC0007FFA0146B0FBF5F06FF01802504301EBCC
:101CD000800006EB0010B0FBF5F000F0F002B1FB65
:101CE000F5F002EB0012B1FBF5F06FF0180358436A
:101CF00001EB800006EB0010B0FBF5F000F00F00E8
:101D000021681044886070BDA0FB010192185B41FE
:101D1000FEF756FA0146B0FBF5F00201B1FBF5F013
:101D20006FF01803584301EB800006EBC000B0FBD6
:101D3000F5F000F0F80002EB4002B1FBF5F058437B
:101D400001EB800006EBC000B0FBF5F000F00700EF
:101D5000D6E7000000100140001401408162828536
:101D6000C28500210164222280F83E2080F83C10C8
:101D7000016921B10168CA6842F48072CA600168D1
:101D80004A6942F001024A610068C16841F02001DD
:101D9000C160002070472DE9F0411E461746884675
:101DA0000446069D26E0681C24D025B1FEF772FF8C
:101DB000801BA8421ED920680C3050E8001F21F477
:101DC000D07140E80012002AF5D12068143050E8A4
:101DD000001F21F0010140E80012002AF5D1202067
:101DE00084F83D0084F83E00002084F83C00032085
:101DF000BDE8F0812068016838EA010004D00020C5
:101E0000B842D0D00020F3E70120F9E70148FFF7FE
:101E10008DBA000060000020FEE738B504460AE0F5
:101E20006068FFF7D8FD8DF8000001231A46694667
:101E30002068FFF76BFC6068FFF73DFD0028EFD1DD
:101E400038BD000070B50E4A04464FF4FA752946B5
:101E500002F57B70FFF768FD0A4A294602F203206B
:101E6000FFF762FD084800F10C0188600C38C1E9F9
:101E700000402046BDE8704001220449FFF718BC2D
:101E8000A4000020990200209C04002014000020DF
:101E90000FB4054B10B503A9044A029800F0EAF804
:101EA00010BC5DF814FB0000A527000818000020F6
:101EB0000907090E002804DB00F1E02080F8001477
:101EC000704700F00F0000F1E02080F8141D70470B
:101ED00002E008C8121F08C1002AFAD170477047F3
:101EE000002001E001C1121F002AFBD17047000051
:101EF0002DE9FF5F82B00021DDE90430020DDDF83D
:101F000040B0034318D044F61050A2F2FF324243CF
:101F10001514119801281FD0A5EB0B00401C5FEA97
:101F2000000A4FF000064E4FDFF83891B046504699
:101F300015D5CAF1000413E0119801244AA3012821
:101F400001D16FEA0B010298119AC0E90031C0E992
:101F5000024206B0BDE8F09FCBF10000DFE7044687
:101F60000021404A491842EB0450CDE9001012E02C
:101F7000E00707D032463B4640464946FEF72FFB76
:101F80008046894632463B4610461946FEF727FBF7
:101F900006460F466410002CEAD1DDE90401DDE9B4
:101FA0000023BAF1000F06DAFEF719FB42464B4652
:101FB000FEF715FB05E0FEF7FFF942464B46FEF73C
:101FC000FBF904460E460022284BFEF793FB03D88C
:101FD0004FF0FF30014607E00022254B20463146F6
:101FE000FEF743F9FEF76DFB102409E0002C0ADB35
:101FF0000A220023FEF7E4F8039B30321A55641ED0
:1020000050EA0102F2D1641C039AC4F11103144492
:10201000119A012A03D0012208430DD10AE0084396
:1020200004D000204FF0110B119072E7A3EB0B05C9
:102030006D1E0DE05B4504DD4FF0000205F101056A
:1020400004E003DA4FF00002A5F10105002AECD00C
:1020500002981199C0E90231C0E9004579E7000012
:10206000000014400000F03F300000000000F0438A
:102070000000E03F2DE9FF4F95B09B46894606469C
:1020800000250FE2252877D100242746F84A0121B0
:10209000059400E0044316F8013F203B01FA03F0E9
:1020A0001042F7D130782A2811D06FF02F03307802
:1020B000A0F13002092A16D8059A44F0020402EB76
:1020C000820203EB42021044761C0590EFE759F8B8
:1020D000042B0592002A03DA504244F40054059080
:1020E00044F00204761C30782E2816D116F8010F21
:1020F00044F004042A280DD06FF02F023078A0F1AC
:102100003003092B09D807EB870302EB4303C718F9
:10211000761CF3E759F8047B761C30786C280FD0D6
:1021200006DC4C2817D068280DD06A2814D104E0AA
:10213000742810D07A280FD10DE044F400140AE07E
:1021400044F4801401E044F440147278824202D1D5
:1021500004F58014761C761C307866280BD013DCCE
:10216000582877D009DC002875D04528F6D04628B5
:10217000F4D047281AD19DE118E0632835D06428AF
:1021800079D0652812D195E1702873D008DC6728D2
:10219000F1D069286FD06E280DD06F2806D1B5E038
:1021A00073282CD0752875D0782874D05A46179982
:1021B00090476D1C75E1C4F30250022809D0032832
:1021C0000DD0D9F8001004280DD00D6009F10409D4
:1021D00067E1D9F80010EA17C1E90052F6E7D9F82B
:1021E00000100D80F2E70D70F0E719F8041B8DF870
:1021F000001000208DF80100EA46012003E059F8A4
:1022000004AB4FF0FF3061074FF0000102D40DE046
:1022100008F101018846B9420FDA8045F8DB1AF867
:1022200008100029F4D108E008F101018846814234
:10223000FADB1AF808100029F6D105985B46A0EBE6
:10224000080721463846179A00F094FA284400EB14
:10225000080507E04DE029E10DE01AF8010B5A46A8
:1022600017999047B8F10108F7D25B4621463846E6
:10227000179A13E142E00A220092C4F302524FF08F
:10228000000A022A08D059F804CB032A4FEAEC715D
:102290000AD00DE029E02AE009F1070121F0070248
:1022A000F2E802C1914609E00FFA8CFC4FEAEC71AA
:1022B000042A03D14FFA8CFC4FEAEC71002907DAAB
:1022C0000A460021DCF1000C61EB02012D2202E044
:1022D000220504D52B228DF80420012203E0E20719
:1022E00001D02022F7E7904659E00A2102E01022AF
:1022F0000DE010214FF0000A00910BE010224FF08A
:10230000000A44F004040827009203E008224FF07A
:10231000000A0092C4F30252022A05D059F804CBF5
:102320000021032A08D009E009F1070121F0070282
:10233000F2E802C1914605E01FFA8CFC042A01D1A3
:102340000CF0FF0C4FF00008220728D5702806D0AB
:10235000009B83F0100353EA0A0305D00EE04022ED
:102360008DF80420012208E05CEA010206D0302248
:102370008DF804208DF8050002229046009B83F022
:10238000080353EA0A030AD15CEA010201D1620799
:1023900005D530228DF804204FF001087F1E582803
:1023A00004D034A003900EA802900DE036A0F9E707
:1023B00053466046009AFDF703FF84460398825C0B
:1023C0000298401E029002705CEA0100F0D102986F
:1023D00006A9081A00F1200A600702D524F4803407
:1023E00000E00127574502DDA7EB0A0000E00020CE
:1023F00000EB0A01009005984144401A0590E00363
:1024000006D45B462146179A059800F0B3F90544B7
:10241000002706E001A85A46C05D179990476D1C39
:102420007F1C4745F6DBE0030CD55B462146179A37
:10243000059800F09FF9054404E030205A461799AA
:1024400090476D1C0099481E00900029F5DC08E0BB
:10245000029802995A460078491C029117999047B0
:102460006D1CBAF10001AAF1010AF1DC65E100007E
:10247000092801003031323334353637383961625A
:10248000636465660000000030313233343536371E
:1024900038394142434445460000000000F058F9F5
:1024A0000544761C307800287FF4ECAD19B028463E
:1024B000BDE8F08F620700D4062709F1070222F079
:1024C000070CFCE80223E14603F000485FEA080C31
:1024D00002D00FF2702C0DE05FEA045C02D50FF21F
:1024E000682C07E05FEAC47C02D00FF2602C01E0A8
:1024F000AFF2700C4FF0FF3823F00043CDF850C01E
:1025000065280CD006DC452809D046281DD0472870
:102510003DD13DE0662818D067287ED138E0002103
:10252000112F01DB112000E0781CCDE9000106A984
:102530000EA8FFF7DDFCDDE90F010E9A03910021E3
:10254000009207F1010A04914DE04FF0004000971E
:10255000CDE9011006A90EA8FFF7CAFCDDE90F02BC
:1025600003920E9B11990022DDF80CA000930492B7
:1025700011B9791C00EB010AB7EB0A0004D4C0F1D1
:10258000FF3007F1010A0490AAEB0700019044E034
:10259000012F00DA01270021112F01DD112000E0B9
:1025A0003846CDE9000106A90EA8FFF7A1FCDDE938
:1025B0000F010E9A0391002104910092BA4621075F
:1025C0000CD40399514500DA8A46BAF1010F05DDB2
:1025D000009AAAF10101515C302908D0B84202DA10
:1025E00010F1040F06DA0121CDE9011015E0AAF17E
:1025F0000101E9E7002805DC049901440491AAEBF4
:10260000000102E0411C514500DD8A460499401A50
:10261000401C01904FF000400290200704D4019824
:10262000504501DBCDF8048000208DF84F00029862
:102630000DF14F07B0F1004F25D02B200E900298DE
:102640004FF0020800280CDA404202902D200E9034
:1026500007E00A210298FDF71EFF3031029007F8CB
:10266000011DB8F10001A8F10108F2DC0298002870
:10267000EFD1791E0E980870307800F0200040F0FD
:10268000450007F8020D12A8C01B00F107081498B6
:10269000007800B1012000EB0A01019801EBE07124
:1026A00005984144401A401E0590E00306D45B465D
:1026B0002146179A059800F05DF8054414980078B3
:1026C00018B15A46179990476D1CE00324D55B4614
:1026D0002146179A059800F04DF805441CE004982F
:1026E000002807DBDDE90301884203DD0098405C38
:1026F000179901E0179930205A469047049805F140
:102700000105401C04900198401E019004D12E2028
:102710005A46179990476D1CBAF10001AAF1010AB7
:10272000DDDC05E017F8010B5A46179990476D1C40
:10273000B8F10001A8F10108F4DC5B462146179AC4
:102740000598ABE62D0000002B00000020000000E3
:102750002DE9F041044600251E461746880404D49E
:1027600005E039462020B0476D1C641EF9D5284687
:10277000BDE8F0812DE9F041044600251E46904653
:10278000C80301D5302700E02027880404D505E0E0
:1027900041463846B0476D1C641EF9D52846BDE851
:1027A000F081000013B54FF6FF730122694602481D
:1027B000FEF7ACFF00981CBD1C000020FEF778FA65
:1027C000FFF764F9FEF7FCFFFFF732F8FFF74CF86C
:1027D0000248FFF737FBFDF7BBFFFCE76000002076
:1027E00000000000000000000102030406070809C1
:1027F0000000000001020304124C00000000000071
:1028000000000000000000000000000000000000C8
:1028100000000000000000000000000000000000B8
:1028200000000000000000000000000000000000A8
:102830000000000000000000000000000000000098
:102840000000000000000000000000000000000088
:102850000000000000000000000000000000000078
:102860000000000000000000000000000000000068
:102870000000000000000000000000000000000058
:102880000000000000000000000000000000000048
:102890000000000000000000000000000000000038
:1028A0000000000000000000000000000000000028
:1028B0000000000000000000000000000000000018
:1028C0000000000000000000000000000000000008
:1028D00000000000000000000000000000000000F8
:1028E00000000000000000000000000000000000E8
:1028F00000000000000000000000000000000000D8
:1029000000000000000000000000000000000000C7
:1029100000000000000000000000000000000000B7
:1029200000000000000000000000000000000000A7
:102930000000000000000000000000000000000097
:102940000000000000000000000000000000000087
:102950000000000000000000000000000000000077
:1029600080290008000000201C000000D01E000884
:102970009C2900081C0000209C080000E01E0008A4
:102980000100000010000000000000000024F4001E
:0C299000A804002000000000000000006F
:040000050800018965
:00000001FF
