:020000040800F2
:10000000B80800209D010008111D0008011C00080F
:100010000D1D0008490700084125000800000000E8
:100020000000000000000000000000005F1F00084A
:100030004D07000800000000151D0008611F0008A2
:10004000B7010008B7010008B7010008B7010008B0
:10005000B7010008B7010008B7010008B7010008A0
:10006000B7010008B7010008B7010008B701000890
:10007000B7010008B7010008B7010008B701000880
:10008000B7010008B7010008B7010008B701000870
:10009000B7010008B7010008B7010008B701000860
:1000A000B7010008B7010008B7010008B701000850
:1000B000B7010008B7010008B7010008B701000840
:1000C000B7010008B7010008B7010008B701000830
:1000D000B7010008B701000831250008B701000882
:1000E000B7010008B7010008B7010008B701000810
:1000F000B7010008B7010008B7010008B701000800
:10010000B7010008B7010008B7010008B7010008EF
:10011000B7010008B7010008B7010008B7010008DF
:10012000B7010008B7010008B7010008B7010008CF
:10013000B7010008B7010008B7010008B7010008BF
:10014000B7010008B7010008B7010008B7010008AF
:10015000B7010008B7010008B7010008B70100089F
:10016000B7010008B7010008B7010008B70100088F
:10017000B7010008B7010008B7010008000000003F
:10018000B7010008B7010008DFF80CD000F0CAFA88
:1001900000480047052F0008B8080020064880479F
:1001A00006480047FEE7FEE7FEE7FEE7FEE7FEE75C
:1001B000FEE7FEE7FEE7FEE71D20000889010008D4
:1001C0002DE9F05F0546002092469B46884606468C
:1001D000814640241BE0284641464746224600F01F
:1001E0007FF953465A46C01A914110D3114618461A
:1001F000224600F066F92D1A67EB01084F462246A9
:100200000120002100F05DF917EB00094E41201E8E
:10021000A4F10104DFDC484631462A464346BDE8E6
:10022000F09F40EA01039B0703D009E008C9121FB1
:1002300008C0042AFAD203E011F8013B00F8013BA0
:10024000521EF9D27047D2B201E000F8012B491ECC
:10025000FBD270470022F6E710B513460A46044663
:100260001946FFF7F0FF204610BD2DE9FE4F8046EE
:1002700081EA0300C00F0C46009021F0004123F0FA
:100280000045B8EB0200A94105D240462146904600
:100290001C460B46024623F00040104347D0270D72
:1002A000C7F30A00C3F30A510290401A0190402894
:1002B0006BDAC3F3130040F4801B0098924620B120
:1002C0000023D2EB030A63EB0B0B01985946C0F1F4
:1002D0004002504600F0F5F806460D465046594695
:1002E000019A00F00DF910EB08006141002487EA43
:1002F000115284EAE7731A4340D0009A62B3019A1C
:10030000012A4FEA075215DC001B61EB02014FF096
:10031000004202EA0752CDE90042001C41F580117B
:1003200032462B4600F00DF903B0BDE8F08F404691
:100330002146F9E7001B61EB0201001C41F5801327
:1003400000185B412018A2F5001747EB030140EAB3
:10035000D570B6196D4111E06D084FEA360645EAD1
:10036000C0754FEA0752001B61EB0201001C41F50A
:10037000801149084FEA30000019514132462B469E
:1003800003B0BDE8F04F00F0CDB800980122400066
:100390000023D0EB020263EBE073009821464FEAA2
:1003A000E074B8EB000061EB0401E9E783F000437F
:1003B0005BE781F0004158E72DE9F04D81EA030445
:1003C00004F0004B21F0004514464FF0000A23F0E2
:1003D000004150EA050220D054EA01021DD0C5F3C5
:1003E0000A570246C5F31303C1F31300C1F30A56BB
:1003F00040F4801543F48013A7EB0608101BD64683
:1004000008F2FD3873EB050002D308F1010801E0A2
:1004100092185B41B8F1000F03DA00200146BDE8F5
:10042000F08D00204FF48011064684460EE0171B25
:1004300073EB050705D3121B63EB050306434CEA78
:10044000010C49084FEA300092185B4150EA01075D
:10045000EDD152EA030012D082EA040083EA0501DA
:10046000084305D0101BAB4106D20122002306E051
:1004700000224FF0004302E06FF0010253101AEB2C
:1004800006004CEB085110EB0A0041EB0B01BDE8F4
:10049000F04D00F047B830B50B4601460020202251
:1004A000012409E021FA02F59D4205D303FA02F581
:1004B000491B04FA02F52844151EA2F10102F1DCE1
:1004C00030BD202A04DB203A00FA02F100207047F8
:1004D0009140C2F1200320FA03F319439040704782
:1004E000202A04DB203A21FA02F00021704721FA89
:1004F00002F3D040C2F120029140084319467047F0
:10050000202A06DBCB17203A41FA02F043EAE073D7
:1005100006E041FA02F3D040C2F1200291400843C4
:100520001946704710B5141E73F1000408DA401C18
:1005300041F1000192185B411A4301D120F0010002
:1005400010BD2DE9F04D92469B4611B1B1FA81F2F2
:1005500002E0B0FA80F220329046FFF7B2FF044684
:100560000F4640EA0A0041EA0B0153465A46084347
:1005700013D0114653EA010019D0C8F14002504689
:10058000FFF7AEFF05460E46504659464246FFF776
:1005900098FF084305D0012004E020463946BDE815
:1005A000F08D0020054346EAE0762C4337430A9855
:1005B0006305E40AA0EB08000022FD0A44EA475460
:1005C0000A3002D500200146E9E70105101969410A
:1005D000DDE9084500196941BDE8F04DA2E72DE9C4
:1005E000FE4F81EA030404F0004421F0004100942E
:1005F0004FF0000B23F0004350EA01045ED052EAB2
:1006000003045BD0C3F30A54C1F30A552C44A4F28B
:10061000F3340194A0FB0254C1F3130141F480119F
:10062000C3F3130343F4801301FB024400FB034EA6
:10063000840A970A44EA815447EA8357A4FB07686F
:1006400002958D0A05FB07854FEA932C04FB0C5499
:100650002705029D4FEA065847EA1637B5EB08050D
:100660006EEB070C870E920E47EA811742EA83125F
:10067000A7FB0201B6EB0B0164EB00042B0D43EA70
:100680000C335E1844EB1C50DA465146E7FB02017E
:10069000C5F313044FEA0B3343EA14534FEA043211
:1006A000019C43EA0603A4F10C040294009CCDE9EA
:1006B00000B4FFF746FF03B0BDE8F08F002001460D
:1006C000F9E7C1F30A52C1F3130140F2FF3341F4D9
:1006D00080119A4202DA00200146704740F233430B
:1006E0009A42A2F2334202DC5242FFF7F9BEFFF710
:1006F000E8BE000030B5041E71F1000404DB4FF0C9
:100700000044404264EB0101141E73F1000405DB58
:100710001C464FF00043524263EB0403994208BF6A
:10072000904230BD064C074D06E0E06840F0010302
:1007300094E8070098471034AC42F6D3FFF728FD41
:10074000AC300008CC30000800BFFEE7704772B63E
:1007500000BFFEE7002516A001F030FF26E0294685
:100760001B48006800F0B3F804466CB919A001F00A
:1007700025FF012251021B4800F0E0FA4FF480618E
:10078000184800F0D1FA0DE0214617A001F016FF3D
:1007900001229102134800F0D1FA4FF40071114880
:1007A00000F0C2FA4FF47A7000F0B0F9D7E7000019
:1007B0003D3D3D54657374205561727420536572DC
:1007C000766F2050696E673D3D3D720A0000000063
:1007D00010000020536572766F204F6E6C696E6555
:1007E000200D0A0000140240536572766F204F6698
:1007F000666C696E652C4572726F7220436F64651A
:100800003D2564200D0A000030B5DDB0044601AA84
:1008100040F263115AA801F0D2FA5AA9204600F01A
:100820002AF85AA801F083FA401E85B229465AA830
:1008300001F0AFFA5DB030BD10B50446208841F636
:100840000541884201D0032010BDA0781E2801DD9B
:100850000420F9E7A088B0F5AC7F01DD0520F3E7BF
:100860002046FFF7D1FF94F86411884201D006209A
:10087000EAE70020E8E770B504460D4621882846DF
:1008800001F064FBA178284601F049FB94F8660169
:1008900010B9A088FF2808DDFF21284601F03FFBA2
:1008A000A188284601F052FB03E02179284601F097
:1008B00036FBA288A11D284601F039FB284601F02D
:1008C0004CFA06463146284601F029FB70BD73B547
:1008D000DCB0064600205DAB012211460090304698
:1008E00000F082F802A9304600F00DF8044644B941
:1008F0009DF80E509DF87401854202D007205EB02D
:1009000070BD2046FBE72DE9F04704460D464FF049
:10091000000800F019FA00F164095EE0A06801F037
:1009200006FA052800DA58E00021A06801F089FAEB
:10093000804641F60540804503D0A06801F0CFFA1B
:100940004BE00321A06801F066FAFF2808D10421DA
:10095000A06801F076FA0646012085F8660107E0F6
:100960000321A06801F057FA0646002085F86601C9
:10097000701D95F8661109B1022100E000210844BC
:1009800087B2A06801F0D3F9B84200DA25E0A06888
:1009900001F0BAFA2880A06801F0A1FAA87095F8D1
:1009A000660138B1A06801F09AFAA06801F0ACFACB
:1009B000A88003E0A06801F092FAA880AA88A91D87
:1009C000A06801F092FAA06801F089FA85F8640144
:1009D0002846FFF731FFBDE8F08700F0B5F948453C
:1009E0009CD30220F7E700002DE9F041DAB004467D
:1009F0000D4616461F46DDF880814FF4B4720D494E
:100A00006846FFF70EFC8DF80250ADF804608DF8D3
:100A10006681324639460DF10600FFF702FC684652
:100A20006168FFF728FF204601F08CFD5AB0BDE851
:100A3000F0810000442F000870B50446A56D00F059
:100A400083F9064694F83500022808D080206065B6
:100A500000BF002084F8340000BF012070BD206872
:100A6000006820F01600216808602068406920F0C6
:100A7000800021684861206C08B9A06C28B120680A
:100A8000006820F00800216808602068006820F0F5
:100A900001002168086010E000F056F9801B05286D
:100AA0000BD920206065032084F8350000BF0020AA
:100AB00084F8340000BF0320D0E72068006800F00D
:100AC00001000028E8D194F85C103F208840A8601D
:100AD000012084F8350000BF002084F8340000BFF6
:100AE00000BFBBE7014691F83500022803D0802003
:100AF000486501207047052081F8350008680068C6
:100B000020F001000A6810600020F3E770B5044689
:100B100000F01AF906462546681C10B10448007812
:100B2000054400BF00F010F9801BA842FAD370BD45
:100B300008000020F8B502460B46002500240020DE
:100B40000021D6E0012606FA01F51E6806EA050432
:100B5000AC4274D11E7906F00306012E04D01E7932
:100B600006F00306022E13D190684F000326BE4004
:100B7000B0434F00DE68BE403043906050680126AD
:100B80008E40B0431E79C6F300168E40304350604D
:100B90001E7906F00306032E09D0D0684F00032605
:100BA000BE40B0434F009E68BE403043D0601E79C7
:100BB00006F00306022E13D1CF0802F1200656F8E4
:100BC00027004E07F70E0F26BE40B0434F07FF0E1B
:100BD0001E69BE403043CF0802F1200646F82700C8
:100BE00010684F000326BE40B0431E7906F003068E
:100BF0004F00BE40304310605E6806F44036002E61
:100C000076D000BF002600963C4E366846F48046FB
:100C10003A4F3E603E46366806F48046009600BF76
:100C200000BF374E8F0856F827008E07370F0F2664
:100C3000BE40B043334EB24202D1002624E057E01A
:100C4000314EB24201D101261EE0304EB24201D1F6
:100C5000022619E02E4EB24201D1032614E02D4E99
:100C6000B24201D104260FE02B4EB24201D105263B
:100C70000AE02A4EB24201D1062605E0284EB242D1
:100C800001D1072600E008268F073F0FBE40304302
:100C90001B4E8F0846F82700224E3068A0435E683E
:100CA00006F4801606B120431E4E3060361D3068B3
:100CB000A0435E6806F4001606B12043194E361DA7
:100CC0003060184E361F3068A0435E6806F4003668
:100CD00006B12043134E361F3060361F3068A043E4
:100CE0005E6806F4803606B120430E4E083E306042
:100CF000491C1029FFF426AFF8BD0000443802401B
:100D00000838014000000240000402400008024090
:100D1000000C024000100240001402400018024083
:100D2000001C0240083C014010B5426921EA020360
:100D300002EA010443EA0443836110BD0AB1816100
:100D400001E00B04836170470148006870470000B0
:100D5000000000200348006803490978084401495D
:100D600008607047000000200800002010B50D4802
:100D7000006840F400700B4908600846006840F4C1
:100D8000806008600846006840F4807008600320B6
:100D900000F0A2F80F2000F007F800F02BF8002078
:100DA00010BD0000003C024070B504460E480078BB
:100DB0004FF47A71B1FBF0F00C490968B1FBF0F522
:100DC000284600F02BFC08B1012070BD102C07D282
:100DD00000222146501E00F041F80548046001E061
:100DE0000120F2E70020F0E7080000200C000020BE
:100DF0000400002008B500BF002000900E480068E5
:100E000040F480400C4908600846006800F48040C7
:100E1000009000BF00BF00BF00200090081F0068C6
:100E200040F08050091F08600846006800F08050BC
:100E3000009000BF00BF08BD44380240014608468C
:100E4000002809DB00F01F0301229A4043099B00A0
:100E500003F1E023C3F8002100BF70472DE9F05FE4
:100E600080460D461646002701F0B8FB0746394676
:100E70002A46334601F00700C0F1070ABAF1040F11
:100E800002D94FF0040A01E0C0F1070AD14600F18F
:100E9000040ABAF1070F02D24FF0000A01E0A0F1F4
:100EA000030AD4464FF0010A0AFA09FAAAF1010A24
:100EB0000AEA020A0AFA0CFA4FF0010B0BFA0CFBD1
:100EC000ABF1010B0BEA030B4AEA0B042146404647
:100ED00001F08CFBBDE8F09F00BF00F00702064B5D
:100EE00019684FF6FF031940044B0B4343EA0221F4
:100EF000014B196000BF70470CED00E00000FA05DF
:100F000070B504460D460CB9012070BD5848006804
:100F100000F00700A84209D255490D700846006844
:100F200000F00700A84201D00120EEE7207800F091
:100F3000020002281DD1207800F00400042805D109
:100F40004C48006840F4E0504A490860207800F0BE
:100F50000800082805D14748006840F4604045492A
:100F600008604448006820F0F000A1680843414947
:100F70000860207800F00100A8B36068012807D15C
:100F80003C4808380068C0F34040B8B90120BCE7CD
:100F90006068022802D06068032807D13548083805
:100FA0000068C0F3406048B90120AEE73148083816
:100FB0000068C0F3400008B90120A6E72D4800688A
:100FC00020F00300616808432A490860FFF7BCFE6F
:100FD000064609E0FFF7B8FE801B41F288318842DF
:100FE00002D9032091E707E02248006800F00C00D6
:100FF0006168B0EB810FEDD11D48006800F007007B
:10100000A84209D91A490D700846006800F0070087
:10101000A84201D0012078E7207800F004000428DD
:1010200007D11448006820F4E050E16808431149F2
:101030000860207800F00800082808D10D480068F2
:1010400020F46040216940EAC1000A49086000F0CC
:101050003FF808490968C1F30311074A515CC840C9
:101060000649086006480068FFF79EFE00204CE72E
:10107000003C0240083802402C2F00080C000020E1
:101080000400002001480068704700000C000020A8
:1010900000B5FFF7F7FF04490968C1F38221034A4D
:1010A000515CC84000BD0000083802403C2F0008D9
:1010B00000B5FFF7E7FF04490968C1F34231034A6D
:1010C000515CC84000BD0000083802403C2F0008B9
:1010D0002DE9F047002400250026A1462548006898
:1010E00000F00C0020B1042805D008283AD105E012
:1010F000DFF8849039E0DFF8849036E01D48001F67
:10110000006800F03F041B48001F006800F48000E6
:1011100078B11A481749091F0968C1F38811A0FB63
:1011200001700146224600233846FFF749F805467C
:101130000EE011480F49091F0968C1F38811A0FB8F
:1011400001700146224600233846FFF739F805466C
:101150000848001F0068C0F30140401C4600B5FB72
:10116000F6F902E0DFF8109000BF00BF4846BDE886
:10117000F0870000083802400024F40000127A00D2
:10118000F8B504460CB90120F8BD207800F0010044
:10119000002874D0F948006800F00C0004280DD035
:1011A000F648006800F00C00082813D1F348001F2F
:1011B000006800F48000B0F5800F0BD1EF480838CC
:1011C0000068C0F34040002859D06068002856D11C
:1011D0000120D9E700BF6068B0F5803F08D1E7483B
:1011E0000838006840F48030E449083908601EE09F
:1011F0006068B0F5A02F0DD1E0480838006840F4D1
:101200008020DE49083908600846006840F48030D4
:1012100008600CE0D9480838006820F48030D749CD
:10122000083908600846006820F48020086000BF84
:10123000606890B1FFF788FD054606E0FFF784FD82
:10124000401B642801D903209EE7CC480838006879
:10125000C0F340400028F1D011E0FFF775FD0546CE
:1012600006E0FFF771FD401B642801D903208BE7DE
:10127000C24808380068C0F340400028F1D1207807
:1012800000F0020002285FD1BC48006800F00C00AA
:1012900058B1BA48006800F00C0008281CD1B748C3
:1012A000001F006800F48000B0B9B4480838006836
:1012B000C0F3400020B1E068012801D0012063E7BD
:1012C000AE480838006820F0F800216940EAC10003
:1012D000AA490839086037E0E06800B30120A8494E
:1012E0000860FFF731FD054606E0FFF72DFD401BC6
:1012F000022801D9032047E7A04808380068C0F356
:1013000040000028F1D09D480838006820F0F8001F
:10131000216940EAC10099490839086014E00020B9
:1013200097490860FFF710FD054606E0FFF70CFD42
:10133000401B022801D9032026E79048083800689E
:10134000C0F340000028F1D1207800F00800082800
:101350002CD16069A8B101208A490860FFF7F4FC2C
:10136000054606E0FFF7F0FC401B022801D90320E8
:101370000AE782486C300068C0F340000028F1D0D2
:1013800014E000207F490860FFF7DEFC054606E018
:10139000FFF7DAFC401B022801D90320F4E6774866
:1013A0006C300068C0F340000028F1D1207800F0D4
:1013B0000400042870D1002770483830006800F01D
:1013C000805090B900BF002000906C483830006811
:1013D00040F080506949383108600846006800F0E4
:1013E0008050009000BF00BF01276748006800F4EC
:1013F0008070B0B96448006840F480706249086049
:10140000FFF7A2FC054606E0FFF79EFC401B022802
:1014100001D90320B8E65C48006800F48070002819
:10142000F2D000BFA068012808D154486830006895
:1014300040F001005149683108601DE0A0680528AE
:101440000DD14E486830006840F004004B496831C7
:1014500008600846006840F0010008600CE047485A
:101460006830006820F0010044496831086008468F
:10147000006820F00400086000BFA068A8B1FFF772
:1014800063FC054609E0FFF75FFC401B41F2883131
:10149000884202D9032077E626E0384868300068A1
:1014A000C0F340000028EED013E0FFF74DFC0546E6
:1014B00008E0FFF749FC401B41F28831884201D91E
:1014C000032061E62D4868300068C0F34000002822
:1014D000EFD1012F07D129483830006820F0805023
:1014E00026493831086000BFA069002845D023484C
:1014F000006800F00C0008285DD0A069022845D1E2
:1015000000201F490866FFF71FFC054606E0FFF7AD
:101510001BFC401B022801D9032035E61748083878
:101520000068C0F340600028F1D1D4E90701084306
:10153000616A40EA81110122A06AC2EB500041EACF
:1015400000412C20005D41EA00600C49091F086041
:1015500001200B490866FFF7F7FB054606E0FFF799
:10156000F3FB401B022801D903200DE6034808388D
:101570000068C0F340600028F1D049E0083802401C
:1015800000004742800E4742007000400020214981
:101590000866FFF7D9FB054606E0FFF7D5FB401BC1
:1015A000022801D90320EFE51B480068C0F3406022
:1015B0000028F2D12CE0A069012800D1E4E516480A
:1015C000001D0668A069012820D006F48001E069AA
:1015D00081421BD106F03F01206A814216D147F6B5
:1015E000C0703040616AB0EB811F0FD106F440310A
:1015F0000122A06AC2EB5000B1EB004F06D106F009
:1016000070612C20005DB1EB006F01D00120BBE5C3
:101610000020B9E5000047420038024070B504469A
:101620002546681EB0F1807F01D301200FE0681EBF
:101630004FF0E02148610F214FF0FF3000F0D6FF5E
:1016400000204FF0E021886107200861002070BD74
:10165000704770472DE9F84F0446206805682068F8
:10166000C668206847694FF00009CA4605F00F09AF
:10167000B9F1000F0AD105F0200038B106F02000C2
:1016800020B1204600F024FDBDE8F88FB9F1000F2D
:101690007CD007F0010018B906F49070002875D0CE
:1016A00005F0010030B106F4807018B1206C40F0F4
:1016B0000100206405F0040030B107F0010018B10A
:1016C000206C40F00200206405F0020030B107F009
:1016D000010018B1206C40F00400206405F00800FF
:1016E00048B106F0200010B907F0010018B1206CD5
:1016F00040F008002064206C002846D005F020004F
:1017000028B106F0200010B1204600F0E1FC20686E
:101710004069C0F3801A206C00F0080010B9BAF1DB
:10172000000F2DD0204600F08DFC2068406900F0AD
:101730004000402820D100BF00BF2168143151E88B
:10174000001F21F040002168143141E80002002A06
:10175000F3D100BFA06B50B17548A16B0865A06BB9
:10176000FFF7C0F988B1A06B016D88470DE02046F6
:10177000FFF76FFF09E009E02046FFF76AFF04E08A
:101780002046FFF766FF002020647DE7206B0128DC
:1017900076D105F01000002872D006F01000002865
:1017A000FAD000BF002000902068006800902068F8
:1017B0004068009000BF00BF2068406900F0400012
:1017C00040285ED1A06B006840681FFA80F8B8F12D
:1017D000000F54D0A08D404551DDA4F82E80A06BA1
:1017E000C069B0F5807F43D000BF00BF21680C31D5
:1017F00051E8001F21F4807021680C3141E800029B
:10180000002AF3D100BF00BF00BF2168143151E8A6
:10181000001F21F001002168143141E80002002A74
:10182000F3D100BF00BF00BF2168143151E8001F91
:1018300021F040002168143141E80002002AF3D170
:1018400000BF202084F83E000020206300BF00BFBE
:1018500021680C3151E8001F21F0100021680C3183
:1018600041E80002002AF3D100BFA06BFFF7E4F8C3
:10187000A08DE28D801A81B22046FFF7E9FE03E7D2
:1018800040E0A08DE18D401A1FFA80F8E08DC0B3D2
:10189000B8F1000F35D000BF00BF21680C3151E80E
:1018A000001F21F4907021680C3141E80002002AE9
:1018B000F3D100BF00BF00BF2168143151E8001F01
:1018C00021F001002168143141E80002002AF3D11F
:1018D00000BF202084F83E000020206300BF00BF2E
:1018E00021680C3151E8001F21F0100021680C31F3
:1018F00041E80002002AF3D100BF41462046FFF72D
:10190000A7FEC1E605F0800030B106F0800018B1F6
:10191000204600F094FDB7E605F0400030B106F037
:10192000400018B1204600F0C3FBADE600BFABE6B7
:101930003120000810B504460CB9012010BDA06983
:1019400000B100E000BF94F83D0028B9002084F801
:101950003C00204600F028F8242084F83D00206850
:10196000C06820F400502168C860204600F02CFCBC
:101970002068006920F4904021680861206840696F
:1019800020F02A00216848612068C06840F40050B7
:101990002168C86000202064202084F83D0084F87D
:1019A0003E000020CAE7000010B586B004461421AE
:1019B00001A8FEF74FFC3B492068884231D100BFA7
:1019C000002000903848006840F010003649086058
:1019D0000846006800F01000009000BF00BF00BF84
:1019E0000020009030481438006840F001002E4973
:1019F000143908600846006800F00100009000BF3C
:101A000000BF4FF4C06001900220029000200390BC
:101A1000032004900720059001A92448FFF78AF8C5
:101A20003DE023492068884239D100BF0020009062
:101A30001D48001F006840F400301B49091F086062
:101A40000846006800F40030009000BF00BF00BFEF
:101A50000020009014481438006840F0010012493A
:101A6000143908600846006800F00100009000BFCB
:101A700000BF0C2001900220029000200390032060
:101A800004900720059001A90848FFF753F80022A9
:101A900011462620FFF7E2F92620FFF7CFF906B01E
:101AA00010BD000000100140443802400000024018
:101AB0000044004070B504460D46164694F83E00BA
:101AC000202816D105B10EB9012070BD00BF94F8D1
:101AD0003C00012801D10220F7E7012084F83C00F6
:101AE00000BF0020206332462946204600F082FCD9
:101AF000EBE70220E9E7000070B5044609492068D9
:101B00000968096888420CD1074805780549886842
:101B1000294600F0CFF90349012208680249FFF77E
:101B2000C9FF70BDA8040020140000202DE9F84F63
:101B300004460E46174699464FF0000A94F83D00B9
:101B400020285AD106B117B90120BDE8F88F00BF8F
:101B500094F83C00012801D10220F6E7012084F826
:101B60003C0000BF00202064212084F83D00FFF7E6
:101B7000EBF88246A784E784A068B0F5805F04D1C3
:101B8000206910B90025B04602E035464FF0000844
:101B900000BF002084F83C0000BF1BE05346002239
:101BA00080212046CDF8009000F079FC08B1032098
:101BB000CBE745B9B8F80000C0F3080021684860D9
:101BC00008F1020803E02878216848606D1CE08C69
:101BD000401EE084E08C0028E0D1534600224021E2
:101BE0002046CDF8009000F05AFC08B10320ACE785
:101BF000202084F83D000020A7E70220A5E77047D9
:101C000000BFFEE700B587B0142102A8FEF722FB53
:101C100000BF002001901F48006840F020001D49CF
:101C200008600846006800F02000019000BF00BF77
:101C300000BF002001900846006840F08000086066
:101C40000846006800F08000019000BF00BF00BFA0
:101C5000002001900846006840F001000860084636
:101C6000006800F00100019000BF00BF00224FF4A7
:101C7000C0610948FFF762F84FF4C060029001208C
:101C8000039004900020059002A90348FEF752FF3C
:101C900007B000BD303802400014024010B50B48B8
:101CA0000B4908604FF4E13048600021084881602A
:101CB000C16001610C21416100218161C161FFF7B7
:101CC00039FE08B1FEF743FD10BD000000100140D1
:101CD0001C00002010B50B480B4908604FF4E130A0
:101CE0004860002108488160C16001610C214161A8
:101CF00000218161C161FFF71DFE08B1FEF727FDDC
:101D000010BD0000004400406000002000BFFEE75E
:101D100000BFFEE7704710B50346184600F018F8FC
:101D20000446184600F003F8201A80B210BD0146A0
:101D30008888CA88904204DCC8888A88801A80B261
:101D400070478888CA88801A0A89101A80B2F7E713
:101D500001460889401E80B27047F0B50346184618
:101D6000FFF7E5FF0546002400200EE09A880244B4
:101D7000521C1E8992FBF6F706FB172291B21A68D5
:101D8000525C2244D4B2411C88B2A842EEDBE0B2DD
:101D9000F0BD30B503460C461846FFF7C8FFA04219
:101DA00001DC002030BD98882044401C198990FB3C
:101DB000F1F201FB120085B21868405DF2E730B520
:101DC0000B46026000218180C180591C01810021E5
:101DD00004E0002405686C544C1CA1B204898C42B8
:101DE000F7DC30BD10B504462046FFF794FF0246ED
:101DF0002046FFF7ADFF824201D1012010BD002037
:101E0000FCE710B504462046FFF785FF08B901201E
:101E100010BD0020FCE730B503460C461846FFF71E
:101E200086FFA04201DC002030BD98882044401C81
:101E3000198990FBF1F201FB120085B21868405D30
:101E4000F2E730B503460C461846FFF770FF611CF9
:101E5000884201DC002030BD98882044401C19894C
:101E600090FBF1F201FB120085B21989681C90FB0E
:101E7000F1F201FB12001968085C495D41EA00209B
:101E8000E9E730B504462046FFF7ACFF08B1002073
:101E900030BDA088401C218990FBF1F201FB1200AB
:101EA000A080A1882068455C0020A2882168885411
:101EB0002846EDE730B504460D462046FFF7A1FF62
:101EC00000B130BDE088401C218990FBF1F201FB9C
:101ED0001200E080E1882068455400BFF1E710B5AA
:101EE00004462046FFF7CDFF10BDF0B507460D466E
:101EF0001646002405E03846FFF7C3FF2855601C4E
:101F000084B2B442F7DBF0BD38B504466D46022218
:101F100029462046FFF7E9FFBDF8000038BD30B57F
:101F200004460D4629462046FFF7C4FF30BDF0B5F4
:101F300007460D461646002405E0295D3846FFF7A2
:101F4000B9FF601C84B2B442F7DBF0BD33B5044680
:101F500001AD022229462046FFF7E9FF3CBD70474C
:101F600010B5FEF7F7FE10BD00B593B0302107A8FD
:101F7000FEF770F9142102A8FEF76CF900BF0020EB
:101F800001902448006840F08050224908600846CB
:101F9000006800F08050019000BF00BF00BF00202B
:101FA00001901D48006840F480401B4908600846C5
:101FB000006800F48040019000BF00BF012007903E
:101FC0000004089002200D9041050E9104210F910C
:101FD000A8211091022111910421129107A8FFF765
:101FE000CFF808B1FEF7B3FB0F2002900220039058
:101FF000002004904FF4A05005904FF480500690BC
:10200000052102A8FEF77CFF08B1FEF7A0FB13B084
:1020100000BD0000403802400070004003480068E6
:1020200040F47000014908607047000088ED00E04E
:1020300070B50546AC6B0020E085E0842046FFF7D4
:1020400008FB70BD00BF00BF02680C3252E8002FD1
:1020500022F4907102680C3242E80013002BF3D195
:1020600000BF00BF00BF0268143252E8002F22F008
:1020700001010268143242E80013002BF3D100BFC3
:10208000016B01290ED100BF00BF02680C3252E87B
:10209000002F22F0100102680C3242E80013002BDE
:1020A000F3D100BF202180F83E100021016370476A
:1020B00010B504462068C06820F040002168C86060
:1020C000202084F83D002046FFF799FD002010BD38
:1020D000F8B5044694F83E00222873D1A068B0F504
:1020E000805F0CD1206950B90025A66A206840683D
:1020F000C0F308003080A06A801CA06215E0A56AC9
:102100000026A068B0F5805F03D0A06828B92069D8
:1021100018B920684068287004E02068406800F022
:102120007F002870A06A401CA062E08D401E80B233
:10213000E085002844D12068C06820F02000216894
:10214000C8602068C06820F480702168C86020687A
:10215000406920F0010021684861202084F83E0099
:10216000206B012826D10020206300BF00BF21681A
:102170000C3151E8001F21F0100021680C3141E8BA
:102180000002002AF3D100BF2068006800F01000B0
:1021900010280AD100BF002000902068006800903D
:1021A00020684068009000BF00BFA18D2046FFF767
:1021B0004FFA02E02046FFF79FFC0020F8BD01E047
:1021C0000020FBE70220F9E72DE9F84F04462068DC
:1021D000006920F44050E1680843216808612169E2
:1021E000A068084361690843E169084300902068DA
:1021F000C06849F20C618843009908432168C860AF
:102200002068406920F44070A16908432168486152
:1022100076492068884203D075492068884203D1F6
:10222000FEF746FF814602E0FEF732FF8146E06995
:10223000B0F5004F6CD102206168A0FB015003464D
:102240001920A9FB007001462A463846FDF7B8FF61
:102250006421B0FBF1F04FEA001A02206168A0FB94
:1022600001510B461920A9FB00712A463846FDF79B
:10227000A7FF834602206168A0FB01500346192096
:10228000A9FB00712A463846FDF79AFF6421B0FB8E
:10229000F1F000EBC00101EB0010ABEB800032214C
:1022A00001EBC0006421B0FBF1F000F0F8000AEB94
:1022B000400A02206168A0FB015003461920A9FBD7
:1022C000007001462A463846FDF77AFF8346022011
:1022D0006168A0FB015003461920A9FB00712A4642
:1022E0003846FDF76DFF6421B0FBF1F000EBC00153
:1022F00001EB0010ABEB8000322101EBC000642148
:10230000B0FBF1F000F007005044216888606AE0FB
:1023100004206168A0FB015003461920A9FB00704E
:1023200001462A463846FDF74BFF82460420616885
:10233000A0FB015003461920A9FB007001462A4664
:102340003846FDF73DFF6421B0FBF1F000EBC00122
:1023500001EB0010AAEB8000322101EB0010642198
:10236000B0FBF1F000F0F00A04206168A0FB0170FE
:1023700003461920A9FB00513A462846FDF720FFE5
:102380006421B0FBF1F00AEB001A04206168A0FBA5
:1023900001510B461920A9FB00712A463846FDF76A
:1023A0000FFF834604206168A0FB015003461920FB
:1023B000A9FB007001462A463846FDF701FF64215B
:1023C000B0FBF1F000EBC00101EB0010ABEB8000C3
:1023D000322101EB00106421B0FBF1F000F00F009E
:1023E000504421688860BDE8F88F0000001001406B
:1023F0000014014010B5034699629A85DA850020E1
:102400001864222083F83E0000BF002083F83C00BF
:1024100000BF186928B11868C06840F480701C6853
:10242000E0601868406940F001001C68606118684D
:10243000C06840F020001C68E060002010BD01462C
:1024400091F83D00212828D18868B0F5805F0BD134
:10245000086948B90A6A1088C0F308000B68586018
:10246000086A801C086205E00B6A581C086218782C
:102470000B685860C88C401E80B2C88458B9086880
:10248000C06820F080000B68D8600868C06840F021
:1024900040000B68D860002070470220FCE72DE95F
:1024A000F04104460D4617469846069E34E0701CDF
:1024B00088B32EB1FEF748FCA0EB0800B0422BD940
:1024C00000BF00BF21680C3151E8001F21F4D0701B
:1024D00021680C3141E80002002AF3D100BF00BF9F
:1024E00000BF2168143151E8001F21F0010021686C
:1024F000143141E80002002AF3D100BF202084F803
:102500003D0084F83E0000BF002084F83C0000BF7E
:102510000320BDE8F081FFE7206800682840A8425A
:1025200001D1012000E00020B842C0D00020F0E737
:1025300010B50248FFF78EF810BD000060000020C3
:1025400000BFFEE738B5044609E06068FFF799FC74
:10255000009001231A4669462068FFF7E7FA606891
:10256000FFF7E5FB0028F0D138BD000010B50446A8
:102570000C4A4FF4FA710C48FFF721FC0B4A4FF458
:10258000FA710B48FFF71BFC09480A4988600648A6
:10259000486008460460012208680749FFF78AFA84
:1025A00010BD0000A400002090040020990200202B
:1025B0009C040020A8040020140000200FB4054B48
:1025C00010B503A9044A029800F0F6F810BC5DF8B3
:1025D00014FB0000E92E00081800002002480068E3
:1025E000C0F30220704700000CED00E010B5002899
:1025F00004DB0A07130E054A135406E00A07140EFB
:10260000034A00F00F031B1FD45410BD00E400E088
:1026100018ED00E002E008C8121F08C1002AFAD134
:1026200070477047002001E001C1121F002AFBD152
:10263000704700002DE9FF5F82B00021DDE9043022
:10264000020DDDF840B0034318D044F61050A2F25A
:10265000FF3242431514119801281FD0A5EB0B003F
:10266000401C5FEA000A4FF000064E4FDFF8389139
:10267000B046504615D5CAF1000413E01198012464
:102680004AA3012801D16FEA0B010298119AC0E90F
:102690000031C0E9024206B0BDE8F09FCBF1000076
:1026A000DFE704460021404A491842EB0450CDE9D7
:1026B000001012E0E00707D032463B46404649464C
:1026C000FDF78DFF8046894632463B461046194647
:1026D000FDF785FF06460F466410002CEAD1DDE9C0
:1026E0000401DDE90023BAF1000F06DAFDF777FFF8
:1026F00042464B46FDF773FF05E0FDF75DFE42469F
:102700004B46FDF759FE04460E460022284BFDF7C6
:10271000F1FF03D84FF0FF30014607E00022254BC0
:1027200020463146FDF7A1FDFDF7CBFF102409E05F
:10273000002C0ADB0A220023FDF742FD039B303206
:102740001A55641E50EA0102F2D1641C039AC4F1C6
:1027500011031444119A012A03D0012208430DD118
:102760000AE0084304D000204FF0110B119072E7EB
:10277000A3EB0B056D1E0DE05B4504DD4FF0000281
:1027800005F1010504E003DA4FF00002A5F10105AF
:10279000002AECD002981199C0E90231C0E9004545
:1027A00079E70000000014400000F03F3000000016
:1027B0000000F0430000E03F2DE9FF4F95B09B463D
:1027C0008946064600250FE2252877D100242746B2
:1027D000F84A0121059400E0044316F8013F203B2C
:1027E00001FA03F01042F7D130782A2811D06FF0A7
:1027F0002F033078A0F13002092A16D8059A44F048
:10280000020402EB820203EB42021044761C0590A4
:10281000EFE759F8042B0592002A03DA504244F4FA
:102820000054059044F00204761C30782E2816D10E
:1028300016F8010F44F004042A280DD06FF02F027F
:102840003078A0F13003092B09D807EB870302EB9E
:102850004303C718761CF3E759F8047B761C3078DD
:102860006C280FD006DC4C2817D068280DD06A28B9
:1028700014D104E0742810D07A280FD10DE044F46C
:1028800000140AE044F4801401E044F44014727827
:10289000824202D104F58014761C761C30786628BA
:1028A0000BD013DC582877D009DC002875D04528D8
:1028B000F6D04628F4D047281AD19DE118E06328C5
:1028C00035D0642879D0652812D195E1702873D06D
:1028D00008DC6728F1D069286FD06E280DD06F28EA
:1028E00006D1B5E073282CD0752875D0782874D01F
:1028F0005A46179990476D1C75E1C4F3025002289F
:1029000009D003280DD0D9F8001004280DD00D608F
:1029100009F1040967E1D9F80010EA17C1E900528A
:10292000F6E7D9F800100D80F2E70D70F0E719F81E
:10293000041B8DF8001000208DF80100EA460120EC
:1029400003E059F804AB4FF0FF3061074FF000018E
:1029500002D40DE008F101018846B9420FDA804542
:10296000F8DB1AF808100029F4D108E008F1010199
:1029700088468142FADB1AF808100029F6D105983A
:102980005B46A0EB080721463846179A00F094FAF8
:10299000284400EB080507E04DE029E10DE01AF8B6
:1029A000010B5A4617999047B8F10108F7D25B46D8
:1029B00021463846179A13E142E00A220092C4F3F6
:1029C00002524FF0000A022A08D059F804CB032A19
:1029D0004FEAEC710AD00DE029E02AE009F1070185
:1029E00021F00702F2E802C1914609E00FFA8CFCDF
:1029F0004FEAEC71042A03D14FFA8CFC4FEAEC71D8
:102A0000002907DA0A460021DCF1000C61EB020123
:102A10002D2202E0220504D52B228DF8042001226C
:102A200003E0E20701D02022F7E7904659E00A21AF
:102A300002E010220DE010214FF0000A00910BE09F
:102A400010224FF0000A44F004040827009203E02B
:102A500008224FF0000A0092C4F30252022A05D065
:102A600059F804CB0021032A08D009E009F1070135
:102A700021F00702F2E802C1914605E01FFA8CFC42
:102A8000042A01D10CF0FF0C4FF00008220728D5D2
:102A9000702806D0009B83F0100353EA0A0305D088
:102AA0000EE040228DF80420012208E05CEA0102D9
:102AB00006D030228DF804208DF8050002229046C1
:102AC000009B83F0080353EA0A030AD15CEA01027F
:102AD00001D1620705D530228DF804204FF001089E
:102AE0007F1E582804D034A003900EA802900DE059
:102AF00036A0F9E753466046009AFDF761FB84462D
:102B00000398825C0298401E029002705CEA010009
:102B1000F0D1029806A9081A00F1200A600702D530
:102B200024F4803400E00127574502DDA7EB0A00BA
:102B300000E0002000EB0A01009005984144401A93
:102B40000590E00306D45B462146179A059800F0ED
:102B5000B3F90544002706E001A85A46C05D17995D
:102B600090476D1C7F1C4745F6DBE0030CD55B46A8
:102B70002146179A059800F09FF9054404E030209B
:102B80005A46179990476D1C0099481E00900029DD
:102B9000F5DC08E0029802995A460078491C029137
:102BA000179990476D1CBAF10001AAF1010AF1DCF6
:102BB00065E1000009280100303132333435363701
:102BC0003839616263646566000000003031323379
:102BD0003435363738394142434445460000000019
:102BE00000F058F90544761C307800287FF4ECADED
:102BF00019B02846BDE8F08F620700D4062709F116
:102C0000070222F0070CFCE80223E14603F000482B
:102C10005FEA080C02D00FF2702C0DE05FEA045C52
:102C200002D50FF2682C07E05FEAC47C02D00FF2F5
:102C3000602C01E0AFF2700C4FF0FF3823F000433E
:102C4000CDF850C065280CD006DC452809D04628B0
:102C50001DD047283DD13DE0662818D067287ED199
:102C600038E00021112F01DB112000E0781CCDE9B4
:102C7000000106A90EA8FFF7DDFCDDE90F010E9AA1
:102C800003910021009207F1010A04914DE04FF0F9
:102C900000400097CDE9011006A90EA8FFF7CAFC75
:102CA000DDE90F0203920E9B11990022DDF80CA0C2
:102CB0000093049211B9791C00EB010AB7EB0A00EA
:102CC00004D4C0F1FF3007F1010A0490AAEB070019
:102CD000019044E0012F00DA01270021112F01DDCE
:102CE000112000E03846CDE9000106A90EA8FFF743
:102CF000A1FCDDE90F010E9A0391002104910092DD
:102D0000BA4621070CD40399514500DA8A46BAF134
:102D1000010F05DD009AAAF10101515C302908D0AC
:102D2000B84202DA10F1040F06DA0121CDE90110F0
:102D300015E0AAF10101E9E7002805DC0499014446
:102D40000491AAEB000102E0411C514500DD8A46D6
:102D50000499401A401C01904FF000400290200757
:102D600004D40198504501DBCDF8048000208DF893
:102D70004F0002980DF14F07B0F1004F25D02B20E6
:102D80000E9002984FF0020800280CDA40420290A0
:102D90002D200E9007E00A210298FDF77CFB3031D0
:102DA000029007F8011DB8F10001A8F10108F2DC5A
:102DB00002980028EFD1791E0E980870307800F044
:102DC000200040F0450007F8020D12A8C01B00F1DA
:102DD00007081498007800B1012000EB0A0101985F
:102DE00001EBE07105984144401A401E0590E00354
:102DF00006D45B462146179A059800F05DF8054415
:102E00001498007818B15A46179990476D1CE00342
:102E100024D55B462146179A059800F04DF80544E5
:102E20001CE00498002807DBDDE90301884203DD8C
:102E30000098405C179901E0179930205A46904756
:102E4000049805F10105401C04900198401E019072
:102E500004D12E205A46179990476D1CBAF10001F3
:102E6000AAF1010ADDDC05E017F8010B5A461799B3
:102E700090476D1CB8F10001A8F10108F4DC5B4635
:102E80002146179A0598ABE62D0000002B000000A4
:102E9000200000002DE9F041044600251E4617469B
:102EA000880404D405E039462020B0476D1C641E18
:102EB000F9D52846BDE8F0812DE9F041044600250A
:102EC0001E469046C80301D5302700E0202788041D
:102ED00004D505E041463846B0476D1C641EF9D55F
:102EE0002846BDE8F081000013B50C464FF6FF738D
:102EF000012269460248FEF719FE00981CBD000039
:102F00001C000020FDF732FFFFF72EF8FEF77AFED7
:102F1000FEF7C4FEFEF7DEFE0348FFF727FB01E0E5
:102F2000FDF718FCFCE70000600000200000000036
:102F30000000000001020304060708090000000069
:102F400001020304124C0000000000000000000019
:102F50000000000000000000000000000000000071
:102F60000000000000000000000000000000000061
:102F70000000000000000000000000000000000051
:102F80000000000000000000000000000000000041
:102F90000000000000000000000000000000000031
:102FA0000000000000000000000000000000000021
:102FB0000000000000000000000000000000000011
:102FC0000000000000000000000000000000000001
:102FD00000000000000000000000000000000000F1
:102FE00000000000000000000000000000000000E1
:102FF00000000000000000000000000000000000D1
:1030000000000000000000000000000000000000C0
:1030100000000000000000000000000000000000B0
:1030200000000000000000000000000000000000A0
:103030000000000000000000000000000000000090
:103040000000000000000000000000000000000080
:103050000000000000000000000000000000000070
:103060000000000000000000000000000000000060
:103070000000000000000000000000000000000050
:103080000000000000000000000000000000000040
:103090000000000000000000000000000000000030
:1030A000000000000000000000000000CC3000081C
:1030B000000000201C00000014260008E830000872
:1030C0001C0000209C0800002426000800000000CE
:1030D00010000000010000000024F400A8040020FB
:0830E0000000000000000000E8
:040000050800018965
:00000001FF
