:020000040800F2
:100000002812002001010008090100080B01000866
:100010000D0100080F010008110100080000000098
:1000200000000000000000000000000013010008B4
:100030001501000800000000170100080918000859
:100040001B0100081B0100081B0100081B01000820
:100050001B0100081B0100081B0100081B01000810
:100060001B0100081B0100081B0100081B01000800
:100070001B0100081B0100081B0100081B010008F0
:100080001B0100081B0100081B0100081B010008E0
:100090001B0100081B0100081B0100081B010008D0
:1000A0001B0100081B0100081B0100081B010008C0
:1000B0001B0100081B0100081B0100081B010008B0
:1000C0001B0100081B0100081B0100081B010008A0
:1000D0001B010008E9180008151900081B01000899
:1000E0001B0100081B0100081B010008DFF80CD0F1
:1000F00000F082FB00480047A121000828120020E0
:100100000648804706480047FEE7FEE7FEE7FEE7B1
:10011000FEE7FEE7FEE7FEE7FEE7FEE789180008D8
:10012000ED00000840EA01039B0703D009E008C97D
:10013000121F08C0042AFAD203E011F8013B00F8AC
:10014000013B521EF9D2704780EA010210B502F05D
:100150000043400022D04A001FD0010E01EB126183
:10016000C0F35600C2F3560240F4000042F400020D
:10017000A0FB022000047F39140400D0401C50EA88
:10018000124001D44000491EC2B20C0604EBD0104C
:10019000401C4008802A02D003E0002010BD20F05F
:1001A0000100002900DA0020184310BD2DE9FE4FA0
:1001B000804681EA0300C00F0C46009021F0004108
:1001C00023F00045B8EB0200A94105D24046214684
:1001D00090461C460B46024623F00040104347D091
:1001E000270DC7F30A00C3F30A510290401A019089
:1001F00040286BDAC3F3130040F4801B009892464A
:1002000020B10023D2EB030A63EB0B0B0198594694
:10021000C0F14002504600F089F906460D465046AE
:100220005946019A00F0A1F910EB08006141002441
:1002300087EA115284EAE7731A4340D0009A62B306
:10024000019A012A4FEA075215DC001B61EB0201FB
:100250004FF0004202EA0752CDE90042001C41F58E
:10026000801132462B4600F0D8F903B0BDE8F08F7C
:1002700040462146F9E7001B61EB0201001C41F5F5
:10028000801300185B412018A2F5001747EB03010B
:1002900040EAD570B6196D4111E06D084FEA360697
:1002A00045EAC0754FEA0752001B61EB0201001CD2
:1002B00041F5801149084FEA30000019514132469A
:1002C0002B4603B0BDE8F04F00F098B9009801222A
:1002D00040000023D0EB020263EBE073009821465C
:1002E0004FEAE074B8EB000061EB0401E9E783F04A
:1002F00000435BE781F0004158E72DE9F04D81EACA
:10030000030404F0004B21F0004514464FF0000AAE
:1003100023F0004150EA050220D054EA01021DD02A
:10032000C5F30A570246C5F31303C1F31300C1F323
:100330000A5640F4801543F48013A7EB0608101BFF
:10034000D64608F2FD3873EB050002D308F1010828
:1003500001E092185B41B8F1000F03DA002001467A
:10036000BDE8F08D00204FF48011064684460EE073
:10037000171B73EB050705D3121B63EB050306433D
:100380004CEA010C49084FEA300092185B4150EAF0
:100390000107EDD152EA030012D082EA040083EA99
:1003A0000501084305D0101BAB4106D201220023F2
:1003B00006E000224FF0004302E06FF0010253100C
:1003C0001AEB06004CEB085110EB0A0041EB0B0155
:1003D000BDE8F04D00F012B9C10F80EAE0700844AA
:1003E000CA079623002100F0DBB80EB5C10F80EAE2
:1003F000E0700844CA07002140F233438DE80E0044
:100400000A460B4600F009F903B000BD00F00042B7
:1004100020F00040C10DC0F3160040F400007F2919
:1004200001DA00207047962903DCC1F19601C8402B
:1004300001E096398840002AF4D04042704720F00D
:100440000040C10DC0F3160040F400007F2901DA1E
:1004500000207047962903DCC1F19601C84070471F
:1004600096398840704770B5C1F30A5201F00045D3
:100470000024C1F3130140F2FF3341F480119A428A
:1004800001DA002070BD40F233439A42A2F23342B7
:1004900003DC524200F059F800E090402C43F1D0C8
:1004A000404270BD00F0004230F000400AD0C10D63
:1004B00001F56071C0F3160042EA0151C20840071D
:1004C0001143704700200146704701F0004330B4EB
:1004D00021F0004150EA010206D00A0DA2F5607237
:1004E000C1F31301002A02DC30BC00207047440F26
:1004F00044EAC104C100E01830BC00EBC25000F077
:1005000046B80000002801DBC0F10040002901DBF3
:10051000C1F1004181427047002801DBC0F1004079
:10052000002901DBC1F1004188427047202A04DB29
:10053000203A00FA02F1002070479140C2F12003F6
:1005400020FA03F3194390407047202A04DB203A35
:1005500021FA02F00021704721FA02F3D040C2F1E3
:1005600020029140084319467047202A06DBCB172A
:10057000203A41FA02F043EAE07306E041FA02F35E
:10058000D040C2F12002914008431946704700292B
:10059000A8BF7047401C490008BF20F00100704709
:1005A00010B4B0FA80FC00FA0CF050EA010404BF69
:1005B00010BC704749B1CCF1200421FA04F411FABF
:1005C0000CF118BF012121430843A3EB0C01CB1D03
:1005D0004FEA00614FEA102042BF002010BC704774
:1005E00000EBC35010440029A4BF10BC7047401C4E
:1005F000490008BF20F0010010BC704710B5141E60
:1006000073F1000408DA401C41F1000192185B41CB
:100610001A4301D120F0010010BD2DE9F04D9246A2
:100620009B4611B1B1FA81F202E0B0FA80F22032B9
:100630009046FFF77BFF04460F4640EA0A0041EA76
:100640000B0153465A46084313D0114653EA0100A2
:1006500019D0C8F140025046FFF777FF05460E4615
:10066000504659464246FFF761FF084305D0012036
:1006700004E020463946BDE8F08D0020054346EAF7
:10068000E0762C4337430A986305E40AA0EB0800A0
:100690000022FD0A44EA47540A3002D500200146F0
:1006A000E9E7010510196941DDE9084500196941CB
:1006B000BDE8F04DA2E72DE9FE4F81EA030404F006
:1006C000004421F0004100944FF0000B23F0004360
:1006D00050EA01045ED052EA03045BD0C3F30A542B
:1006E000C1F30A552C44A4F2F3340194A0FB025444
:1006F000C1F3130141F48011C3F3130343F48013D6
:1007000001FB024400FB034E840A970A44EA815429
:1007100047EA8357A4FB076802958D0A05FB078506
:100720004FEA932C04FB0C542705029D4FEA065810
:1007300047EA1637B5EB08056EEB070C870E920EED
:1007400047EA811742EA8312A7FB0201B6EB0B01CD
:1007500064EB00042B0D43EA0C335E1844EB1C5091
:10076000DA465146E7FB0201C5F313044FEA0B33A7
:1007700043EA14534FEA0432019C43EA0603A4F10E
:100780000C040294009CCDE900B4FFF746FF03B0CF
:10079000BDE8F08F00200146F9E770B521F0004375
:1007A00003430CD0C1F30A550024D5EB040564EBD8
:1007B0000403D617AD1AB34102DB0020014670BD19
:1007C000201841EB025170BD30B5041E71F10004D8
:1007D00004DB4FF00044404264EB0101141E73F14E
:1007E000000405DB1C464FF00043524263EB040358
:1007F0008B4208BF824230BD064C074D06E0E068E0
:1008000040F0010394E8070098471034AC42F6D357
:10081000FFF770FC482500086825000830B5DDB0FA
:10082000044601AA40F263115AA800F08BFE5AA9AF
:10083000204600F00BF85AA800F03CFE401E85B29E
:1008400029465AA800F068FE5DB030BD70B5044678
:100850000D462188284600F00BFFA178284600F0BD
:10086000D5FE94F8660110B9A088FF2808DDFF21A5
:10087000284600F0CBFEA188284600F0F9FE03E0F0
:100880002179284600F0C2FEA288A11D284600F06A
:10089000C5FE284600F024FE06463146284600F0F4
:1008A000B5FE70BD2DE9F041DAB004460D4616469E
:1008B0001F46DDF880814FF4B4720D496846FFF79A
:1008C00031FC8DF80250ADF804608DF86681324637
:1008D00039460DF10600FFF725FC68466168FFF711
:1008E000B5FF204601F0EAF95AB0BDE8F0810000FA
:1008F000A02300082DE9F04F85B082460D469146B1
:100900001C46C5EB0510C01C0490049801F012FDB4
:100910008046B9F1080F7CD2DFE809F07B0463D58B
:10092000F0EFEEEDC5EBC500C61C4246314601A80E
:1009300000F008FE082101A800F068FE072101A8C8
:1009400000F064FE294601A800F060FE002745E0A3
:10095000C7EBC70014F8201001A800F057FEC7EB42
:10096000C70104EB81014868FE49FFF7D5FD05D2B8
:100970004FF4E16101A800F069FE1EE0C7EBC7017A
:1009800004EB81014868F849FFF7BCFD04D2F74940
:1009900001A800F05BFE10E0C7EBC70004EB80008D
:1009A0004168F348FFF7D0FB0090FFF72FFD0FFAE7
:1009B00080FB594601A800F049FEC7EBC70004EBD5
:1009C0008000818901A800F053FEC7EBC70004EB4B
:1009D0008000018B01A800F04BFE7F1CAF42B7DB0B
:1009E0006EE205EB450000EBC500C61C42463146F1
:1009F00001A800F0A7FD0B2101A800F007FE0B21C4
:100A000001A800F003FE294601A800F0FFFD002721
:100A100056E04EE2C7EBC70014F8201001A800F022
:100A2000F5FDC7EBC70104EB81014868CD49FFF72D
:100A300073FD05D24FF4E16101A800F007FE1EE04E
:100A4000C7EBC70104EB81014868C749FFF75AFDAE
:100A500004D2C64901A800F0F9FD10E0C7EBC700B9
:100A600004EB80004168C248FFF76EFB0090FFF77F
:100A7000CDFC0FFA80FB594601A800F0E7FDC7EB5B
:100A8000C70004EB8000818901A800F0F1FDC7EBED
:100A9000C70004EB8000818A01A800F0E9FDC7EBE4
:100AA000C70004EB8000C18A01A800F0E1FDC7EB9C
:100AB000C70004EB8000018B01A800F0D9FD7F1C6A
:100AC000AF42A7DBFCE105EB450000EBC500C61C0F
:100AD0004246314601A800F035FD0C2101A800F086
:100AE00095FD0B2101A800F091FD294601A800F019
:100AF0008DFD002762E0BDE142E1C3E061E0C7EBAC
:100B0000C70014F8201001A800F080FDC7EBC70152
:100B100004EB810148689349FFF7FEFC05D24FF4CE
:100B2000E16101A800F092FD1EE0C7EBC70104EBF4
:100B3000810148688C49FFF7E5FC04D28B4901A884
:100B400000F084FD10E0C7EBC70004EB80004168B3
:100B50008748FFF7F9FA0090FFF758FC0FFA80FB7F
:100B6000594601A800F072FDC7EBC70004EB8000F6
:100B700081687F48FFF7E8FA0090FFF760FC1FFAF2
:100B800080FB594601A800F073FDC7EBC70004EBDA
:100B90008000818A01A800F06BFDC7EBC70004EB61
:100BA0008000C18A01A800F063FDC7EBC70004EB19
:100BB0008000018B01A800F05BFD7F1CAF429EDB33
:100BC0007EE105EB450000EBC500C61C4246314600
:100BD00001A800F0B7FC0D2101A800F017FD0B21C2
:100BE00001A800F013FD294601A800F00FFD002721
:100BF00045E0C7EBC70014F8201001A800F006FD7F
:100C0000C7EBC70104EB810148685A49FFF784FC30
:100C100005D24FF4611101A800F00FFD1DE0C7EBF4
:100C2000C70104EB810148685349FFF76BFC04D20C
:100C3000524901A800F001FD0FE0C7EBC70004EB2B
:100C4000800041684A48FFF77FFA0090FFF7DEFB1B
:100C50008346594601A800F0F0FCC7EBC70004EB3F
:100C60008000016901A800F0FAFCC7EBC70004EBA3
:100C70008000008B01B201A800F0E8FC7F1CAF42AD
:100C8000B7DB1DE1C5EB0510C61C4246314601A885
:100C900000F058FC0E2101A800F0B8FC0F2101A8BB
:100CA00000F0B4FC294601A800F0B0FC002755E094
:100CB000C7EBC70014F8201001A800F0A7FCC7EB91
:100CC000C70104EB810148682A49FFF725FC05D2DA
:100CD0004FF4611101A800F0B0FC1DE0C7EBC701A3
:100CE00004EB810148682449FFF70CFC04D2234936
:100CF00001A800F0A2FC0FE0C7EBC70004EB8000E6
:100D000041681B48FFF720FA0090FFF77FFB8346FE
:100D1000594601A800F091FCC7EBC70004EB800026
:100D2000016901A800F09BFCC7EBC70004EB800041
:100D3000818A01A800F09CFCC7EBC70004EB80008F
:100D4000C18A01A800F094FCC7EBC70004EB800047
:100D5000008B01B201A800F079FC7F1CAF42A7DB39
:100D6000AEE0000000003443000034C3F8F8FFFF99
:100D7000000020410000B4480000B4C800C0C7FF14
:100D800005EB850000EBC500C61C4246314601A8B4
:100D900000F0D8FB0F2101A800F038FC0D2101A8BC
:100DA00000F034FC294601A800F030FC00275EE08A
:100DB000C7EBC70014F8201001A800F027FCC7EB10
:100DC000C70104EB810148684F49FFF7A5FB05D235
:100DD0004FF4611101A800F030FC1DE0C7EBC70122
:100DE00004EB810148684949FFF78CFB04D248496C
:100DF00001A800F022FC0FE0C7EBC70004EB800065
:100E000041684448FFF7A0F90090FFF7FFFA8346D6
:100E1000594601A800F011FCC7EBC70004EB8000A5
:100E200081683C48FFF790F90090FFF708FB1FFA34
:100E300080FB594601A800F01BFCC7EBC70004EB80
:100E40008000818A01A800F013FCC7EBC70004EB07
:100E50008000C18A01A800F00BFCC7EBC70004EBBF
:100E60008000008B01B201A800F0F0FB7F1CAF42B4
:100E70009EDB25E0EE1C4246314601A800F062FBF5
:100E8000162101A800F0C2FB012101A800F0BEFB61
:100E9000294601A800F0BAFB002707E0C7EBC7000E
:100EA00014F8201001A800F0B1FB7F1CAF42F5DB65
:100EB00006E0404600F09EFF082005B0BDE8F08F38
:100EC00000BFFF2E09DC0020F2B208F10103192156
:100ED00000905046FFF7E6FC08E0012008F101030E
:100EE0003246192100905046FFF7DCFCB9F1070F9C
:100EF00004D1094A2946504600F010F8404600F057
:100F000079FF0020D9E700000000B4480000B4C811
:100F100000C0C7FF00002041940A00202DE9F047DF
:100F2000E8B081468A4615460024BFE00EA948462F
:100F300000F0D4F806461EB1304668B0BDE8F08730
:100F40009DF83E0004EB840105F821000EA8C1794C
:100F5000007A41EA002000B204EB840105EB810134
:100F600048800EA8417A807A41EA002000B204EB62
:100F7000840105EB810188800EA8C17A007B41EADB
:100F8000002000B204EB840105EB8101C8800EA8AB
:100F9000417B807B41EA002000B204EB840105EB39
:100FA0008101088104EB840105EB8101B1F908009E
:100FB000FFF71BFA074688463A4643460020404959
:100FC000FFF795F902460B46CDE900013846414648
:100FD000FFF793F9CDE9020100F034FF0022394B0D
:100FE000CDE90401FFF789F9374A384BCDE906010D
:100FF000FFF7DCF802460B46CDE908010020344932
:10100000FFF77BF94FF06632324BCDE90A01FFF76B
:101010006EF9CDE90C01FFF726FA00B204EB84016A
:1010200005EB810108810EA8C07B04EB840105EB70
:10103000810188720EA9C97C0A060EA9897C42EA40
:1010400001420EA9497C42EA01210EAA127C41EA22
:101050000200FFF7C1F904EB840105EB8101C860D0
:1010600004EB840105EB8101C868FFF71BFA00223D
:10107000194BCDE90A01FFF740F9CDE90C01FFF763
:1010800024FA04EB840105EB8101C8600EA8017D00
:10109000407D41EA002000B204EB840105EB8101B0
:1010A0000882601CC4B200208DF89D015445FFF6F3
:1010B0003DAFD9F8080000F0A5FA00203DE7000098
:1010C0000000B04000D6AA4083DBB5DCE1796B3F7D
:1010D0000000F03F66127140000024402DE9F0410D
:1010E00006460C46002084F86501002780466420EF
:1010F00000F066FB74E0B06800F0DCF900B96FE066
:10110000B06800F079FA054694F8650100F0010036
:10111000D0B9B8F1000F03D1052D01D1A84612E0D6
:10112000B8F1050F0DD11C2D0BD141F605402080E3
:1011300094F8650140F0010084F865014FF0000863
:1011400001E04FF000084BE094F8650100F0020068
:1011500068B9A570A078162802D00420BDE8F081F7
:1011600094F8650140F0020084F8650138E094F8D5
:10117000650100F0040060B9A580A088102801D0A6
:101180000520EBE794F8650140F0040084F8650160
:1011900026E094F8650100F0080070B93846791C23
:1011A000CFB2A11D0D54A088B84205DC94F86501AA
:1011B00040F0080084F8650112E094F8650100F041
:1011C000100060B984F864512046FFF727FB94F8BB
:1011D0006411884201D00620C0E70020BEE700BFAE
:1011E00000F0FEFA002886D00220B7E72DE9F04192
:1011F000024600250026002000230024002791F845
:1012000003C00CF00F0591F803C00CF0100CBCF1FA
:10121000000F03D091F802C04CEA050591F800C018
:10122000BCF1000F31D0146800202BE04FF0010C0E
:101230000CFA00F3B1F800C00CEA03069E4220D17C
:1012400083004FF00F0C0CFA03F7BC4305FA03FCC4
:101250004CEA040491F803C0BCF1280F06D14FF00A
:10126000010C0CFA00FCC2F814C00AE091F803C0AB
:10127000BCF1480F05D14FF0010C0CFA00FCC2F88C
:1012800010C0401C0828D1D31460B1F800C0BCF1D4
:10129000FF0F34DD546800202EE000F1080C4FF001
:1012A000010808FA0CF3B1F800C00CEA03069E42EC
:1012B00021D183004FF00F0C0CFA03F7BC4305FA61
:1012C00003FC4CEA040491F803C0BCF1280F05D1DB
:1012D00000F1080C08FA0CF8C2F8148091F803C069
:1012E000BCF1480F07D100F1080C4FF0010808FAD3
:1012F0000CF8C2F81080401C0828CED35460BDE81A
:10130000F081000070B5002100230F22C47804B3DF
:10131000154C246804F4E064C4F5E064210AC1F1CA
:101320000403CA40447804FA03F18478144021434A
:1013300009010E4C0678A155047804F01F0501241C
:10134000AC4005786D11AD0005F1E025C5F8004110
:1013500009E0047804F01F050124AC40044D067830
:10136000761145F8264070BD0CED00E000E400E089
:1013700080E100E002490143024A11607047000029
:101380000000FA050CED00E029B1064AD2690243DB
:10139000044BDA6104E0034AD2698243014BDA610B
:1013A000704700000010024029B1064A92690243CA
:1013B000044B9A6104E0034A92698243014B9A61AB
:1013C000704700000010024030B5002100220024C8
:1013D00000232D4D6D6805F00C0121B1042905D0C5
:1013E000082923D105E0294D056022E0274D05603D
:1013F0001FE0254D6D6805F47012234D6D6805F4EE
:101400008034022505EB92421CB9214D55430560FD
:101410000BE01D4D6D6805F400351DB11C4D5543A5
:10142000056002E0194D5543056002E0174D056067
:1014300000BF00BF144D6D6805F0F0010909154D9E
:101440006B5C0568DD4045600F4D6D6805F4E0613B
:10145000090A104D6B5C4568DD4085600A4D6D687A
:1014600005F46051C90A0B4D6B5C4568DD40C560F1
:10147000054D6D6805F44041890B074D6B5CC568EF
:10148000B5FBF3F5056130BD0010024000127A0093
:1014900000093D00100000202000002010B5034688
:1014A000184600F018F80446184600F003F8201A11
:1014B00080B210BD01468888CA88904204DCC88882
:1014C0008A88801A80B270478888CA88801A0A89F8
:1014D000101A80B2F7E701460889401E80B27047B3
:1014E000F0B503461846FFF7E5FF05460024002047
:1014F0000EE09A880244521C1E8992FBF6F706FB06
:10150000172291B21A68525C2244D4B2411C88B2AC
:10151000A842EEDBE0B2F0BD30B503460C461846FB
:10152000FFF7C8FFA04201DC002030BD98882044AE
:10153000401C198990FBF1F201FB120085B218687A
:10154000405DF2E730B50B46026000218180C1802A
:10155000591C0181002104E0002405686C544C1CD6
:10156000A1B204898C42F7DC30BD10B50446204698
:10157000FFF794FF02462046FFF7ADFF824201D1FC
:10158000012010BD0020FCE710B504462046FFF7FF
:1015900085FF08B9012010BD0020FCE730B50446E6
:1015A0002046FFF7E2FF08B1002030BDA088401CB4
:1015B000218990FBF1F201FB1200A080A188206834
:1015C000455C0020A288216888542846EDE730B5A4
:1015D00004460D462046FFF7D7FF00B130BDE08836
:1015E000401C218990FBF1F201FB1200E080E188B0
:1015F0002068455400BFF1E710B504462046FFF7C8
:10160000CDFF10BD00218180C180704730B50446F8
:101610000D4629462046FFF7DAFF30BDF0B50746F4
:101620000D461646002405E0295D3846FFF7CFFF3A
:10163000601C84B2B442F7DBF0BD33B5044601ADA3
:10164000042229462046FFF7E9FF3CBD33B5044696
:1016500001AD022229462046FFF7E0FF3CBD33B52D
:10166000044601AD042229462046FFF7D7FF3CBDC2
:1016700033B5044601AD022229462046FFF7CEFFCE
:101680003CBD10B500F002F810BD00000CB5002004
:10169000019000903348006840F480303149086080
:1016A00000BF3048006800F4003000900198401CF2
:1016B0000190009818B90198B0F5A06FF1D12948B0
:1016C000006800F4003010B10120009001E000201B
:1016D00000900098012843D12348006840F0100092
:1016E000214908600846006820F0030008600846A9
:1016F000006840F0020008601A48406819494860D4
:101700000846406848600846406840F48060486089
:101710000846406820F47C1048600846406840F461
:10172000E81048600846006840F08070086000BF1C
:101730000C48006800F000700028F9D009484068A3
:1017400020F00300074948600846406840F0020066
:10175000486000BF0348406800F00C000828F9D139
:101760000CBD0000001002400020024030B50146D0
:10177000B1F1807F01D3012030BD21F07F40401EB8
:101780004FF0E022506150170F22002807DA1307AC
:101790001D0E094B00F00F04241F1D5503E0130715
:1017A0001C0E064B1C5400BF00204FF0E02290613D
:1017B000072010610020DFE718ED00E000E400E002
:1017C00001B50649009808604FF0E020006940F03C
:1017D00001004FF0E021086108BD00000C0000206E
:1017E0000348006808B9012070470020FCE70000AA
:1017F0000C00002001B503490098086000F02CF8A7
:1018000008BD00000C0000200648006828B105480B
:101810000068401E0349086002E00020014908609A
:10182000704700000C00002010B50A4800684FF413
:101830007A71B0FBF1F42046FFF798FF08B100BFC2
:10184000FEE74FF0E020006920F001004FF0E021BA
:10185000086110BD240000204FF0E020006940F036
:1018600001004FF0E021086100BF06480068002831
:10187000FBD14FF0E020006920F001004FF0E021A3
:10188000086170470C00002010B51348006840F054
:1018900001001149086008464068104908400E4997
:1018A0004860084600680E4908400B490860084631
:1018B000006820F4802008600846406820F4FE009C
:1018C00048604FF41F008860FFF7DBFE4FF00060B8
:1018D0000449086010BD0000001002400000FFF83D
:1018E000FFFFF6FE08ED00E010B540F22551074875
:1018F00000F03FF840B1054800F0F6F8C4B20449E2
:1019000088682146FFF763FE10BD000000380140E3
:101910004804002010B540F22551074800F029F88E
:1019200048B10649086800F0DFF8C4B20349886886
:101930002146FFF74CFE10BD00440040580800202F
:1019400021B1828942F40052828104E082894DF6FD
:10195000FF731A408281704702460020B1F5007F74
:1019600000D100BF13880B400BB1012000E0002024
:10197000704770B50246002400230025002040F681
:101980006A16B14200D100BFC1F3421501F01F0336
:10199000012606FA03F3012D02D19689334006E0B1
:1019A000022D02D1168A334001E0968A33400C1290
:1019B000012606FA04F41688344013B10CB1012054
:1019C00000E0002070BDF0B503460024002600258D
:1019D000002040F66A17B94200D100BF1846C1F393
:1019E000421401F01F06012707FA06F5012C01D168
:1019F0000C3004E0022C01D1103000E014301AB198
:101A000007682F43076002E00768AF430760F0BD37
:101A10002DE9F04786B005460E460024A24600BFD9
:101A2000A1460027B08900B100BF2F462C8A4CF692
:101A3000FF700440F08804432C82AC894EF6F3100A
:101A40000440B08831890843718908430443AC815C
:101A5000AC8A4FF6FF400440B0890443AC8201A831
:101A6000FFF7B2FC1F48874202D1DDF810A001E069
:101A7000DDF80CA0A88900F4004040B10AEBCA00D0
:101A800000EB0A1031684900B0FBF1F807E00AEBFF
:101A9000CA0000EB0A1031688900B0FBF1F864203D
:101AA000B8FBF0F004012009642101FB1089A8892A
:101AB00000F4004040B1322000EBC900B0FBF1F06F
:101AC00000F00700044308E0322000EB0910642115
:101AD000B0FBF1F000F00F0004432C8106B0BDE82C
:101AE000F08700000038014001468888C0F30800F4
:101AF0007047C1F3080282807047000000B587B0CC
:101B0000614862490860624A4FF4FA716148FFF720
:101B100019FD614A4FF4FA716048FFF713FD5F4801
:101B20005A4988605B48486001218803FFF73CFC04
:101B300001210420FFF738FC4FF40070ADF81800C5
:101B400003208DF81A0018208DF81B0006A95448B0
:101B5000FFF74CFB4FF48060ADF8180004208DF8BF
:101B60001B0006A94E48FFF741FB4FF4E1300290FD
:101B70000020ADF80C00ADF80E00ADF81000ADF887
:101B800014000C20ADF812004FF4A060FFF7F2FB38
:101B900025208DF8040001208DF805008DF8060041
:101BA0008DF8070001A8FFF7ADFB02A93648FFF743
:101BB0002FFF012240F225513348FFF704FF012196
:101BC0003148FFF7BDFE374837490860374A4FF4C0
:101BD000FA713748FFF7B6FC364A4FF4FA713648C7
:101BE000FFF7B0FC34483049886031484860012133
:101BF0004804FFF7C9FB01210420FFF7D5FB0420AF
:101C0000ADF8180003208DF81A0018208DF81B007D
:101C100006A92348FFF7EAFA0820ADF818000420C7
:101C20008DF81B0006A91E48FFF7E0FA26208DF864
:101C3000040003208DF805008DF8060001208DF8C2
:101C4000070001A8FFF75EFB4FF4E130029000208F
:101C5000ADF80C00ADF80E00ADF81000ADF81400B2
:101C60000C20ADF8120002A90E48FFF7D1FE0122A8
:101C700040F225510B48FFF7A6FE01210948FFF766
:101C80005FFE07B000BD000000380140480400209E
:101C90004400002030040020390200203C040020D1
:101CA000000801400044004058080020540400206F
:101CB00040080020490600204C08002070B504466A
:101CC00007E06068FFF76AFC05462946206800F0D7
:101CD00006F86068FFF7EEFB0028F2D170BD70B522
:101CE00004460D4629462046FFF703FF00BF80212A
:101CF0002046FFF731FE0028F9D070BD2DE9F041F4
:101D00004F1E00EBC7010446D1E9000115461E46EF
:101D100037F006020DD02A463346FEF7CCFC7F1E74
:101D200004EBC703D3E90023FEF740FA37F00602BD
:101D3000F1D1022F25D0042F13D0062F18BFBDE8F4
:101D4000F0812A463346FEF7B6FCD4E90A23FEF7B3
:101D50002DFA2A463346FEF7AEFCD4E90823FEF7F7
:101D600025FA2A463346FEF7A6FCD4E90623FEF7F9
:101D70001DFA2A463346FEF79EFCD4E90423FEF7FB
:101D800015FA2A463346FEF796FCD4E90223FEF7FD
:101D90000DFA2A463346FEF78EFCD4E90023BDE84F
:101DA000F041FEF703BA0000002213461046014935
:101DB000FEF7A3BA0000F03F0122FEF7EEBC0022BE
:101DC000134610461146FEF798BA02E008C8121FE3
:101DD00008C1002AFAD170477047002001E001C114
:101DE000121F002AFBD170470149086070470000AC
:101DF0004000002010B5002821D0114B0022001F08
:101E0000196803E0814203D80A4649680029F9D1DC
:101E100052B11368841A9C4204D1006818441060BF
:101E2000104602E0506000E0186039B102680B1AF9
:101E3000934203D10B681A4402604968416010BDA7
:101E4000380000202DE9F04DC84A002490B091429E
:101E500005DA21F00043934201D805D120B110B03A
:101E6000BDE8F04DFFF7A8BFB1F5801F1BDA53EABC
:101E7000000209D0002911DA0120FFF7B5FF10B0E8
:101E8000BDE8F04DFFF79BBF0220FFF7ADFFFFF766
:101E90008BFF10B081F00041BDE8F08D6FF035048C
:101EA0003622FEF77AFC04EB2152C1F31308B04945
:101EB000A2F2FF33414401F4801282F07F6103EB10
:101EC000225281F04051009241EA08010022A94BC0
:101ED000FEF70DFA044608F10200A74EC0F3130006
:101EE0000D467E44032867D2D6E900232046FEF73C
:101EF0006BFC1ED10098002802BFD6E9000110B08B
:101F0000BDE8F08DFEF771FA07460C469B4A9C4BE4
:101F1000FEF7D1FB06460D469A4A9B4B38462146B2
:101F2000FEF7C9FB10B032462B46BDE8F04DFEF778
:101F30003DB94FF05532954B20462946FEF7BBFB85
:101F40000022934BFEF7D6F906460F4622462B4653
:101F500010461946FEF7AFFB32463B46FEF7ABFB99
:101F6000064600980F46F0B1FEF73FFA80468A46D3
:101F7000824A834BFEF79FFB32463B46FEF7BAF997
:101F800022462B46FEF7B3F905460C467D4A7E4BAA
:101F900040465146FEF78FFB10B02A462346BDE867
:101FA000F04DFEF7A4B90B4610B032462046294644
:101FB000BDE8F04DFEF79BB900224FF0804320466C
:101FC000FEF7F4F802460B4620462946FEF795F93F
:101FD00006460F460098FEF708FACDE9040132469E
:101FE0003B4610463946FEF766FB0C9069480C9A52
:101FF0004044019009910B461046FEF75CFB824677
:10200000024665488B46C8F151080B4608F5D728AB
:1020100003217844FFF772FE52465B46FEF74BFB06
:102020000A905E480D9152465B4604217844FFF7C2
:1020300065FE099B0C9AFEF73EFB844601980D9BBA
:1020400040EA080860460A9AFEF7B0F8834608910D
:10205000B8F1000F4EDD4FF0FF3220462946FEF763
:102060009CFB22462B46FEF726FB804600988A46BC
:1020700060B3DDE90401414A414BFEF71CFB0991C5
:1020800000905A4640465146089BFEF78FF832466C
:102090003B46FEF710FB099B009AFEF787F8424685
:1020A0005346FEF727F922462B46FEF720F9044651
:1020B0000D46DDE90401334A334BFEF7FCFA10B05C
:1020C00022462B46BDE8F04DFEF711B95A46404670
:1020D000089BFEF76BF832463B46FEF7ECFA4246A9
:1020E0005346FEF707F910B022462B46BDE8F04DE7
:1020F000FEF700B9009840B3DDE904011F4A204B08
:10210000FEF7D9FA80468A465A4620462946089B59
:10211000FEF7EDF832463B46FEF7CDFA424653460F
:10212000FEF7E5F822462B46FEF7E1F804460D4699
:10213000DDE90401134A144BFEF7BDFA10B0224644
:102140002B46BDE8F04DFEF7D2B80B465A46204666
:102150002946FEF7CCF832463B46FEF7ACFA10B003
:1021600022462B46BDE8F04DFEF7C4B80000F07FD4
:10217000645F09000000F03F5A060000763C7935A4
:10218000EF39EA3D0000E0FE422EE63F5555D53FCF
:102190000000E03F86EBF9FFF2040000F0040000CD
:1021A000FFF742FBFFF7AAFCAFE0584858494860E8
:1021B00000200870642088814FF47A7008615548C7
:1021C000886014208882C8825349514801620120E6
:1021D0004F49087764214E4801854FF47A71C162F6
:1021E0004C4941621421018641864849C16302205D
:1021F000474981F8380064214548A0F844104FF45D
:102200007A718164434901641421A0F84C10A0F84C
:102210004E104149816503203D4981F854006421F5
:102220003B48A0F860104FF47A7141663949C165A6
:102230001421A0F86810A0F86A10374941670420FB
:10224000334981F8700064213148A0F87C104FF4C4
:102250007A71C0F880102F4981671421A0F884108A
:10226000A0F8861003462D4802782D4801782D48A5
:102270000068FEF73FFB4FF47A70FFF7BBFA244B80
:1022800007222748017827480068FEF733FBC8205B
:10229000FFF7B0FA24481E4948600020888123488F
:1022A000886023491A480162002101851F49416263
:1022B0001D49C1630021A0F844101C4901641C4958
:1022C00081650021A0F860101849C165184941676F
:1022D0000021A0F87C101549816703460F48027859
:1022E0000F4801780F480068FEF704FB4FF47A703E
:1022F000FFF780FA064B0722094801780948006871
:10230000FEF7F8FAC820FFF775FA4EE70000B4426E
:10231000640800200000C8420000B4C20800002089
:102320000900002000000020000034420000A0410D
:10233000000034C2F0B50B30154D20F00701002429
:10234000144A0FE003688B420BD38B4205D95E1A07
:1023500043184768C3E9006700E04368136002C0A0
:1023600004E0021D10680028ECD12046002802D1AC
:10237000286808B10020F0BD064A07481060074AE7
:10238000121A22F00702C0E9002401202860D7E7D2
:102390003C000020380000202C0C0020280E0020DB
:1023A000124C0000000000000000000000000000CF
:1023B000000000000000000000000000000000001D
:1023C000000000000000000000000000000000000D
:1023D00000000000000000000000000000000000FD
:1023E00000000000000000000000000000000000ED
:1023F00000000000000000000000000000000000DD
:1024000000000000000000000000000000000000CC
:1024100000000000000000000000000000000000BC
:1024200000000000000000000000000000000000AC
:10243000000000000000000000000000000000009C
:10244000000000000000000000000000000000008C
:10245000000000000000000000000000000000007C
:10246000000000000000000000000000000000006C
:10247000000000000000000000000000000000005C
:10248000000000000000000000000000000000004C
:10249000000000000000000000000000000000003C
:1024A000000000000000000000000000000000002C
:1024B000000000000000000000000000000000001C
:1024C000000000000000000000000000000000000C
:1024D00000000000000000000000000000000000FC
:1024E00000000000000000000000000000000000EC
:1024F00000000000000000000000000000000000DC
:10250000000000000000000004FA97999999D93F53
:10251000AF788E1DC571CC3F9FC678D0099AC33F56
:10252000935555555555E53F599322942449D23F2B
:10253000DE03CB966446C73F44523EDF12F1C23FF2
:1025400000000000000000006825000800000020D6
:1025500044000000CA1D0008AC250008440000200B
:10256000E4110000DA1D000848040020580800208B
:10257000010500000000000000000000010203044B
:1025800001020304060708090204060800A24A041F
:102590000000000000000000010203040607080913
:0C25A0000000000000000000000000002F
:0400000508000101ED
:00000001FF
