:020000040800F2
:10000000802400209D010008490A0008450A0008D4
:10001000470A000825070008051100080000000035
:100020000000000000000000000000006D0D00084E
:100030002707000800000000B10A0008950E00081C
:10004000B7010008B7010008B7010008B7010008B0
:10005000B7010008B7010008B7010008B7010008A0
:10006000B7010008B7010008B7010008B701000890
:10007000B7010008B7010008B7010008B701000880
:10008000B7010008B7010008B7010008B701000870
:10009000B7010008B7010008B7010008B701000860
:1000A000B7010008B7010008B7010008B701000850
:1000B000B7010008B7010008B7010008B701000840
:1000C000B7010008B7010008B7010008B701000830
:1000D000B7010008510F0008810F0008B7010008A0
:1000E000B7010008B7010008B7010008B701000810
:1000F000B7010008B7010008B7010008B701000800
:10010000B7010008B7010008B7010008B7010008EF
:10011000B7010008B7010008B7010008B7010008DF
:10012000B7010008B7010008B7010008B7010008CF
:10013000B7010008B7010008B7010008B7010008BF
:10014000B7010008B7010008B7010008B7010008AF
:10015000B7010008B7010008B7010008B70100089F
:10016000B7010008B7010008B7010008B70100088F
:10017000B7010008B7010008B7010008B70100087F
:10018000B7010008B7010008DFF80CD000F0B8FA9A
:1001900000480047111C00088024002006488047C2
:1001A00006480047FEE7FEE7FEE7FEE7FEE7FEE75C
:1001B000FEE7FEE7FEE7FEE7F50E0008890100080E
:1001C00040EA01039B0703D009E008C9121F08C0D9
:1001D000042AFAD203E011F8013B00F8013B521E59
:1001E000F9D270472DE9FE4F804681EA0300C00F27
:1001F0000C46009021F0004123F00045B8EB0200CE
:10020000A94105D24046214690461C460B4602466F
:1002100023F00040104347D0270DC7F30A00C3F373
:100220000A510290401A019040286BDAC3F3130080
:1002300040F4801B0098924620B10023D2EB030AC1
:1002400063EB0B0B01985946C0F14002504600F099
:1002500026F906460D4650465946019A00F03EF9E9
:1002600010EB08006141002487EA115284EAE77329
:100270001A4340D0009A62B3019A012A4FEA07520A
:1002800015DC001B61EB02014FF0004202EA07524D
:10029000CDE90042001C41F5801132462B4600F0AA
:1002A0003EF903B0BDE8F08F40462146F9E7001B58
:1002B00061EB0201001C41F5801300185B4120181E
:1002C000A2F5001747EB030140EAD570B6196D415E
:1002D00011E06D084FEA360645EAC0754FEA07524D
:1002E000001B61EB0201001C41F5801149084FEA37
:1002F00030000019514132462B4603B0BDE8F04FA3
:1003000000F0FEB80098012240000023D0EB02026A
:1003100063EBE073009821464FEAE074B8EB00000D
:1003200061EB0401E9E783F000435BE781F0004102
:1003300058E72DE9F04D81EA030404F0004B21F069
:10034000004514464FF0000A23F0004150EA050230
:1003500020D054EA01021DD0C5F30A570246C5F366
:100360001303C1F31300C1F30A5640F4801543F49C
:100370008013A7EB0608101BD64608F2FD3873EB76
:10038000050002D308F1010801E092185B41B8F1C1
:10039000000F03DA00200146BDE8F08D00204FF485
:1003A0008011064684460EE0171B73EB050705D344
:1003B000121B63EB050306434CEA010C49084FEAA4
:1003C000300092185B4150EA0107EDD152EA030078
:1003D00012D082EA040083EA0501084305D0101B0D
:1003E000AB4106D20122002306E000224FF0004379
:1003F00002E06FF0010253101AEB06004CEB0851BB
:1004000010EB0A0041EB0B01BDE8F04D00F078B8AD
:1004100030B50B46014600202022012409E021FAD4
:1004200002F59D4205D303FA02F5491B04FA02F5D1
:100430002844151EA2F10102F1DC30BD2DE9F05F68
:100440000546002092469B46884606468146402443
:100450001BE0284641464746224600F02FF8534607
:100460005A46C01A914110D311461846224600F050
:1004700016F82D1A67EB01084F462246012000218D
:1004800000F00DF817EB00094E41201EA4F1010405
:10049000DFDC484631462A464346BDE8F09F202A25
:1004A00004DB203A00FA02F1002070479140C2F1CB
:1004B000200320FA03F3194390407047202A04DBFD
:1004C000203A21FA02F00021704721FA02F3D040CD
:1004D000C2F120029140084319467047202A06DBEA
:1004E000CB17203A41FA02F043EAE07306E041FA02
:1004F00002F3D040C2F120029140084319467047F0
:1005000010B5141E73F1000408DA401C41F100011B
:1005100092185B411A4301D120F0010010BD2DE972
:10052000F04D92469B4611B1B1FA81F202E0B0FA69
:1005300080F220329046FFF7B2FF04460F4640EAB1
:100540000A0041EA0B0153465A46084313D01146AC
:1005500053EA010019D0C8F140025046FFF7AEFF40
:1005600005460E46504659464246FFF798FF084357
:1005700005D0012004E020463946BDE8F08D00207A
:10058000054346EAE0762C4337430A986305E40ABC
:10059000A0EB08000022FD0A44EA47540A3002D5C5
:1005A00000200146E9E7010510196941DDE9084528
:1005B00000196941BDE8F04DA2E72DE9FE4F81EA3F
:1005C000030404F0004421F0004100944FF0000BBC
:1005D00023F0004350EA01045ED052EA03045BD0EA
:1005E000C3F30A54C1F30A552C44A4F2F334019422
:1005F000A0FB0254C1F3130141F48011C3F31303B0
:1006000043F4801301FB024400FB034E840A970A63
:1006100044EA815447EA8357A4FB076802958D0A90
:1006200005FB07854FEA932C04FB0C542705029D1C
:100630004FEA065847EA1637B5EB08056EEB070C8C
:10064000870E920E47EA811742EA8312A7FB020146
:10065000B6EB0B0164EB00042B0D43EA0C335E1880
:1006600044EB1C50DA465146E7FB0201C5F3130484
:100670004FEA0B3343EA14534FEA0432019C43EA36
:100680000603A4F10C040294009CCDE900B4FFF72A
:1006900046FF03B0BDE8F08F00200146F9E7C1F343
:1006A0000A52C1F3130140F2FF3341F480119A4220
:1006B00002DA00200146704740F233439A42A2F228
:1006C000334202DC5242FFF7F9BEFFF7E8BE0000FA
:1006D00030B5041E71F1000404DB4FF000444042C9
:1006E00064EB0101141E73F1000405DB1C464FF09E
:1006F0000043524263EB0403994208BF904230BD6D
:10070000064C074D06E0E06840F0010394E807005E
:1007100098471034AC42F6D3FFF73AFD881D000825
:10072000A81D0008FEE7704700250BA000F0E8FDBB
:10073000114C4FF47A762946206800F099F80100B0
:1007400006D00EA000F0DCFD304600F099FBF2E789
:1007500012A000F0D5FDF7E73D3D3D5465737420D0
:100760005561727420536572766F2050696E673DD3
:100770003D3D720A000000001400002053657276AF
:100780006F204F66666C696E652C4572726F7220C1
:10079000436F64653D2564200D0A00005365727641
:1007A0006F204F6E6C696E65200D0A0010B5DCB0CD
:1007B00004466A4640F2631159A800F028FA59A984
:1007C000204600F029F859A800F0E8F9401E81B24F
:1007D00059A800F007FA5CB010BD10B504460088B7
:1007E000A0F5E051053901D0032010BDA0781E28E6
:1007F00001D9042010BDA088B0F5AC7F01D9052037
:1008000010BD2046FFF7D2FF94F86411884201D052
:10081000062010BD002010BD70B50D4604460188AD
:10082000284600F09DFAA178284600F088FA94F84E
:10083000660110B9A088FF2808D9FF21284600F0DA
:100840007EFAA188284600F08BFA03E0C1B2284660
:1008500000F075FAA288A11D284600F072FA284619
:1008600000F0A7F901462846BDE8704000F067BADD
:1008700013B5DCB000210122009104465DAB1146A6
:1008800000F06EF801A9204600F00BF8002806D110
:100890009DF80A109DF87421914200D007205EB0A7
:1008A00010BD70B504460D46642000F0D1FA51E049
:1008B000A06800F073F905284CD30021A06800F06F
:1008C000E0F9A0F5E051A068053902D000F01EFA69
:1008D00040E0032100F0C0F9FF28A06820D00321E8
:1008E00000F0BAF9002185F866110844401D86B26F
:1008F000A06800F053F9B0422CD3A06800F017FABA
:100900002880A06800F002FAA87095F86601002817
:10091000A0680DD000F0FAF9A06800F008FA09E02C
:10092000042100F0AEF9012185F866110221DCE70F
:1009300000F0ECF9A88082B2A91DA06800F0E8F9E7
:10094000A06800F0E3F985F864012846BDE870402E
:10095000FFF743BF00F08AFA0028A9D0022070BD3B
:100960002DE9F041DAB015460E46044698464FF49C
:10097000B4720D496846609FFFF722FC8DF8026053
:10098000ADF804508DF866712A4641460DF1060017
:10099000FFF716FC68466168FFF73EFF204600F04F
:1009A00093FC5AB0BDE8F081201C0008F0B500228D
:1009B00001274FF0030C0B6807FA02F52B40AB42FE
:1009C0002CD1066853000CFA03F4A64306600E7996
:1009D000D0F800E09E4046EA0E0606600E79012E31
:1009E00001D0022E12D18668A64386604E79D0F8D7
:1009F00008E09E4046EA0E0686604668AE434660C2
:100A000045688E799640B6B235434560C568A543C2
:100A1000C560CC799C40C3681C43C460521C102A3A
:100A2000C9D3F0BD4B07DB0E9A40C90810B500EBE7
:100A30008100016A0F249C40A1430162016A1143B5
:100A4000016210BDFEE7FEE77047000030B50F23DE
:100A5000C27801780125FAB1144A126801F1E02147
:100A600002F4E062C2F5E062C2F30722C2F10404BC
:100A7000D3404278A24084781C401443220181F87C
:100A80000024007800F01F018D404009800000F133
:100A9000E020C0F8005130BD01F01F00854048093A
:100AA000800000F1E020C0F8805130BD0CED00E086
:100AB00070470000044A0029116801D0014300E09A
:100AC000814311607047000030380240044A002919
:100AD000116801D0014300E08143116070470000BC
:100AE00040380240044A0029116801D0014300E067
:100AF00081431160704700004438024070B5204BBC
:100B00001968204C11F00C0104D06610042903D0A0
:100B1000082903D004601BE0066019E0184A121F80
:100B20001168C1F38055116801F03F0115B1B6FBA2
:100B3000F1F101E0B4FBF1F114681268C4F3881418
:100B40006143C2F30142521C5200B1FBF2F1016059
:100B500019680F2202EA11110B4A545C0168E14046
:100B600041601C68072505EA9424145D21FA04F409
:100B700084601B6805EA5333D25CD140C16070BD0C
:100B8000083802400024F4002000002000B503894A
:100B90005B1E00F003F8181A80B200BD8288C1887D
:100BA0008A4201D8881A02E00089511A401A80B29C
:100BB000704770B50346FFF7F1FF05460020014678
:100BC0000DE09A88491C1C890A44B2FBF4F604FB28
:100BD00016221C6892B289B2A25C1044C0B2A9422B
:100BE000EFD370BD10B50C460346FFF7D7FFA04208
:100BF00001D8002010BD9888641C19892044B0FBDE
:100C0000F1F201FB1200196880B2085C10BD0260AD
:100C100000228280C280491C0181114603E00368E2
:100C20005A54491C89B203898B42F8D8704710B5D1
:100C30000446FFF7ABFF2189491E89B2884201D1E2
:100C4000012010BD002010BD00B5FFF79FFF08B1C7
:100C5000002000BD012000BD10B50C460346FFF783
:100C60009DFFA04201D8002010BD9888641C1989FE
:100C70002044B0FBF1F201FB1200196880B2085C5D
:100C800010BD10B50C460346FFF788FF641CA04258
:100C900001D8002010BD988819892044B0FBF1F2DA
:100CA00001FB120080B2421CB2FBF1F401FB1422E2
:100CB00019688A5C085C40EA022010BD10B5044641
:100CC000FFF7B5FF08B1002010BDA0882189401CA6
:100CD000B0FBF1F201FB120081B2A1802268002377
:100CE000505C535410BD30B50D460446FFF7ACFFC1
:100CF00000280AD1E0882189401CB0FBF1F201FBF9
:100D0000120080B2E08021680D5430BDFFF7D6BFDD
:100D1000F0B515460E460746002405E03846FFF7B5
:100D2000CDFF3055641CA4B2AC42F7D3F0BD08B57A
:100D300069460222FFF7ECFFBDF8000008BDFFF78F
:100D4000D2BFF0B515460E460746002405E0315DDA
:100D50003846FFF7C8FF641CA4B2AC42F7D3F0BD1D
:100D600003B501A90222FFF7ECFF0CBD704700009C
:100D70000CB50022274900920192086840F48030A7
:100D800008604FF4A043086800F400300190009818
:100D9000401C0090019810B900989842F3D108685F
:100DA000800334D5012001901A484030026842F097
:100DB000805202601848026842F4404202601548BE
:100DC000083002680260026842F400420260026871
:100DD00042F4A0520260031F104A1A600A6842F0EF
:100DE00080720A600A689201FCD50D4940F20572D2
:100DF0000A60016821F003010160016841F002010D
:100E000001600168C1F381010229FAD10CBD019290
:100E10000CBD00000038024000700040085440073C
:100E2000003C0240401EB0F1807F01D3012070479A
:100E30004FF0E0214861054AF02082F8140D0020AF
:100E40008861072008610020704700000FE000E083
:100E500001B50549009808604FF0E020016941F0B4
:100E60000101016108BD00001C000020034800686A
:100E700008B1002070470120704700001C000020CE
:100E800001B403490098086001B000F021B80000E7
:100E90001C0000200348016809B10168491E016077
:100EA000704700001C000020084810B501684FF48E
:100EB0007A70B1FBF0F0FFF7B5FF00B1FEE74FF03D
:100EC000E020016921F00101016110BD0000002056
:100ED0004FF0E022106940F0010010610448016801
:100EE0000029FCD1106920F001001061704700005A
:100EF0001C000020124810B5016841F47001016027
:100F00001048016841F0010101600E4A00210832D9
:100F1000116002680C4B1A400260031D0B4A1A60F4
:100F2000026822F48022026006480C300160FFF75C
:100F30001FFF03494FF000608039086010BD0000BA
:100F400088ED00E000380240FFFFF6FE103000247C
:100F500010B5094C40F22551204600F03DF800281C
:100F600009D0204600F0C6F8C1B204488068BDE848
:100F70001040FFF7B8BE10BD001001404C1000201B
:100F800010B540F22551084800F026F8002809D095
:100F9000064C206800F0AEF8C1B2A068BDE8104071
:100FA000FFF7A1BE10BD00000044004074200020E7
:100FB000C943018070470029818902D041F4005162
:100FC00001E021F40051818170470246002012881F
:100FD0000A4200D00120704770B501F01F050126BC
:100FE0000024C1F3421306FA05F2012B0FD0022BA5
:100FF0000FD0838A4FEA11210088134206FA01F6C6
:1010000000EA060001D000B10124204670BD8389AA
:10101000F0E7038AEEE710B5C1F3421301F01F04B5
:101020000121A140012B07D0022B07D01430002A48
:10103000026805D00A4304E00C30F8E71030F6E708
:101040008A43026010BD00007FB50446008A0D4649
:10105000C98820F4405001432182A08941F20C61EB
:101060008843A9882A8911436A8902431143A181CF
:10107000A08A20F44071A8890843A0826846FFF73F
:101080003DFD1A48844202D01948844201D1039898
:1010900000E00298A189090400EBC00101EB0010F7
:1010A000296801D5490000E08900B0FBF1F0642215
:1010B000B0FBF2F109010B096FF018056B4300EB6F
:1010C0008300A3891D044FF0320306D503EBC00053
:1010D000B0FBF2F000F0070005E003EB0010B0FBFE
:1010E000F2F000F00F00084320817FBD00100140A6
:1010F000001401408088C0F308007047C1F3080164
:1011000081807047FEE700002DE9F04F694C684F81
:1011100087B0694AF914A4F118002760FFF777FD3A
:10112000A4F61B02F91402F60F00FFF770FDA4F1FC
:101130000C00A0600C38012160600846FFF7BAFC83
:1011400001211020FFF7CEFC072209215B48FFF7A1
:1011500069FC07220A215948FFF764FC02258DF833
:1011600014504FF4C0608DF81550002404908DF891
:10117000164001268DF8176004A95048FFF716FCA9
:101180004FF4E13BADF80440ADF808404FF00C09D6
:10119000CDF800B0ADF80640ADF80C40ADF80A90BF
:1011A00069463846FFF750FF01213846FFF703FF35
:1011B00040213846FFF7FCFE012240F22551384617
:1011C000FFF729FF25208DF8180003278DF81970E7
:1011D0008DF81A708DF81B6006A8FFF737FCDFF852
:1011E000E480344ADFF8D8A00C32A902A8F1180034
:1011F000C8F800A0FFF70BFDA8F61B02A90202F633
:101200000F00FFF704FDA8F10C01C8F808100C3915
:10121000C8F8041001210846FFF74CFC01214804DE
:10122000FFF754FC072202212448FFF7FBFB0722AB
:1012300003212248FFF7F6FB8DF814508DF8155066
:101240008DF81640CDF810908DF8176004A91B4852
:10125000FFF7ACFBADF80440ADF80840CDF800B0A6
:10126000ADF80640ADF80C40ADF80A90694650461E
:10127000FFF7EAFE01215046FFF79DFE4021504650
:10128000FFF796FE012240F225515046FFF7C3FEBC
:1012900026208DF818008DF819708DF81A708DF8C9
:1012A0001B6006A8FFF7D2FB07B0BDE8F08F000077
:1012B000001001404C1000203000002000000240CF
:1012C000004400407420002010B5044606E0606829
:1012D000FFF7F4FC0146206800F006F86068FFF7AD
:1012E0005DFC0028F3D110BD10B50446FFF706FFE2
:1012F00080212046FFF769FE0028F9D010BD0000CC
:101300000FB4054B10B503A9044A029800F0DAF8AF
:1013100010BC5DF814FB0000F51B0008180000204D
:1013200002E008C8121F08C1002AFAD170477047AE
:10133000002001E001C1121F002AFBD1704700000C
:101340002DE9FF5F82B00021DDE90430020DDDF8F8
:1013500040B0034318D044F61050A2F2FF3242438B
:101360001514119801281FD0A5EB0B00401C5FEA53
:10137000000A4FF000064E4FDFF83891B046504655
:1013800015D5CAF1000413E0119801244AA30128DD
:1013900001D16FEA0B010298119AC0E90031C0E94E
:1013A000024206B0BDE8F09FCBF10000DFE7044643
:1013B0000021404A491842EB0450CDE9001012E0E8
:1013C000E00707D032463B4640464946FFF7F5F86E
:1013D0008046894632463B4610461946FFF7EDF8EF
:1013E00006460F466410002CEAD1DDE90401DDE970
:1013F0000023BAF1000F06DAFFF7DFF842464B464A
:10140000FFF7DBF805E0FEF794FF42464B46FEF798
:1014100090FF04460E460022284BFFF759F903D8E7
:101420004FF0FF30014607E00022254B20463146B1
:10143000FEF7D8FEFFF733F9102409E0002C0ADB91
:101440000A220023FEF7FAFF039B30321A55641E6E
:1014500050EA0102F2D1641C039AC4F1110314444E
:10146000119A012A03D0012208430DD10AE0084352
:1014700004D000204FF0110B119072E7A3EB0B0585
:101480006D1E0DE05B4504DD4FF0000205F1010526
:1014900004E003DA4FF00002A5F10105002AECD0C8
:1014A00002981199C0E90231C0E9004579E70000CE
:1014B000000014400000F03F300000000000F04346
:1014C0000000E03F2DE9FF4F95B09B468946064658
:1014D00000250FE2252877D100242746F84A01216C
:1014E000059400E0044316F8013F203B01FA03F0A5
:1014F0001042F7D130782A2811D06FF02F033078BE
:10150000A0F13002092A16D8059A44F0020402EB31
:10151000820203EB42021044761C0590EFE759F873
:10152000042B0592002A03DA504244F4005405903B
:1015300044F00204761C30782E2816D116F8010FDC
:1015400044F004042A280DD06FF02F023078A0F167
:101550003003092B09D807EB870302EB4303C718B5
:10156000761CF3E759F8047B761C30786C280FD092
:1015700006DC4C2817D068280DD06A2814D104E066
:10158000742810D07A280FD10DE044F400140AE03A
:1015900044F4801401E044F440147278824202D191
:1015A00004F58014761C761C307866280BD013DC8A
:1015B000582877D009DC002875D04528F6D0462871
:1015C000F4D047281AD19DE118E0632835D064286B
:1015D00079D0652812D195E1702873D008DC67288E
:1015E000F1D069286FD06E280DD06F2806D1B5E0F4
:1015F00073282CD0752875D0782874D05A4617993E
:1016000090476D1C75E1C4F30250022809D00328ED
:101610000DD0D9F8001004280DD00D6009F104098F
:1016200067E1D9F80010EA17C1E90052F6E7D9F8E6
:1016300000100D80F2E70D70F0E719F8041B8DF82B
:10164000001000208DF80100EA46012003E059F85F
:1016500004AB4FF0FF3061074FF0000102D40DE002
:1016600008F101018846B9420FDA8045F8DB1AF823
:1016700008100029F4D108E008F1010188468142F0
:10168000FADB1AF808100029F6D105985B46A0EBA2
:10169000080721463846179A00F094FA284400EBD0
:1016A000080507E04DE029E10DE01AF8010B5A4664
:1016B00017999047B8F10108F7D25B4621463846A2
:1016C000179A13E142E00A220092C4F302524FF04B
:1016D000000A022A08D059F804CB032A4FEAEC7119
:1016E0000AD00DE029E02AE009F1070121F0070204
:1016F000F2E802C1914609E00FFA8CFC4FEAEC7166
:10170000042A03D14FFA8CFC4FEAEC71002907DA66
:101710000A460021DCF1000C61EB02012D2202E0FF
:10172000220504D52B228DF80420012203E0E207D4
:1017300001D02022F7E7904659E00A2102E010226A
:101740000DE010214FF0000A00910BE010224FF045
:10175000000A44F004040827009203E008224FF036
:10176000000A0092C4F30252022A05D059F804CBB1
:101770000021032A08D009E009F1070121F007023E
:10178000F2E802C1914605E01FFA8CFC042A01D15F
:101790000CF0FF0C4FF00008220728D5702806D067
:1017A000009B83F0100353EA0A0305D00EE04022A9
:1017B0008DF80420012208E05CEA010206D0302204
:1017C0008DF804208DF8050002229046009B83F0DE
:1017D000080353EA0A030AD15CEA010201D1620755
:1017E00005D530228DF804204FF001087F1E5828BF
:1017F00004D034A003900EA802900DE036A0F9E7C3
:1018000053466046009AFEF719FE84460398825CB0
:101810000298401E029002705CEA0100F0D102982A
:1018200006A9081A00F1200A600702D524F48034C2
:1018300000E00127574502DDA7EB0A0000E0002089
:1018400000EB0A01009005984144401A0590E0031E
:1018500006D45B462146179A059800F0B3F9054473
:10186000002706E001A85A46C05D179990476D1CF5
:101870007F1C4745F6DBE0030CD55B462146179AF3
:10188000059800F09FF9054404E030205A46179966
:1018900090476D1C0099481E00900029F5DC08E077
:1018A000029802995A460078491C0291179990476C
:1018B0006D1CBAF10001AAF1010AF1DC65E100003A
:1018C0000928010030313233343536373839616216
:1018D00063646566000000003031323334353637DA
:1018E00038394142434445460000000000F058F9B1
:1018F0000544761C307800287FF4ECAD19B02846FA
:10190000BDE8F08F620700D4062709F1070222F034
:10191000070CFCE80223E14603F000485FEA080CEC
:1019200002D00FF2702C0DE05FEA045C02D50FF2DA
:10193000682C07E05FEAC47C02D00FF2602C01E063
:10194000AFF2700C4FF0FF3823F00043CDF850C0D9
:1019500065280CD006DC452809D046281DD047282C
:101960003DD13DE0662818D067287ED138E00021BF
:10197000112F01DB112000E0781CCDE9000106A940
:101980000EA8FFF7DDFCDDE90F010E9A039100219F
:10199000009207F1010A04914DE04FF000400097DA
:1019A000CDE9011006A90EA8FFF7CAFCDDE90F0278
:1019B00003920E9B11990022DDF80CA00093049273
:1019C00011B9791C00EB010AB7EB0A0004D4C0F18D
:1019D000FF3007F1010A0490AAEB0700019044E0F0
:1019E000012F00DA01270021112F01DD112000E075
:1019F0003846CDE9000106A90EA8FFF7A1FCDDE9F4
:101A00000F010E9A0391002104910092BA4621071A
:101A10000CD40399514500DA8A46BAF1010F05DD6D
:101A2000009AAAF10101515C302908D0B84202DACB
:101A300010F1040F06DA0121CDE9011015E0AAF139
:101A40000101E9E7002805DC049901440491AAEBAF
:101A5000000102E0411C514500DD8A460499401A0C
:101A6000401C01904FF000400290200704D40198E0
:101A7000504501DBCDF8048000208DF84F0002981E
:101A80000DF14F07B0F1004F25D02B200E9002989A
:101A90004FF0020800280CDA404202902D200E90F0
:101AA00007E00A210298FEF7B3FC3031029007F8F4
:101AB000011DB8F10001A8F10108F2DC029800282C
:101AC000EFD1791E0E980870307800F0200040F0B9
:101AD000450007F8020D12A8C01B00F10708149872
:101AE000007800B1012000EB0A01019801EBE071E0
:101AF00005984144401A401E0590E00306D45B4619
:101B00002146179A059800F05DF80544149800786E
:101B100018B15A46179990476D1CE00324D55B46CF
:101B20002146179A059800F04DF805441CE00498EA
:101B3000002807DBDDE90301884203DD0098405CF3
:101B4000179901E0179930205A469047049805F1FB
:101B50000105401C04900198401E019004D12E20E4
:101B60005A46179990476D1CBAF10001AAF1010A73
:101B7000DDDC05E017F8010B5A46179990476D1CFC
:101B8000B8F10001A8F10108F4DC5B462146179A80
:101B90000598ABE62D0000002B000000200000009F
:101BA0002DE9F041044600251E461746880404D45A
:101BB00005E039462020B0476D1C641EF9D5284643
:101BC000BDE8F0812DE9F041044600251E4690460F
:101BD000C80301D5302700E02027880404D505E09C
:101BE00041463846B0476D1C641EF9D52846BDE80D
:101BF000F081000010B504460448006801884906D9
:101C0000FCD5E1B2FFF77AFA204610BD4C10002057
:101C1000FFF74AF9FFF778FAFEF786FDFEE70000C6
:101C2000124C000000000000000000000000000056
:101C300000000000000000000000000000000000A4
:101C40000000000000000000000000000000000094
:101C50000000000000000000000000000000000084
:101C60000000000000000000000000000000000074
:101C70000000000000000000000000000000000064
:101C80000000000000000000000000000000000054
:101C90000000000000000000000000000000000044
:101CA0000000000000000000000000000000000034
:101CB0000000000000000000000000000000000024
:101CC0000000000000000000000000000000000014
:101CD0000000000000000000000000000000000004
:101CE00000000000000000000000000000000000F4
:101CF00000000000000000000000000000000000E4
:101D000000000000000000000000000000000000D3
:101D100000000000000000000000000000000000C3
:101D200000000000000000000000000000000000B3
:101D300000000000000000000000000000000000A3
:101D40000000000000000000000000000000000093
:101D50000000000000000000000000000000000083
:101D60000000000000000000000000000000000073
:101D70000000000000000000000000000000000063
:101D80000000000000000000A81D00080000002066
:101D90003000000020130008D81D0008300000208B
:101DA0005024000030130008007A030A00000000ED
:101DB0000000000001020304060708097420002047
:101DC0000000000000000000000000000102030409
:081DD0000102030406070809E3
:040000050800018965
:00000001FF
