:020000040800F2
:10000000502A00209D010008ED2B0008A32B0008BA
:10001000E92B000881080008CF3400080000000028
:100020000000000000000000000000003B3000085D
:100030008508000800000000692C0008C531000890
:10004000B7010008B7010008B7010008B7010008B0
:10005000B7010008B7010008B7010008B7010008A0
:10006000B7010008B7010008B7010008B701000890
:10007000B7010008B7010008B7010008B701000880
:10008000B7010008B7010008B7010008B701000870
:10009000B7010008B7010008B7010008B701000860
:1000A000B7010008B7010008B7010008B701000850
:1000B000B7010008B7010008B7010008B701000840
:1000C000B7010008B7010008B7010008B701000830
:1000D000B7010008AD320008D9320008B7010008A6
:1000E000B7010008B7010008B7010008B701000810
:1000F000B7010008B7010008B7010008B701000800
:10010000B7010008B7010008B7010008B7010008EF
:10011000B7010008B7010008B7010008B7010008DF
:10012000B7010008B7010008B7010008B7010008CF
:10013000B7010008B7010008B7010008B7010008BF
:10014000B7010008B7010008B7010008B7010008AF
:10015000B7010008B7010008B7010008B70100089F
:10016000B7010008B7010008B7010008B70100088F
:10017000B7010008B7010008B7010008B70100087F
:10018000B7010008B7010008DFF80CD000F066FBEB
:100190000048004789450008502A0020064880474B
:1001A00006480047FEE7FEE7FEE7FEE7FEE7FEE75C
:1001B000FEE7FEE7FEE7FEE745320008890100089A
:1001C00040EA01039B0703D009E008C9121F08C0D9
:1001D000042AFAD203E011F8013B00F8013B521E59
:1001E000F9D270472DE9FE4F804681EA0300C00F27
:1001F0000C46009021F0004123F00045B8EB0200CE
:10020000A94105D24046214690461C460B4602466F
:1002100023F00040104347D0270DC7F30A00C3F373
:100220000A510290401A019040286BDAC3F3130080
:1002300040F4801B0098924620B10023D2EB030AC1
:1002400063EB0B0B01985946C0F14002504600F099
:1002500085F906460D4650465946019A00F09DF92B
:1002600010EB08006141002487EA115284EAE77329
:100270001A4340D0009A62B3019A012A4FEA07520A
:1002800015DC001B61EB02014FF0004202EA07524D
:10029000CDE90042001C41F5801132462B4600F0AA
:1002A000D4F903B0BDE8F08F40462146F9E7001BC2
:1002B00061EB0201001C41F5801300185B4120181E
:1002C000A2F5001747EB030140EAD570B6196D415E
:1002D00011E06D084FEA360645EAC0754FEA07524D
:1002E000001B61EB0201001C41F5801149084FEA37
:1002F00030000019514132462B4603B0BDE8F04FA3
:1003000000F094B90098012240000023D0EB0202D3
:1003100063EBE073009821464FEAE074B8EB00000D
:1003200061EB0401E9E783F000435BE781F0004102
:1003300058E72DE9F04D81EA030404F0004B21F069
:10034000004514464FF0000A23F0004150EA050230
:1003500020D054EA01021DD0C5F30A570246C5F366
:100360001303C1F31300C1F30A5640F4801543F49C
:100370008013A7EB0608101BD64608F2FD3873EB76
:10038000050002D308F1010801E092185B41B8F1C1
:10039000000F03DA00200146BDE8F08D00204FF485
:1003A0008011064684460EE0171B73EB050705D344
:1003B000121B63EB050306434CEA010C49084FEAA4
:1003C000300092185B4150EA0107EDD152EA030078
:1003D00012D082EA040083EA0501084305D0101B0D
:1003E000AB4106D20122002306E000224FF0004379
:1003F00002E06FF0010253101AEB06004CEB0851BB
:1004000010EB0A0041EB0B01BDE8F04D00F00EB916
:100410000EB5C10F80EAE0700844CA07002140F21F
:1004200033438DE80E000A460B4600F00EF903B088
:1004300000BD70B5C1F30A5201F000450024C1F3BC
:10044000130140F2FF3341F480119A4201DA002097
:1004500070BD40F233439A42A2F2334203DC52426F
:1004600000F08BF800E090402C43F1D0404270BD8A
:1004700000F0004230F000400AD0C10D01F560717B
:10048000C0F3160042EA0151C20840071143704709
:1004900000200146704701F0004330B421F00041D4
:1004A00050EA010206D00A0DA2F56072C1F31301F1
:1004B000002A02DC30BC00207047440F44EAC1042B
:1004C000C100E01830BC00EBC25000F078B830B585
:1004D0000B46014600202022012409E021FA02F502
:1004E0009D4205D303FA02F5491B04FA02F528449C
:1004F000151EA2F10102F1DC30BD2DE9F05F0546C9
:10050000002092469B4688460646814640241BE0D2
:10051000284641464746224600F02FF853465A46A1
:10052000C01A914110D311461846224600F016F821
:100530002D1A67EB01084F4622460120002100F0EA
:100540000DF817EB00094E41201EA4F10104DFDC79
:10055000484631462A464346BDE8F09F202A04DB40
:10056000203A00FA02F1002070479140C2F12003C6
:1005700020FA03F3194390407047202A04DB203A05
:1005800021FA02F00021704721FA02F3D040C2F1B3
:1005900020029140084319467047202A06DBCB17FA
:1005A000203A41FA02F043EAE07306E041FA02F32E
:1005B000D040C2F1200291400843194670470029FB
:1005C000A8BF7047401C490008BF20F001007047D9
:1005D00010B4B0FA80FC00FA0CF050EA010404BF39
:1005E00010BC704749B1CCF1200421FA04F411FA8F
:1005F0000CF118BF012121430843A3EB0C01CB1DD3
:100600004FEA00614FEA102042BF002010BC704743
:1006100000EBC35010440029A4BF10BC7047401C1D
:10062000490008BF20F0010010BC704710B5141E2F
:1006300073F1000408DA401C41F1000192185B419B
:100640001A4301D120F0010010BD2DE9F04D924672
:100650009B4611B1B1FA81F202E0B0FA80F2203289
:100660009046FFF77BFF04460F4640EA0A0041EA46
:100670000B0153465A46084313D0114653EA010072
:1006800019D0C8F140025046FFF777FF05460E46E5
:10069000504659464246FFF761FF084305D0012006
:1006A00004E020463946BDE8F08D0020054346EAC7
:1006B000E0762C4337430A986305E40AA0EB080070
:1006C0000022FD0A44EA47540A3002D500200146C0
:1006D000E9E7010510196941DDE90845001969419B
:1006E000BDE8F04DA2E72DE9FE4F81EA030404F0D6
:1006F000004421F0004100944FF0000B23F0004330
:1007000050EA01045ED052EA03045BD0C3F30A54FA
:10071000C1F30A552C44A4F2F3340194A0FB025413
:10072000C1F3130141F48011C3F3130343F48013A5
:1007300001FB024400FB034E840A970A44EA8154F9
:1007400047EA8357A4FB076802958D0A05FB0785D6
:100750004FEA932C04FB0C542705029D4FEA0658E0
:1007600047EA1637B5EB08056EEB070C870E920EBD
:1007700047EA811742EA8312A7FB0201B6EB0B019D
:1007800064EB00042B0D43EA0C335E1844EB1C5061
:10079000DA465146E7FB0201C5F313044FEA0B3377
:1007A00043EA14534FEA0432019C43EA0603A4F1DE
:1007B0000C040294009CCDE900B4FFF746FF03B09F
:1007C000BDE8F08F00200146F9E7C1F30A52C1F3FA
:1007D000130140F2FF3341F480119A4202DA002003
:1007E0000146704740F233439A42A2F2334202DCA0
:1007F0005242FFF7C2BEFFF7B1BE000030B5041E83
:1008000071F1000404DB4FF00044404264EB01014D
:10081000141E73F1000405DB1C464FF000435242E6
:1008200063EB04038B4208BF824230BD30B5041E27
:1008300071F1000404DB4FF00044404264EB01011D
:10084000141E73F1000405DB1C464FF000435242B6
:1008500063EB0403994208BF904230BD064C074D3C
:1008600006E0E06840F0010394E807009847103480
:10087000AC42F6D3FFF78CFCB8470008D847000815
:1008800000BFFEE770470000F0B52DED048B81B08E
:100890000025002600271B48006800F0A1FE1AA0D2
:1008A00002F022FF9FED1C0AB0EE408A4FF4FA647A
:1008B00022463346B0EE480A29461248006801F045
:1008C00085F96A4629460F48006800F05BFF0098EA
:1008D000FFF7CEFD41EC190B53EC192B0FA002F0E2
:1008E00003FF13A002F000FF41F2883002F060FC29
:1008F00039460448006800F0C3FE01B0BDEC048B2B
:10090000F0BD000014000020474F544F3A2031330F
:10091000352E30660D0A000000000000437572207D
:10092000416E676C653A20252E31660D0A00000085
:100930002A2A2A2A2A2A2A2A2A2A2A2A2A2A2A2A17
:100940002A2A2A0A0000000008A002F0CDFE0BE0CF
:100950004FF47A7002F02CFC0A48006808B90120B4
:1009600000E0002007490860F2E700003D3D3D54EB
:10097000657374204C454420426C696E6B3D3D3D6F
:100980000D0A0000A482424210B52DED028B86B004
:1009900000244FF4FA7221462648006800F051FE08
:1009A00001AA21462348006801F03AF89DF8041096
:1009B00021A002F099FEBDF9061023A002F094FEDA
:1009C000BDF9081028A002F08FFEBDF90A102EA074
:1009D00002F08AFEBDF90C1032A002F085FE9DF8EF
:1009E0000E00C0F3C00010B136A002F07DFE9DF8ED
:1009F0000E00C0F3001010B13AA002F075FE9DED9C
:100A0000040A10EE101A0846FFF732FD41EC180BED
:100A100053EC182B3BA002F067FEBDF9141040A068
:100A200002F062FE4FF47A7002F0C2FB06B0BDEC39
:100A3000028B10BD14000020726561642049443AA5
:100A40002025640D0A0000007265616420737563DF
:100A50006573732C20766F6C746167653A2025642A
:100A6000206D560D0A000000726561642073756385
:100A70006573732C2063757272656E743A202564F9
:100A8000206D410D0A00000072656164207375637A
:100A90006573732C20706F7765723A202564206D22
:100AA000570D0A0072656164207375636573732C5A
:100AB0002074656D70657261747572653A20256485
:100AC000200D0A0072656164207375636573732C71
:100AD00020766F6C7461676520746F6F206869673A
:100AE000680D0A0072656164207375636573732C09
:100AF00020766F6C7461676520746F6F206C6F7700
:100B00000D0A000072656164207375636573732C50
:100B100020616E676C653A2025660D0A00000000B2
:100B200072656164207375636573732C20636972E9
:100B3000636C655F636F756E743A2025640D0A00FF
:100B4000002518A002F0D0FD2BE029461D480068C2
:100B500000F0FBFD044684B91BA002F0C5FD012096
:100B60001D4908601D48D0F8A80208B9012000E01E
:100B700000201949091D08600FE0214618A002F065
:100B8000B3FD1548006808B9012000E000201249B3
:100B9000086001201149C1F8A8024FF47A7002F0F0
:100BA00007FBD2E73D3D3D54657374205561727477
:100BB00020536572766F2050696E673D3D3D720A25
:100BC0000000000014000020536572766F204F6E05
:100BD0006C696E65200D0A00A48242420080424288
:100BE000536572766F204F66666C696E652C457230
:100BF000726F7220436F64653D2564200D0A00000A
:100C00002DED108B84B0002502A803AB01222946EC
:100C100000905D48006800F03DFE044629465BA058
:100C200002F062FD2CB9BDF90C105CA002F05CFD75
:100C300002E062A002F058FD02A803AB022229469E
:100C400000905148006800F025FE04462CB9BDF91B
:100C50000C105CA002F048FD02E058A002F044FD38
:100C600002A803AB0322294600904748006800F021
:100C700011FE04462CB9BDF90C105AA002F034FD47
:100C800002E04EA002F030FD02A803AB0422294688
:100C900000903D48006800F0FDFD0446F4BBBDF93E
:100CA0000C00FFF7B5FB41EC180B53EC182B9FED34
:100CB000540B51EC100BFFF736FB41EC1F0B53ECC0
:100CC0001F2B51EC180BFFF734FB41EC1E0BB0EE61
:100CD0004E0AF0EE6E0A02F017FDB0EE40DAF0EECA
:100CE00060DA9FED490B53EC102B51EC1D0BFFF715
:100CF00020FB41EC1C0B9FED460B53EC102BFFF738
:100D000071FA41EC1B0B53EC1B2B9FED430B51EC89
:100D1000100BFFF70EFB41EC1A0B00E00DE09FED0E
:100D2000400B53EC102BFFF7FEFA41EC190B53EC80
:100D3000192B3DA002F0D8FC02E020A002F0D4FC68
:100D400002A803AB0522294600900F48006800F076
:100D5000A1FD044684B9BDF80C00C0F3C00010B179
:100D600039A002F0C1FCBDF80C00C0F3001030B196
:100D70003DA002F0B9FC02E010A002F0B5FC42A0D8
:100D800002F0B2FC00BFFEE714000020726561644F
:100D90002049443A2025640D0A0000007265616410
:100DA000207375636573732C20766F6C746167654F
:100DB0003A202564206D560D0A0000006661696CBA
:100DC0000D0A000072656164207375636573732C8E
:100DD0002063757272656E743A202564206D410D32
:100DE0000A00000072656164207375636573732C7B
:100DF00020706F7765723A202564206D570D0A00C8
:100E0000000000000000B0400000000000D6AA4032
:100E100083DBB5DCE1796B3F000000000000F03FB0
:100E200066666666661271407265616420737563FA
:100E30006573732C2074656D70657261747572656D
:100E40003A2025660D0A000072656164207375639F
:100E50006573732C20766F6C7461676520746F6F97
:100E600020686967680D0A007265616420737563A4
:100E70006573732C20766F6C7461676520746F6F77
:100E8000206C6F770D0A00003D3D3D3D3D3D3D3DF1
:100E90003D3D3D3D3D3D3D3D3D3D3D3D3D3D3D3D82
:100EA0003D3D3D3D3D3D3D3D3D200D0A00000000E6
:100EB00010B5044620460C2C1CD008DCA0F1030021
:100EC000052825D2DFE800F00C0E101214001228BD
:100ED00018D0172813D0182817D0192818D10BE0CC
:100EE000FFF72EFE00F036F900F0F8F800F0E8F910
:100EF00000F0D6FAFFF784FE00F00EF80AE0FFF7E4
:100F000043FD07E0FFF7C0FC04E000F03DFB01E01B
:100F1000FFF71AFD00BF10BD70B5012405259FED38
:100F2000680A684880ED010A0020664908708881D7
:100F30004FF47A7008619FED640A084680ED020A5A
:100F400064208882C8829FED610A084680ED080A05
:100F50000120087700215B4801854FF47A71C16256
:100F60009FED590A80ED090A6421018641869FEDB3
:100F7000540A80ED0F0A0220524981F838000021FE
:100F80005048A0F844104FF47A7181649FED4E0AE6
:100F900080ED100A6421A0F84C10A0F84E109FEDCF
:100FA0004B0A80ED160A0320464981F854000021BF
:100FB0004448A0F860104FF47A7141669FED420AF0
:100FC00080ED170A6421A0F86810A0F86A109FED60
:100FD0003F0A80ED1D0A04203A4981F87000002183
:100FE0003848A0F87C104FF47A71C0F880109FED5B
:100FF000360A80ED1E0A6421A0F88410A0F886103D
:101000000346224629463248006801F097F84FF41B
:101010007A7002F0CDF82B4B072229462C48006845
:1010200001F08CF8C82002F0C3F89FED2A0A254889
:1010300080ED010A002023498881B3EE040A0846A6
:1010400080ED020A9FED240A80ED080A0021018547
:10105000B3EE040A80ED090A9FED1E0A80ED0F0A27
:10106000A0F84410B3EE040A80ED100A9FED1A0AAE
:1010700080ED160AA0F86010B3EE040A80ED170A9E
:101080009FED150A80ED1D0AA0F87C10B3EE040A4E
:1010900080ED1E0A0346224629460D48006801F0ED
:1010A0004DF84FF47A7002F083F8064B0722294678
:1010B0000748006801F042F8C82002F079F870BDD6
:1010C0000000B4428C2000200000C8420000B4C2DE
:1010D0001400002000003442000034C24FF4FA64CF
:1010E00000252BE02B4622469FED150A00211548CE
:1010F000006800F06BFD2B4622469FED130A01218C
:101100001048006800F062FD4FF4FA6002F050F8F9
:101110002B4622469FED0D0A00210A48006800F088
:1011200055FD2B4622469FED0A0A0121054800681D
:1011300000F04CFD4FF4FA6002F03AF8D2E70000FC
:101140000000B44214000020000034420000B4C289
:10115000000034C22DED048B84B000279FED3E0AC1
:10116000F0EE408A002475E03CA002F0BDFA9FED4D
:101170003F0AF0EE408A4FF4FA6823464246B0EE4A
:10118000680A39463A48006800F020FD03AA39464B
:101190003748006800F0F6FA0398FFF769F941EC68
:1011A000190B53EC192B33A002F09EFA404601F0C4
:1011B000FFFF35A002F098FA9FED270AF0EE408A73
:1011C0004FF47A78642596262B464246B0EE680A9C
:1011D00039462748CDE90064006800F04BFD03AABA
:1011E00039462348006800F0CDFA0398FFF740F92C
:1011F00041EC190B53EC192B1EA002F075FA4FF4B9
:10120000FA6001F0D5FF26A002F06EFA9FED2A0ADF
:10121000F0EE408A9FED298A00BF00BF33462A4680
:10122000F0EE480AB0EE680A3946114800940068AA
:1012300000F084FD03AA39460D48006800F0A2FAC8
:101240000398FFF715F941EC190B53EC192B09A082
:1012500002F04AFA88E7000000000000474F544FB0
:101260003A2039302E30660D0A0000000000B442EA
:101270001400002043757220416E676C653A20258A
:101280002E31660D0A000000474F544F2B496E74F3
:10129000657276616C3A20302E30660D0A000000CF
:1012A000474F544F2B56656C6F636974793A202D04
:1012B000392E30660D0A00000000B4C20000484319
:1012C0002DED048B84B0002700249CE04EA002F09A
:1012D0000BFA9FED530AF0EE408A4FF4FA6823466A
:1012E0004246B0EE680A39464E48006800F0AEFD4E
:1012F00003AA39464B48006800F084FA0398FFF7C8
:10130000B7F841EC190B53EC192B47A002F0ECF99C
:10131000404601F04DFF49A002F0E6F99FED4C0A6E
:10132000F0EE408A23464246B0EE680A39463D4810
:10133000006800F08BFD03AA39463A48006800F0C7
:1013400061FA0398FFF794F841EC190B53EC192B51
:1013500035A002F0C9F9404601F02AFF3DA002F095
:10136000C3F99FED440AF0EE408A4FF47A78642581
:10137000C8262B464246B0EE680A39462948CDE9D0
:101380000064006800F0BEFD03AA394625480068E5
:1013900000F038FA0398FFF76BF841EC190B53ECA7
:1013A000192B21A002F0A0F94FF4FA6001F000FF20
:1013B00031A002F099F99FED380AF0EE408A9FEDD6
:1013C000378A00BF00BF33462A46F0EE480AB0EE27
:1013D000680A394613480094006800F0FDFD03AA2E
:1013E00039461048006800F00DFA0398FFF740F8FE
:1013F00041EC190B53EC192B0BA002F075F94FF4CB
:10140000FA6001F0D5FE61E74D5475726E20474FCA
:10141000544F3A203732302E30660D0A000000005B
:10142000000034441400002043757220416E676C44
:10143000653A20252E31660D0A0000004D54757264
:101440006E20474F544F3A20302E30660D0A000070
:10145000000000004D5475726E2B496E74657276F3
:10146000616C20474F544F3A202D3138302E306672
:101470000D0A0000000034434D5475726E2B566502
:101480006C6F6369747920474F544F3A202D31387F
:10149000302E30660D0A0000000034C30000C84240
:1014A0002DED028B82B000254FF4FA769FED150AE0
:1014B0008DED010A324629461348006800F0C1F854
:1014C0001FE001AA29461048006800F05BF90446B5
:1014D0005CB90198FEF7CCFF41EC180B53EC182BCC
:1014E00029460AA002F000F907E02246294610A08A
:1014F00002F0FAF81BA002F0F7F84FF4FA7001F0CE
:1015000057FEDEE700000000140000205B494E4655
:101510004F5D20736572766F2069643D20256420DD
:101520003B20616E676C65203D2025660D0A00003A
:101530000D0A5B494E464F5D2072656164207365FC
:1015400072766F20256420616E676C652C20737441
:101550006174757320636F64653A202564200D0AF9
:10156000000000005B4552524F525D6661696C6538
:101570006420746F207265616420736572766F20D9
:10158000616E676C650D0A002DE9F0412DED028B4F
:1015900002249FED110AB0EE408A4FF47A756E1066
:1015A000002733462A46B0EE480A39460B48006801
:1015B00000F00CFB284601F0FBFD3346224639467D
:1015C0000648006800F090FD284601F0F1FDBDECF2
:1015D000028BBDE8F08100000000074314000020EA
:1015E00030B585B00446002504AA002101A801F009
:1015F00035FC002101A801F0E5FC00200DF11103EC
:10160000024612210090204600F0E2F9002005B0C9
:1016100030BD30B5DDB0044601AA40F263115AA8CE
:1016200001F01CFC5AA9204600F063F85AA801F00A
:10163000CDFB401E85B229465AA801F0F9FB5DB0EA
:1016400030BDF0B585B005460E461446032704AA02
:10165000032101A801F002FC314601A801F0B2FC0F
:10166000214601A801F0E0FC00200DF11103032246
:1016700009210090284600F0ABF9002005B0F0BD2C
:1016800070B586B004460D46012605AA012102A8C0
:1016900001F0E4FB294602A801F094FC00200DF1C2
:1016A0001503012213210090204600F091F900203B
:1016B00006B070BD10B50446208841F60541884249
:1016C00001D0032010BDA0781E2801DD0420F9E719
:1016D000A088B0F5AC7F01DD0520F3E72046FFF7D9
:1016E00098FF94F86411884201D00620EAE70020B0
:1016F000E8E770B504460D462188284601F094FCC1
:10170000A178284601F05EFC94F8660110B9A08823
:10171000FF2808DDFF21284601F054FCA188284657
:1017200001F082FC03E02179284601F04BFCA288FD
:10173000A11D284601F04EFC284601F05DFB06463F
:101740003146284601F03EFC70BD73B5DCB006465C
:1017500000205DAB012211460090304600F038F9C0
:1017600002A9304600F0C5F8044644B99DF80E5071
:101770009DF87401854202D007205EB070BD2046FE
:10178000FBE700002DE9F7432DED048BDCB080462C
:1017900014464FF00109002061AB01220A2100909C
:1017A000404600F015F902A9404600F0A2F80746AD
:1017B00017BB9DF80E509DF88401854205D0072087
:1017C0005CB0BDEC048BBDE8FE839DF80F109DF866
:1017D000100041EA002006B23046FEF719FE41EC47
:1017E000190B9FED060B53EC102BFEF7A2FD41ECFD
:1017F000180BFEF750FE20603846E1E700000000BD
:10180000000024402DE9F7432DED048BDCB0804629
:1018100014464FF00109002061AB01221021009015
:10182000404600F0D5F802A9404600F062F80746AD
:101830004FBB9DF80E509DF88401854205D00720CE
:101840005CB0BDEC048BBDE8FE839DF80F109DF8E5
:10185000100041EA00219DF8110041EA00419DF885
:10186000120041EA00663046FEF7D2FD41EC190B4A
:101870009FED060B53EC102BFEF75BFD41EC180BB4
:10188000FEF709FE20603846DAE70000000000009D
:10189000000024402DE9F043DDB081460C4615469A
:1018A0001E46649F8DF870418DF8715100205CAB2D
:1018B000022203210090484600F08AF802A9484617
:1018C00000F017F88046B8F1000F0ED1BDF80C00FB
:1018D000801E3870002005E00DF10E01821C895C2D
:1018E0003154401C39788142F6DC40465DB0BDE899
:1018F000F0832DE9F04104460D464FF000086420C6
:1019000001F03CFC5EE0A06801F060FA052800DA16
:1019100058E00021A06801F0E3FA804641F6054056
:10192000804503D0A06801F029FB4BE00321A068AB
:1019300001F0C0FAFF2808D10421A06801F0D0FA14
:101940000646012085F8660107E00321A06801F042
:10195000B1FA0646002085F86601701D95F86611FB
:1019600009B1022100E00021084487B2A06801F01B
:101970002DFAB84200DA25E0A06801F014FB2880B7
:10198000A06801F0FBFAA87095F8660138B1A0686C
:1019900001F0F4FAA06801F006FBA88003E0A0685B
:1019A00001F0ECFAA880AA88A91DA06801F0ECFA61
:1019B000A06801F0E3FA85F864012846FFF77AFE93
:1019C000BDE8F08101F0EAFB00289CD00220F7E797
:1019D0002DE9F041DAB004460D4616461F46DDF803
:1019E00080814FF4B4720D496846FEF7E9FB8DF82B
:1019F0000250ADF804608DF86681324639460DF12B
:101A00000600FEF7DDFB68466168FFF772FE2046C0
:101A100001F04AFE5AB0BDE8F08100000C46000813
:101A20002DE9F0412DED108BE0B006460F4614462F
:101A30004FF001085FAA01215CA801F00FFA3946B6
:101A40005CA801F0BFFA00200DF27D1301221621DF
:101A500000903046FFF7BCFF02A93046FFF749FF70
:101A600005462DB1284660B0BDEC108BBDE8F08175
:101A70009DF80E0020709DF80F109DF8100041EAAF
:101A8000002000B260809DF811109DF8120041EA1C
:101A9000002000B2A0809DF813109DF8140041EAC8
:101AA000002000B2E0809DF815109DF8160041EA74
:101AB000002000B22081B4F90800FEF7A9FC41EC37
:101AC000180B53EC182B9FED370B51EC100BFEF756
:101AD0002AFC41EC1F0B53EC1F2B51EC180BFEF7AB
:101AE00028FC41EC1E0BB0EE4E0AF0EE6E0A01F03F
:101AF0000BFEB0EE40DAF0EE60DA9FED2C0B53EC0B
:101B0000102B51EC1D0BFEF714FC41EC1C0B9FED50
:101B1000290B53EC102BFEF765FB41EC1B0B53EC30
:101B20001B2B9FED260B51EC100BFEF702FC41EC3A
:101B30001A0B9FED240B53EC102BFEF7F4FB41EC3A
:101B4000190BFEF776FC00B220819DF81700A072F9
:101B50009DF81B0001069DF81A0041EA00419DF81E
:101B6000190041EA00209DF81810084300EE100A01
:101B7000B8EEC00A84ED030A94ED030AF2EE040AFB
:101B800080EE201A84ED031A9DF81C109DF81D00AC
:101B900041EA002000B2208200208DF86D0100BFD4
:101BA00061E70000000000000000B04000000000FD
:101BB00000D6AA4083DBB5DCE1796B3F0000000072
:101BC0000000F03F66666666661271402DE9F041DE
:101BD0002DED028B86B006460F46B0EE408A1446C5
:101BE0001D464FF0070804AA072101A801F036F9A5
:101BF0009FED1E0AB4EEC08AF1EE10FA04DD9FEDEF
:101C00001B0AB0EE408A0AE09FED190AB4EEC08AC2
:101C1000F1EE10FA03D29FED160AB0EE408A394673
:101C200001A801F0CFF9B2EE040A28EE000ABDEED9
:101C3000C00A10EE100A01B201A801F0E3F9214632
:101C400001A801F0F1F9294601A801F0EDF9002001
:101C50000DF111030722082100903046FFF7B8FE6E
:101C6000002006B0BDEC028BBDE8F08100003443DB
:101C7000000034C32DE9F0472DED028B88B00746F4
:101C80008846B0EE408A15461C46DDE912694FF0E1
:101C90000B0A05AA0B2102A801F0E0F89FED250A26
:101CA000B4EEC08AF1EE10FA04DD9FED220AB0EE28
:101CB000408A0AE09FED200AB4EEC08AF1EE10FAE5
:101CC00003D29FED1D0AB0EE408A142C00DA1424D2
:101CD000142E00DA1426414602A801F073F9B2EE80
:101CE000040A28EE000ABDEEC00A10EE100A01B286
:101CF00002A801F087F9294602A801F095F92146CA
:101D000002A801F091F9314602A801F08DF9494687
:101D100002A801F089F900200DF115030B221146EC
:101D200000903846FFF754FE002008B0BDEC028B4F
:101D3000BDE8F08700003443000034C32DE9F043D0
:101D40002DED028B87B006460F46B0EE408AF0EECE
:101D5000608A14461D46DDF840804FF00B0904AA46
:101D60000B2101A801F07AF89FED350AB4EEC08A84
:101D7000F1EE10FA04DD9FED320AB0EE408A0AE07F
:101D80009FED300AB4EEC08AF1EE10FA03D29FED57
:101D90002D0AB0EE408AB7EE000AF4EEC08AF1EEEA
:101DA00010FA04D2B7EE000AF0EE408A0AE09FED86
:101DB000260AF4EEC08AF1EE10FA03DD9FED220A46
:101DC000F0EE408A142C00DA1424142D00DA1425C5
:101DD000394601A801F0F6F8B2EE040A28EE000A2E
:101DE000BDEEC00A10EE100A01B201A801F00AF916
:101DF000B2EE040A28EE800ABCEEC00A10EE100A09
:101E000081B201A801F010F9214601A801F00CF9F6
:101E1000294601A801F008F9414601A801F004F99A
:101E200000200DF111030B220C2100903046FFF72A
:101E3000CFFD002007B0BDEC028BBDE8F0830000B1
:101E400000003443000034C300803B442DE9F041DE
:101E50002DED028B88B006460F46B0EE408A144640
:101E60001D464FF00B0805AA0B2102A800F0F6FF53
:101E70009FED210AB4EEC08AF1EE10FA04DD9FED69
:101E80001E0AB0EE408A0AE09FED1C0AB4EEC08A3A
:101E9000F1EE10FA03D29FED190AB0EE408AB4F5C4
:101EA0007A1F03D99FED160AB0EE408A394602A880
:101EB00001F088F8B2EE040A28EE000ABDEEC00A6E
:101EC00010EE101A02A801F094F8214602A801F0C1
:101ED000A2F829B202A801F095F800200DF115032F
:101EE0000B220D2100903046FFF772FD002008B054
:101EF000BDEC028BBDE8F0810000B4480000B4C81E
:101F000000007A4A2DE9F0472DED028B88B0074694
:101F10008846B0EE408A14461D46DDE912694FF04E
:101F20000F0A04AA0F2101A800F098FF9FED280ACC
:101F3000B4EEC08AF1EE10FA04DD9FED250AB0EE92
:101F4000408A0AE09FED230AB4EEC08AF1EE10FA4F
:101F500003D29FED200AB0EE408AB4F57A1F01D972
:101F60004FF47A14142D00DA1425142E00DA1426F6
:101F7000414601A801F026F8B2EE040A28EE000A54
:101F8000BDEEC00A10EE101A01A801F032F8214689
:101F900001A801F040F8294601A801F045F83146B2
:101FA00001A801F041F80FFA89F101A801F02AF81F
:101FB00000200DF111030F220E2100903846FFF78B
:101FC00007FD002008B0BDEC028BBDE8F0870000E3
:101FD0000000B4480000B4C82DE9F0432DED028B99
:101FE00089B006460F46B0EE408AF0EE608A14468D
:101FF0001D46DDF848804FF00D0905AA0D2102A805
:1020000000F02CFF9FED350AB4EEC08AF1EE10FA15
:1020100004DD9FED320AB0EE408A0AE09FED300AFF
:10202000B4EEC08AF1EE10FA03D29FED2D0AB0EEA5
:10203000408AB7EE000AF4EEC08AF1EE10FA04D23C
:10204000B7EE000AF0EE408A0AE09FED260AF4EEB1
:10205000C08AF1EE10FA03DD9FED220AF0EE408A0D
:10206000142C00DA1424142D00DA1425394602A8A1
:1020700000F0A8FFB2EE040A28EE000ABDEEC00A86
:1020800010EE101A02A800F0B4FFB2EE040A28EE17
:10209000800ABCEEC00A10EE100A81B202A800F05D
:1020A000C3FF214602A800F0BFFF294602A800F0A6
:1020B000BBFF0FFA88F102A800F0A4FF00200DF189
:1020C00015030D220F2100903046FFF781FC002000
:1020D00009B0BDEC028BBDE8F08300000000B448FD
:1020E0000000B4C800803B442DE9F04186B00646AC
:1020F0000F4614461D464FF0040804AA042101A807
:1021000000F0ACFE394601A800F05CFF44F010047A
:10211000214601A800F056FF29B201A800F072FF85
:1021200000200DF111030422182100903046FFF722
:102130004FFC002006B0BDE8F08100002DE9FF5FF4
:1021400082460D4691461C46C5EB051000F1030B77
:10215000584602F025FA8046B9F1080F7ED2DFE832
:1021600009F07D046CE8FEFDFCFBC5EBC500C61C58
:102170004246314601A800F071FE082101A800F096
:1021800021FF072101A800F01DFF294601A800F04A
:1021900019FF00274EE0C7EBC70014F8201001A874
:1021A00000F010FFC7EBC70004EB800090ED010AC0
:1021B000DFEDFA0AB4EEE00AF1EE10FA05DD4FF4B5
:1021C000E16101A800F01EFF23E0C7EBC70004EBAC
:1021D000800090ED010ADFEDF20AB4EEE00AF1EEC4
:1021E00010FA04D2EF4901A800F00CFF11E0C7EB90
:1021F000C70004EB800090ED010AF2EE040A20EE25
:10220000200ABDEEC00A10EE100A01B201A800F0CB
:10221000F9FEC7EBC70004EB8000818901A800F03C
:1022200003FFC7EBC70004EB8000018B01A800F09F
:10223000FBFE7F1CAF42AEDB9CE205EB450000EBF2
:10224000C500C61C4246314601A800F007FE0B211E
:1022500001A800F0B7FE0B2101A800E083E200F026
:10226000B1FE294601A800F0ADFE00275EE0C7EBF5
:10227000C70014F8201001A800F0A4FEC7EBC700A7
:1022800004EB800090ED010ADFEDC40AB4EEE00A31
:10229000F1EE10FA05DD4FF4E16101A800F0B2FEA5
:1022A00023E0C7EBC70004EB800090ED010ADFEDEF
:1022B000BC0AB4EEE00AF1EE10FA04D2B94901A862
:1022C00000F0A0FE11E0C7EBC70004EB800090ED2A
:1022D000010AF2EE040A20EE200ABDEEC00A10EE5A
:1022E000100A01B201A800F08DFEC7EBC70004EB95
:1022F0008000818901A800F097FEC7EBC70004EBBE
:102300008000818A01A800F08FFEC7EBC70004EBB4
:102310008000C18A01A800F087FEC7EBC70004EB6C
:102320008000018B01A800F07FFE7F1CAF429EDB86
:1023300020E205EB450000EBC500C61C42463146D5
:1023400001A800F08BFD0C2101A800F03BFE0B2141
:1023500001A800F037FE03E0E6E161E1DCE071E0B6
:10236000294601A800F02EFE002768E0C7EBC70051
:1023700014F8201001A800F025FEC7EBC70004EBFD
:10238000800090ED010ADFED850AB4EEE00AF1EE7F
:1023900010FA05DD4FF4E16101A800F033FE23E0FF
:1023A000C7EBC70004EB800090ED010ADFED7C0A6B
:1023B000B4EEE00AF1EE10FA04D27A4901A800F076
:1023C00021FE11E0C7EBC70004EB800090ED010A8D
:1023D000F2EE040A20EE200ABDEEC00A10EE100A4A
:1023E00001B201A800F00EFEC7EBC70004EB8000AD
:1023F00090ED020AF2EE040A20EE200ABCEEC00ABA
:1024000010EE100A81B201A800F00EFEC7EBC70063
:1024100004EB8000818A01A800F006FEC7EBC7002C
:1024200004EB8000C18A01A800F0FEFDC7EBC700E5
:1024300004EB8000018B01A800F0F6FD7F1CAF4289
:1024400094DB97E105EB450000EBC500C61C424656
:10245000314601A800F002FD0D2101A800F0B2FDF7
:102460000B2101A800F0AEFD294601A800F0AAFD4D
:1024700000274EE0C7EBC70014F8201001A800F0B9
:10248000A1FDC7EBC70004EB800090ED010ADFED72
:10249000460AB4EEE00AF1EE10FA05DD4FF46111E0
:1024A00001A800F0A6FD22E0C7EBC70004EB800006
:1024B00090ED010ADFED3D0AB4EEE00AF1EE10FA0C
:1024C00004D23B4901A800F094FD10E0C7EBC7001F
:1024D00004EB800090ED010AF2EE040A20EE200ADF
:1024E000BDEEC00A10EE101A01A800F082FDC7EB85
:1024F000C70004EB8000016901A800F08CFDC7EB68
:10250000C70004EB8000008B01B201A800F07AFD47
:102510007F1CAF42AEDB2DE1C5EB0510C61C424669
:10252000314601A800F09AFC0E2101A800F04AFDF6
:102530000F2101A800F046FD294601A800F042FD48
:1025400000276AE0C7EBC70014F8201001A800F0CC
:1025500039FDC7EBC70004EB800090ED010ADFED09
:10256000120AB4EEE00AF1EE10FA05DD4FF4611143
:1025700001A800F03EFD2EE0C7EBC70004EB800091
:1025800090ED010ADFED090AB4EEE00AF1EE10FA6F
:1025900010D2074901A800F02CFD1CE000003443D4
:1025A000000034C3F8F8FFFF0000B4480000B4C8CE
:1025B00000C0C7FFC7EBC70004EB800090ED010A25
:1025C000F2EE040A20EE200ABDEEC00A10EE101A48
:1025D00001A800F00EFDC7EBC70004EB8000016905
:1025E00001A800F018FDC7EBC70004EB8000818A4A
:1025F00001A800F019FDC7EBC70004EB8000C18AF9
:1026000001A800F011FDC7EBC70004EB8000008BB0
:1026100001B201A800F0F6FC7F1CAF4292DBA9E0FA
:1026200005EB850000EBC500C61C4246314601A8FB
:1026300000F014FC0F2101A800F0C4FC0D2101A83A
:1026400000F0C0FC294601A800F0BCFC002768E0AF
:10265000C7EBC70014F8201001A800F0B3FCC7EBCB
:10266000C70004EB800090ED010A5FED310AB4EE83
:10267000E00AF1EE10FA05DD4FF4611101A800F057
:10268000B8FC22E0C7EBC70004EB800090ED010A24
:102690005FED3A0AB4EEE00AF1EE10FA04D24749CF
:1026A00001A800F0A6FC10E0C7EBC70004EB800017
:1026B00090ED010AF2EE040A20EE200ABDEEC00AF7
:1026C00010EE101A01A800F094FCC7EBC70004EB51
:1026D000800090ED020AF2EE040A20EE200ABCEE21
:1026E000C00A10EE100A81B201A800F09DFCC7EBF1
:1026F000C70004EB8000818A01A800F095FCC7EBBD
:10270000C70004EB8000C18A01A800F08DFCC7EB74
:10271000C70004EB8000008B01B201A800F072FC3E
:102720007F1CAF4294DB25E0EE1C4246314601A8F7
:1027300000F094FB162101A800F044FC012101A83F
:1027400000F040FC294601A800F03CFC002707E00F
:10275000C7EBC70014F8201001A800F033FC7F1C61
:10276000AF42F5DB06E0404601F0E6FE082004B08B
:10277000BDE8F09F00BFFF2E09DC0020F2B208F197
:102780000103192100905046FFF722F908E00120CB
:1027900008F101033246192100905046FFF718F95D
:1027A000B9F1070F04D1064A2946504600F00AF84D
:1027B000404601F0C1FE0020D9E7000000C0C7FF7D
:1027C000BC2200202DE9F0412DED108BDAB0074638
:1027D000884615460024D3E06946384600F0ECF8F8
:1027E00006462EB130465AB0BDEC108BBDE8F081E4
:1027F0009DF8060004EB840105F821009DF8071000
:102800009DF8080041EA002000B204EB840105EBCA
:10281000810148809DF809109DF80A0041EA0020D6
:1028200000B204EB840105EB810188809DF80B1058
:102830009DF80C0041EA002000B204EB840105EB96
:102840008101C8809DF80D109DF80E0041EA00201E
:1028500000B204EB840105EB8101088104EB8401E3
:1028600005EB8101B1F90800FDF7D2FD41EC180B31
:1028700053EC182B9FED460B51EC100BFDF753FD5D
:1028800041EC1F0B53EC1F2B51EC180BFDF751FDC6
:1028900041EC1E0BB0EE4E0AF0EE6E0A00F034FF73
:1028A000B0EE40DAF0EE60DA9FED3B0B53EC102B0C
:1028B00051EC1D0BFDF73DFD41EC1C0B9FED380B62
:1028C00053EC102BFDF78EFC41EC1B0B53EC1B2B38
:1028D0009FED350B51EC100BFDF72BFD41EC1A0B66
:1028E0009FED330B53EC102BFDF71DFD41EC190B45
:1028F000FDF79FFD00B204EB840105EB8101088127
:102900009DF80F0004EB840105EB810188729DF8AE
:10291000130001069DF8120041EA00419DF81100E4
:1029200041EA00209DF81010084300EE100AB8EEAE
:10293000C00A04EB840005EB800080ED030A04EB81
:10294000840005EB800090ED030AF2EE040A80EEAD
:10295000201A04EB840005EB800080ED031A9DF83B
:1029600014109DF8150041EA002000B204EB840128
:1029700005EB81010882601CC4B200208DF865015E
:102980004445FFF629AFB86800F018FB00202AE79D
:10299000000000000000B0400000000000D6AA4087
:1029A00083DBB5DCE1796B3F000000000000F03F05
:1029B00066666666661271402DE9F04106460C4671
:1029C000002084F8650100278046642000F0D6FBD3
:1029D00074E0B06800F0FAF900B96FE0B06800F098
:1029E000CDFA054694F8650100F00100D0B9B8F1C0
:1029F000000F03D1052D01D1A84612E0B8F1050F53
:102A00000DD11C2D0BD141F60540208094F86501B5
:102A100040F0010084F865014FF0000801E04FF03C
:102A200000084BE094F8650100F0020068B9A57059
:102A3000A078162802D00420BDE8F08194F8650142
:102A400040F0020084F8650138E094F8650100F078
:102A5000040060B9A580A088102801D00520EBE70C
:102A600094F8650140F0040084F8650126E094F8CC
:102A7000650100F0080070B93846791CCFB2A11D7D
:102A80000D54A088B84205DC94F8650140F00800B8
:102A900084F8650112E094F8650100F0100060B957
:102AA00084F864512046FEF7B4FD94F8641188421E
:102AB00001D00620C0E70020BEE700BF00F06EFB9B
:102AC000002886D00220B7E7F0B50A46002100238F
:102AD000002400BF3DE0012505FA01F3156805EA71
:102AE00003049C4234D105684F000326BE40B54321
:102AF000056015794E00B5400668354305601579C7
:102B0000012D02D01579022D16D185684F000326BC
:102B1000BE40B543856055794E00B5408668354363
:102B20008560456801268E40B543456045689679C5
:102B30008E40B6B235434560C5684F000326BE409F
:102B4000B543C560D5794E00B540C6683543C5600C
:102B5000491C1029BFD3F0BDF0B5002300244D0758
:102B6000ED0E02FA05F3CE1000F1200555F82650BF
:102B70004E07F70E0F26BE40B543CF1000F12006DA
:102B800046F82750CE1000F1200555F8265045EAAA
:102B90000304CE1000F1200545F82640F0BD018366
:102BA000704700BFFEE700001CB50121202000F0A7
:102BB0005DF84FF4C060009001208DF80400002003
:102BC0008DF8060003208DF8050001208DF8070020
:102BD00069460448FFF778FF4FF4C0610148FFF7EA
:102BE000DEFF1CBD0014024000BFFEE7704700007E
:102BF00070B5002100230F22C4781CB3174C246841
:102C000004F4E064C4F5E064C4F30721C1F10404F2
:102C1000E3B20A4144789C40E1B2847814402143F5
:102C20000C07210E0E4C05786155047804F01F0541
:102C30000124AC4005786D11AD0005F1E025C5F823
:102C4000004109E0047804F01F050124AC40054D63
:102C50000678761145F8264070BD00000CED00E0C6
:102C600000E400E080E100E07047000029B1064A7E
:102C700012680243044B1A6004E0034A126882435C
:102C8000014B1A60704700003038024029B1064AF3
:102C900012680243044B1A6004E0034A126882433C
:102CA000014B1A60704700004038024029B1064AC3
:102CB00012680243044B1A6004E0034A126882431C
:102CC000014B1A607047000044380240F0B5002103
:102CD00000220024022500260223324F3F6807F01D
:102CE0000C0121B1042905D0082937D105E02E4F68
:102CF000076036E02D4F076033E02A4F3F1F3F68E3
:102D0000C7F38056274F3F1F3F6807F03F036EB160
:102D1000264FB7FBF3F7DFF88CC0ACF1040CDCF8FE
:102D200000C0CCF3881C07FB0CF40CE01E4FB7FB73
:102D3000F3F7DFF870C0ACF1040CDCF800C0CCF3A2
:102D4000881C07FB0CF4174F3F1F3F68C7F3014770
:102D50007F1C7D00B4FBF5F7076002E0124F0760AF
:102D600000BF00BF0F4F3F6807F0F0010909104F87
:102D70007A5C0768D74047600A4F3F6807F4E05124
:102D8000890A0B4F7A5C4768D7408760054F3F68D8
:102D900007F46041490B064F7A5C4768D740C7602B
:102DA000F0BD0000083802400024F40000127A0050
:102DB0002000002010B50346184600F018F804461D
:102DC000184600F003F8201A80B210BD014688882A
:102DD000CA88904204DCC8888A88801A80B270470A
:102DE0008888CA88801A0A89101A80B2F7E70146D3
:102DF0000889401E80B27047F0B503461846FFF7B9
:102E0000E5FF0546002400200EE09A880244521C8B
:102E10001E8992FBF6F706FB172291B21A68525CE4
:102E20002244D4B2411C88B2A842EEDBE0B2F0BD2D
:102E300030B503460C461846FFF7C8FFA04201DC38
:102E4000002030BD98882044401C198990FBF1F285
:102E500001FB120085B21868405DF2E730B50B4601
:102E6000026000218180C180591C0181002104E0A1
:102E7000002405686C544C1CA1B204898C42F7DC18
:102E800030BD10B504462046FFF794FF02462046A9
:102E9000FFF7ADFF824201D1012010BD0020FCE709
:102EA00010B504462046FFF785FF08B9012010BD84
:102EB0000020FCE730B503460C461846FFF786FFB6
:102EC000A04201DC002030BD98882044401C1989B4
:102ED00090FBF1F201FB120085B21868405DF2E749
:102EE00030B503460C461846FFF770FF611C884258
:102EF00001DC002030BD98882044401C198990FBDB
:102F0000F1F201FB120085B21989681C90FBF1F205
:102F100001FB12001968085C495D41EA0020E9E7FD
:102F200030B504462046FFF7ACFF08B1002030BDA5
:102F3000A088401C218990FBF1F201FB1200A080C7
:102F4000A1882068455C0020A28821688854284612
:102F5000EDE730B504460D462046FFF7A1FF00B16E
:102F600030BDE088401C218990FBF1F201FB12008A
:102F7000E080E1882068455400BFF1E710B50446C1
:102F80002046FFF7CDFF10BDF0B507460D461646AB
:102F9000002405E03846FFF7C3FF2855601C84B2C3
:102FA000B442F7DBF0BD38B504466D46022229462F
:102FB0002046FFF7E9FFBDF8000038BD0021818001
:102FC000C180704730B504460D4629462046FFF7BC
:102FD000C0FF30BDF0B507460D461646002405E09B
:102FE000295D3846FFF7B5FF601C84B2B442F7DBB9
:102FF000F0BD33B5044601AD042229462046FFF753
:10300000E9FF3CBD33B5044601AD02222946204606
:10301000FFF7E0FF3CBD33B5044601AD042229466D
:103020002046FFF7D7FF3CBD33B5044601AD022271
:1030300029462046FFF7CEFF3CBD70470CB5002067
:10304000019000903448006840F4803032490860B4
:1030500000BF3148006800F4003000900198401C27
:103060000190009818B90198B0F5A04FF1D12A4805
:10307000006800F4003010B10120009001E0002051
:1030800000900098012846D123484030006840F065
:1030900080502149403108602048006840F4404099
:1030A0001E4908601C48083000681B490831086048
:1030B0000846006840F4004008600846006840F494
:1030C000A05008601648091F0860081F006840F0FB
:1030D0008070091F086000BF0F48006800F0007092
:1030E0000028F9D040F205700E4908600A480830FF
:1030F000006820F0030008490831086008460068AD
:1031000040F00200086000BF03480830006800F08B
:103110000C000828F8D10CBD0038024000700040B7
:1031200008544007003C024030B50146481EB0F14B
:10313000807F01D3012030BD481E4FF0E022506156
:1031400050170F22002807DA13071D0E094B00F055
:103150000F04241F1D5503E013071C0E064B1C54BF
:1031600000BF00204FF0E022906107201061002096
:10317000E1E7000018ED00E000E400E001B50649D9
:10318000009808604FF0E020006940F001004FF027
:10319000E021086108BD00001C0000200348006811
:1031A00008B9012070470020FCE700001C00002047
:1031B00001B503490098086000F02CF808BD000034
:1031C0001C0000200648006828B105480068401E21
:1031D0000349086002E000200149086070470000D0
:1031E0001C00002010B50A4800684FF47A71B0FB4B
:1031F000F1F42046FFF798FF08B100BFFEE74FF05B
:10320000E020006920F001004FF0E021086110BDCE
:10321000000000204FF0E020006940F001004FF076
:10322000E021086100BF064800680028FBD14FF08C
:10323000E020006920F001004FF0E02108617047B4
:103240001C00002010B51548006840F470001349B8
:1032500008601348006840F0010011490860002030
:103260000F49083108600E4800680E4908400C49B3
:1032700008600D48091D0860081F006820F48020C0
:10328000091F0860002006490C310860FFF7D6FED0
:103290004FF0006001498039086010BD88ED00E002
:1032A00000380240FFFFF6FE1030002410B540F257
:1032B0002551074800F048F840B1054800F0FEF8F5
:1032C000C4B2044988682146FFF743FE10BD0000E0
:1032D000001001405810002010B540F22551074859
:1032E00000F032F848B10649086800F0E7F8C4B2C7
:1032F000034988682146FFF72CFE10BD00440040BA
:103300008020002001F40072B2F5007F00D100BFE0
:10331000CA430280704721B1828942F400528281FF
:1033200004E082894DF6FF731A408281704702469D
:103330000020B1F5007F00D100BF13880B400BB116
:10334000012000E00020704770B5024600240023F1
:103350000025002040F66A16B14200D100BFC1F33B
:10336000421501F01F03012606FA03F3012D02D1D5
:103370009689334006E0022D02D1168A334001E0DF
:10338000968A33400C12012606FA04F4168834405B
:1033900013B10CB1012000E0002070BDF0B5034670
:1033A000002400260025002040F66A17B94200D10B
:1033B00000BF1846C1F3421401F01F06012707FAA7
:1033C00006F5012C01D10C3004E0022C01D11030A3
:1033D00000E014301AB107682F43076002E0076865
:1033E000AF430760F0BD00002DE9FF4705460E46DC
:1033F0000024A14600BFA046B08900B100BF2C8ABE
:1034000024F44054F08804432C82AC8941F20C60CF
:103410008443B08831890843718908430443AC81EF
:10342000AC8A24F44074B0890443AC826846FFF748
:103430004DFC2048854202D01F48854202D1DDF86C
:103440000C9001E0DDF80890A88900F4004040B13C
:1034500009EBC90000EB091031684900B0FBF1F736
:1034600007E009EBC90000EB091031688900B0FBE7
:10347000F1F76420B7FBF0F004012009642101FB9F
:103480001078A88900F4004040B1322000EBC80059
:10349000B0FBF1F000F00700044308E0322000EB3D
:1034A00008106421B0FBF1F000F00F0004432C8100
:1034B000BDE8FF87001001400014014001468888E4
:1034C000C0F308007047C1F308028280704700BF54
:1034D000FEE7000000B587B0664867490860674AA4
:1034E000C1146748FFF7BAFC664A4FF400616648AA
:1034F000FFF7B4FC64486049886061484860012176
:103500000846FFF7B3FB01211020FFF7CFFB07228E
:1035100009215E48FFF720FB07220A215B48FFF7DD
:103520001BFB4FF4C060059002208DF818008DF849
:10353000190000208DF81A0001208DF81B0005A944
:103540005248FFF7C1FA4FF4E13001900020ADF886
:103550000800ADF80A00ADF80C00ADF810000C2022
:10356000ADF80E0001A94348FFF73EFF0121414895
:10357000FFF7D1FE40213F48FFF7C4FE012240F291
:1035800025513C48FFF70AFF25208DF80000032055
:103590008DF801008DF8020001208DF803006846C7
:1035A000FFF726FB3A483B4908603B4AC1143B48B9
:1035B000FFF754FC3A4A4FF400613A48FFF74EFCDB
:1035C0003848344988603548486001210846FFF78B
:1035D0004DFB01214804FFF759FB072202212B482C
:1035E000FFF7BAFA072203212848FFF7B5FA0C20A3
:1035F000059002208DF818008DF8190000208DF834
:103600001A0001208DF81B0005A92048FFF75CFA7D
:103610004FF4E13001900020ADF80800ADF80A0049
:10362000ADF80C00ADF810000C20ADF80E0001A9AB
:103630001748FFF7D9FE01211548FFF76CFE40211E
:103640001348FFF75FFE012240F225511048FFF7B3
:10365000A5FE26208DF8000003208DF801008DF8CE
:10366000020001208DF803006846FFF7C1FA07B099
:1036700000BD000000100140581000203C00002058
:10368000401000203D0800204C10002000000240A7
:1036900000440040802000206410002068200020AA
:1036A000651800207420002070B5044607E06068AB
:1036B000FFF736FC05462946206800F006F86068EA
:1036C000FFF784FB0028F2D170BD70B504460D46AB
:1036D00029462046FFF7F7FE00BF80212046FFF76E
:1036E00026FE0028F9D070BD0FB4054B10B503A914
:1036F000044A029800F074FB10BC5DF814FB000053
:10370000114500081800002070B5D94B00242DED9C
:10371000020B2DED108BDDE91010984205DA20F038
:1037200000429A4201D809D141B19DED100BBDEC88
:10373000108B02B0BDE8704000F05EBAB0F5801F9B
:1037400026DA11430BD0002813DA012000F080FAAA
:10375000BDEC108B02B0BDE8704000F059BA0220F9
:1037600000F076FA00F030FA51EC100B81F00041D5
:103770009EE06FF035049FEDC00B53EC102B9DEDD8
:10378000100B51EC100BFCF7AEFFCDE91001084611
:1037900004EB2051C0F31304B948A1F2FF312044D7
:1037A00000F4801080F07F6282F04052224301EBEF
:1037B00020559FEDB50B119253EC102B9DED100B86
:1037C00051EC100BFCF7AFFD41EC180BA01CC0F343
:1037D00013009FEDAFDB9FEDB0EBB14E7E440328AD
:1037E0006CD296ED000B51EC180B53EC102BFDF73F
:1037F00005F81DD1002D01BF96ED000BBDEC108B1F
:1038000002B070BD2846FCF703FE41EC180B53ECE8
:103810001D2BFCF768FF41EC190B53EC1E2B51ECF0
:10382000180BFCF760FF53EC192BFCF7DBFC3FE0B7
:103830009FED9D0B51EC180B53EC102BFCF753FF35
:103840009FED9B1B53EC112BFCF770FD41EC190B0A
:1038500053EC182B51EC180BFCF745FF53EC192BCC
:10386000FCF741FF41EC190B002D04BF53EC192B61
:1038700051EC180B1AD02846FCF7CAFD41EC1A0B84
:1038800053EC1D2BFCF72FFF53EC192BFCF74EFDCF
:1038900053EC182BFCF747FD41EC180B53EC1E2B97
:1038A00051EC1A0BFCF71FFF53EC182BFCF73BFDF8
:1038B000BDEC108B02B041EC100B70BD9FED7E0B88
:1038C00051EC180B53EC102BFCF78CFC41EC100B5B
:1038D00051EC180B53EC102BFCF72BFD41EC190BA2
:1038E0002846FCF795FD41EC1B0B53EC192B51ECD2
:1038F000190BFCF7F8FE41EC1A0B714853EC1A2B2C
:10390000261851EC1A0BFCF7EEFE41EC1F0B6D482C
:10391000C4F1510404F5D724B0EE4F0AF0EE6F0A5B
:103920000321784400F0D2F853EC1F2B51EC100B1C
:10393000FCF7D9FE41EC1C0B6348B0EE4F0AF0EEE9
:103940006F0A0421784400F0C1F853EC1A2B51ECB3
:10395000100BFCF7C8FE344353EC1C2BFCF742FC65
:1039600041EC1C0B002C4CDD9FED510B51EC180B66
:1039700053EC102BFCF7B7FE53EC182BFCF7B3FEFF
:1039800041EC1A0B55B353EC1D2B51EC1B0BFCF700
:10399000AAFE41EC1D0B53EC1C2B51EC1A0BFCF74F
:1039A00021FC53EC192BFCF79EFE53EC1D2BFCF76E
:1039B00019FC53EC1A2BFCF7B9FC53EC182BFCF751
:1039C000B2FC41EC180B53EC1E2B51EC1B0BFCF71B
:1039D0008AFE53EC182BFCF7A6FC69E753EC1C2B72
:1039E00051EC1A0BFCF7FEFB53EC192BFCF77BFE9A
:1039F00053EC1A2BFCF79AFC53EC182BFCF796FCB3
:103A000056E735B353EC1D2B51EC1B0BFCF76BFE4B
:103A100041EC1A0B53EC1C2B51EC180BFCF783FCFC
:103A200053EC192BFCF75FFE53EC1A2BFCF77BFCD5
:103A300053EC182BFCF777FC41EC180B53EC1E2BC6
:103A400051EC1B0BFCF74FFE53EC182BFCF76BFCF7
:103A50002EE753EC1C2B51EC180BFCF764FC53ECD9
:103A6000192BFCF740FE53EC182BFCF75FFC1FE70B
:103A70000000F07F00000000000000000000504344
:103A8000645F090000000000000000000000F03F3B
:103A9000763C7935EF39EA3D0000E0FE422EE63F04
:103AA000D00F000000000000555555555555D53F25
:103AB000000000000000E03F0000000000000040A7
:103AC00086EBF9FF520E0000480E000070B5044668
:103AD0002DED028B4D1E00EBC500B0EE408AF0EEDE
:103AE000608A90ED000B35F0060017D053EC182BD0
:103AF00051EC100BFCF7F7FD41EC100B6D1E04EBC5
:103B0000C50090ED001B51EC100B53EC112BFCF792
:103B100069FB41EC100B35F00600E7D1022D36D0E1
:103B2000042D1CD0062D1CBFBDEC028B70BD53ECC8
:103B3000182B51EC100BFCF7D6FD94ED0A1B53EC3F
:103B4000112BFCF74FFB53EC182BFCF7CCFD94ED3D
:103B5000081B53EC112BFCF745FB41EC100B53EC0D
:103B6000182B51EC100BFCF7BEFD94ED061B53EC2B
:103B7000112BFCF737FB53EC182BFCF7B4FD94ED3D
:103B8000040B53EC102BFCF72DFB41EC100B53EC0A
:103B9000182B51EC100BFCF7A6FD94ED021B53EC17
:103BA000112BFCF71FFB53EC182BFCF79CFD94ED3D
:103BB000001B53EC112BFCF715FBBDEC028B41EC09
:103BC000100B70BD000000009FED070B10B553EC0B
:103BD000102B9FED070B51EC100BFCF7AAFB41ECEF
:103BE000100B10BD000000000000000000000000ED
:103BF000000000000000F03F10B553EC102B51EC1A
:103C0000100BFCF7EFFA41EC100B10BD00000000A8
:103C10009FED050B10B553EC102B51EC100BFCF77E
:103C200088FB41EC100B10BD0000000000000000FC
:103C300002E008C8121F08C1002AFAD17047704775
:103C4000002001E001C1121F002AFBD170470000D3
:103C50000149086070470000380000202DE9FF5F2F
:103C600082B00021DDE90430020DDDF840B00343ED
:103C700018D044F61050A2F2FF32424315141198A6
:103C800001281FD0A5EB0B00401C5FEA000A4FF093
:103C900000064E4FDFF83891B046504615D5CAF1B0
:103CA000000413E0119801244AA3012801D16FEA0E
:103CB0000B010298119AC0E90031C0E9024206B036
:103CC000BDE8F09FCBF10000DFE704460021404A49
:103CD000491842EB0450CDE9001012E0E00707D08C
:103CE00032463B4640464946FCF7FDFC8046894645
:103CF00032463B4610461946FCF7F5FC06460F4691
:103D00006410002CEAD1DDE90401DDE90023BAF1F9
:103D1000000F06DAFCF7E7FC42464B46FCF7E3FCF3
:103D200005E0FCF706FB42464B46FCF702FB044667
:103D30000E460022284BFCF779FD03D84FF0FF30E8
:103D4000014607E00022254B20463146FCF74AFA9F
:103D5000FCF73BFD102409E0002C0ADB0A220023BB
:103D6000FCF7CBFB039B30321A55641E50EA01026C
:103D7000F2D1641C039AC4F111031444119A012A6C
:103D800003D0012208430DD10AE0084304D00020EB
:103D90004FF0110B119072E7A3EB0B056D1E0DE0B8
:103DA0005B4504DD4FF0000205F1010504E003DA94
:103DB0004FF00002A5F10105002AECD002981199FC
:103DC000C0E90231C0E9004579E700000000144075
:103DD0000000F03F300000000000F0430000E03F32
:103DE0002DE9FF4F95B09B468946064600250FE218
:103DF000252877D100242746F84A0121059400E0C0
:103E0000044316F8013F203B01FA03F01042F7D1BA
:103E100030782A2811D06FF02F033078A0F13002CB
:103E2000092A16D8059A44F0020402EB820203EB39
:103E300042021044761C0590EFE759F8042B0592D6
:103E4000002A03DA504244F40054059044F002047E
:103E5000761C30782E2816D116F8010F44F0040491
:103E60002A280DD06FF02F023078A0F13003092BF3
:103E700009D807EB870302EB4303C718761CF3E767
:103E800059F8047B761C30786C280FD006DC4C285F
:103E900017D068280DD06A2814D104E0742810D0F7
:103EA0007A280FD10DE044F400140AE044F48014A1
:103EB00001E044F440147278824202D104F5801487
:103EC000761C761C307866280BD013DC582877D007
:103ED00009DC002875D04528F6D04628F4D04728BC
:103EE0001AD19DE118E0632835D0642879D065287F
:103EF00012D195E1702873D008DC6728F1D06928C9
:103F00006FD06E280DD06F2806D1B5E073282CD065
:103F1000752875D0782874D05A46179990476D1C2B
:103F200075E1C4F30250022809D003280DD0D9F856
:103F3000001004280DD00D6009F1040967E1D9F8DB
:103F40000010EA17C1E90052F6E7D9F800100D8019
:103F5000F2E70D70F0E719F8041B8DF8001000204F
:103F60008DF80100EA46012003E059F804AB4FF058
:103F7000FF3061074FF0000102D40DE008F10101AC
:103F80008846B9420FDA8045F8DB1AF80810002994
:103F9000F4D108E008F1010188468142FADB1AF801
:103FA00008100029F6D105985B46A0EB08072146CA
:103FB0003846179A00F094FA284400EB080507E009
:103FC0004DE029E10DE01AF8010B5A461799904788
:103FD000B8F10108F7D25B4621463846179A13E13B
:103FE00042E00A220092C4F302524FF0000A022A71
:103FF00008D059F804CB032A4FEAEC710AD00DE03F
:1040000029E02AE009F1070121F00702F2E802C1E4
:10401000914609E00FFA8CFC4FEAEC71042A03D1B7
:104020004FFA8CFC4FEAEC71002907DA0A460021AE
:10403000DCF1000C61EB02012D2202E0220504D527
:104040002B228DF80420012203E0E20701D0202278
:10405000F7E7904659E00A2102E010220DE0102116
:104060004FF0000A00910BE010224FF0000A44F0DC
:1040700004040827009203E008224FF0000A00928F
:10408000C4F30252022A05D059F804CB0021032AB6
:1040900008D009E009F1070121F00702F2E802C1A6
:1040A000914605E01FFA8CFC042A01D10CF0FF0CAC
:1040B0004FF00008220728D5702806D0009B83F017
:1040C000100353EA0A0305D00EE040228DF80420C5
:1040D000012208E05CEA010206D030228DF80420BB
:1040E0008DF8050002229046009B83F0080353EAF6
:1040F0000A030AD15CEA010201D1620705D5302228
:104100008DF804204FF001087F1E582804D034A0F9
:1041100003900EA802900DE036A0F9E753466046E2
:10412000009AFCF7EAF984460398825C0298401EE4
:10413000029002705CEA0100F0D1029806A9081A08
:1041400000F1200A600702D524F4803400E0012742
:10415000574502DDA7EB0A0000E0002000EB0A0152
:10416000009005984144401A0590E00306D45B4650
:104170002146179A059800F0B3F90544002706E098
:1041800001A85A46C05D179990476D1C7F1C474592
:10419000F6DBE0030CD55B462146179A059800F044
:1041A0009FF9054404E030205A46179990476D1C4A
:1041B0000099481E00900029F5DC08E00298029959
:1041C0005A460078491C0291179990476D1CBAF124
:1041D0000001AAF1010AF1DC65E1000009280100F3
:1041E000303132333435363738396162636465666D
:1041F000000000003031323334353637383941422F
:10420000434445460000000000F058F90544761C80
:10421000307800287FF4ECAD19B02846BDE8F08F67
:10422000620700D4062709F1070222F0070CFCE818
:104230000223E14603F000485FEA080C02D00FF2C7
:10424000702C0DE05FEA045C02D50FF2682C07E0E9
:104250005FEAC47C02D00FF2602C01E0AFF2700C78
:104260004FF0FF3823F00043CDF850C065280CD044
:1042700006DC452809D046281DD047283DD13DE021
:10428000662818D067287ED138E00021112F01DB85
:10429000112000E0781CCDE9000106A90EA8FFF767
:1042A000DDFCDDE90F010E9A03910021009207F178
:1042B000010A04914DE04FF000400097CDE9011054
:1042C00006A90EA8FFF7CAFCDDE90F0203920E9BB8
:1042D00011990022DDF80CA00093049211B9791C09
:1042E00000EB010AB7EB0A0004D4C0F1FF3007F17C
:1042F000010A0490AAEB0700019044E0012F00DAC4
:1043000001270021112F01DD112000E03846CDE901
:10431000000106A90EA8FFF7A1FCDDE90F010E9A26
:104320000391002104910092BA4621070CD403990D
:10433000514500DA8A46BAF1010F05DD009AAAF16B
:104340000101515C302908D0B84202DA10F1040FA3
:1043500006DA0121CDE9011015E0AAF10101E9E732
:10436000002805DC049901440491AAEB000102E055
:10437000411C514500DD8A460499401A401C0190B9
:104380004FF000400290200704D40198504501DB13
:10439000CDF8048000208DF84F0002980DF14F07F2
:1043A000B0F1004F25D02B200E9002984FF002085C
:1043B00000280CDA404202902D200E9007E00A21DE
:1043C0000298FCF784F83031029007F8011DB8F12B
:1043D0000001A8F10108F2DC02980028EFD1791E53
:1043E0000E980870307800F0200040F0450007F883
:1043F000020D12A8C01B00F107081498007800B144
:10440000012000EB0A01019801EBE071059841449D
:10441000401A401E0590E00306D45B462146179AD9
:10442000059800F05DF805441498007818B15A46D4
:10443000179990476D1CE00324D55B462146179AD7
:10444000059800F04DF805441CE00498002807DBAF
:10445000DDE90301884203DD0098405C179901E023
:10446000179930205A469047049805F10105401CE1
:1044700004900198401E019004D12E205A461799AD
:1044800090476D1CBAF10001AAF1010ADDDC05E0DC
:1044900017F8010B5A46179990476D1CB8F10001A7
:1044A000A8F10108F4DC5B462146179A0598ABE6B3
:1044B0002D0000002B000000200000002DE9F0413D
:1044C000044600251E461746880404D405E03946F4
:1044D0002020B0476D1C641EF9D52846BDE8F08148
:1044E0002DE9F041044600251E469046C80301D53B
:1044F000302700E02027880404D505E041463846EF
:10450000B0476D1C641EF9D52846BDE8F081000057
:1045100070B504460D4600BF06480068008800F0EC
:1045200040000028F8D0E1B2024A1068FEF7CBFF45
:10453000204670BD5810002010B5002821D0114B26
:104540000022001F196803E0814203D80A46496827
:104550000029F9D152B11368841A9C4204D1006831
:1045600018441060104602E0506000E0186039B155
:1045700002680B1A934203D10B681A44026049681F
:10458000416010BD30000020FEF72CFEFEF70CFB52
:10459000FEF7A0FF1220FCF78BFC00BFFEE7000037
:1045A000F0B50B30154D20F007010024144A0FE040
:1045B00003688B420BD38B4205D95E1A43184768B8
:1045C000C3E9006700E04368136002C004E0021D15
:1045D00010680028ECD12046002802D1286808B1D4
:1045E0000020F0BD064A07481060074A121A22F060
:1045F0000702C0E9002401202860D7E7340000202A
:10460000300000205424002050260020124C0000CE
:10461000000000000000000000000000000000009A
:10462000000000000000000000000000000000008A
:10463000000000000000000000000000000000007A
:10464000000000000000000000000000000000006A
:10465000000000000000000000000000000000005A
:10466000000000000000000000000000000000004A
:10467000000000000000000000000000000000003A
:10468000000000000000000000000000000000002A
:10469000000000000000000000000000000000001A
:1046A000000000000000000000000000000000000A
:1046B00000000000000000000000000000000000FA
:1046C00000000000000000000000000000000000EA
:1046D00000000000000000000000000000000000DA
:1046E00000000000000000000000000000000000CA
:1046F00000000000000000000000000000000000BA
:1047000000000000000000000000000000000000A9
:104710000000000000000000000000000000000099
:104720000000000000000000000000000000000089
:104730000000000000000000000000000000000079
:104740000000000000000000000000000000000069
:104750000000000000000000000000000000000059
:104760000000000000000000000000000000000049
:10477000000000000000000004FA97999999D93FC1
:10478000AF788E1DC571CC3F9FC678D0099AC33FC4
:10479000935555555555E53F599322942449D23F99
:1047A000DE03CB966446C73F44523EDF12F1C23F60
:1047B0000000000000000000D847000800000020B2
:1047C0003C000000303C0008144800083C00002079
:1047D000142A0000403C0008007A030A0000000090
:1047E00000000000010203040607080980200020E1
:1047F00000000000000000000000000001020304AF
:104800000102030406070809000000000000000080
:0448100000000000A4
:040000050800018965
:00000001FF
