:020000040800F2
:10000000A809002001010008011C0008491B000884
:10001000FD1B0008AD060008C1220008000000001A
:10002000000000000000000000000000791E000831
:10003000B106000800000000051C00087B1E000837
:100040001B0100081B0100081B0100081B01000820
:100050001B0100081B0100081B0100081B01000810
:100060001B0100081B0100081B0100081B01000800
:100070001B0100081B0100081B0100081B010008F0
:100080001B0100081B0100081B0100081B010008E0
:100090001B0100081B0100081B0100081B010008D0
:1000A0001B0100081B0100081B0100081B010008C0
:1000B0001B0100081B0100081B0100081B010008B0
:1000C0001B0100081B0100081B0100081B010008A0
:1000D0001B010008B12200081B0100081B010008D9
:1000E0001B0100081B0100081B010008DFF80CD0F1
:1000F00000F0CAFA004800475D2D0008A80900205A
:100100000648804706480047FEE7FEE7FEE7FEE7B1
:10011000FEE7FEE7FEE7FEE7FEE7FEE7E91E000872
:10012000ED000008202A04DB203A21FA02F0002129
:10013000704721FA02F3D040C2F1200291400843F7
:100140001946704740EA01039B0703D009E008C93C
:10015000121F08C0042AFAD203E011F8013B00F88C
:10016000013B521EF9D27047D2B201E000F8012BD8
:10017000491EFBD270470022F6E710B513460A4627
:1001800004461946FFF7F0FF204610BD2DE9FE4F4B
:10019000804681EA0300C00F0C46009021F0004128
:1001A00023F00045B8EB0200A94105D240462146A4
:1001B00090461C460B46024623F00040104347D0B1
:1001C000270DC7F30A00C3F30A510290401A0190A9
:1001D00040286BDAC3F3130040F4801B009892466A
:1001E00020B10023D2EB030A63EB0B0B01985946B5
:1001F000C0F14002504600F026F906460D46504632
:100200005946019A00F02EF910EB080061410024D4
:1002100087EA115284EAE7731A4340D0009A62B326
:10022000019A012A4FEA075215DC001B61EB02011B
:100230004FF0004202EA0752CDE90042001C41F5AE
:10024000801132462B4600F02EF903B0BDE8F08F46
:1002500040462146F9E7001B61EB0201001C41F515
:10026000801300185B412018A2F5001747EB03012B
:1002700040EAD570B6196D4111E06D084FEA3606B7
:1002800045EAC0754FEA0752001B61EB0201001CF2
:1002900041F5801149084FEA3000001951413246BA
:1002A0002B4603B0BDE8F04F00F0EEB800980122F5
:1002B00040000023D0EB020263EBE073009821467C
:1002C0004FEAE074B8EB000061EB0401E9E783F06A
:1002D00000435BE781F0004158E72DE9F04D81EAEA
:1002E000030404F0004B21F0004514464FF0000ACF
:1002F00023F0004150EA050220D054EA01021DD04B
:10030000C5F30A570246C5F31303C1F31300C1F343
:100310000A5640F4801543F48013A7EB0608101B1F
:10032000D64608F2FD3873EB050002D308F1010848
:1003300001E092185B41B8F1000F03DA002001469A
:10034000BDE8F08D00204FF48011064684460EE093
:10035000171B73EB050705D3121B63EB050306435D
:100360004CEA010C49084FEA300092185B4150EA10
:100370000107EDD152EA030012D082EA040083EAB9
:100380000501084305D0101BAB4106D20122002312
:1003900006E000224FF0004302E06FF0010253102C
:1003A0001AEB06004CEB085110EB0A0041EB0B0175
:1003B000BDE8F04D00F068B830B50B4601460020AE
:1003C0002022012409E021FA02F59D4205D303FA17
:1003D00002F5491B04FA02F52844151EA2F1010298
:1003E000F1DC30BD2DE9F05F0546002092469B46CA
:1003F00088460646814640241BE02846414647463B
:100400002246FFF78FFE53465A46C01A914110D339
:1004100011461846224600F016F82D1A67EB01081F
:100420004F4622460120002100F00DF817EB00098D
:100430004E41201EA4F10104DFDC484631462A4625
:100440004346BDE8F09F202A04DB203A00FA02F17F
:10045000002070479140C2F1200320FA03F31943B2
:1004600090407047202A06DBCB17203A41FA02F071
:1004700043EAE07306E041FA02F3D040C2F1200201
:10048000914008431946704710B5141E73F10004DB
:1004900008DA401C41F1000192185B411A4301D176
:1004A00020F0010010BD2DE9F04D92469B4611B1A0
:1004B000B1FA81F202E0B0FA80F220329046FFF702
:1004C000C2FF04460F4640EA0A0041EA0B015346C8
:1004D0005A46084313D0114653EA010019D0C8F117
:1004E00040025046FFF71EFE05460E46504659464E
:1004F0004246FFF7A8FF084305D0012004E020464C
:100500003946BDE8F08D0020054346EAE0762C43ED
:1005100037430A986305E40AA0EB08000022FD0AAD
:1005200044EA47540A3002D500200146E9E70105B4
:1005300010196941DDE9084500196941BDE8F04D30
:10054000A2E72DE9FE4F81EA030404F0004421F004
:10055000004100944FF0000B23F0004350EA0104E7
:100560005ED052EA03045BD0C3F30A54C1F30A55C8
:100570002C44A4F2F3340194A0FB0254C1F3130100
:1005800041F48011C3F3130343F4801301FB0244CD
:1005900000FB034E840A970A44EA815447EA8357D2
:1005A000A4FB076802958D0A05FB07854FEA932C8B
:1005B00004FB0C542705029D4FEA065847EA1637FC
:1005C000B5EB08056EEB070C870E920E47EA811714
:1005D00042EA8312A7FB0201B6EB0B0164EB0004B5
:1005E0002B0D43EA0C335E1844EB1C50DA4651469F
:1005F000E7FB0201C5F313044FEA0B3343EA14533C
:100600004FEA0432019C43EA0603A4F10C0402946D
:10061000009CCDE900B4FFF746FF03B0BDE8F08FC2
:1006200000200146F9E7C1F30A52C1F3130140F279
:10063000FF3341F480119A4202DA002001467047EC
:1006400040F233439A42A2F2334202DC5242FFF7B5
:1006500069BDFFF7F8BE000030B5041E71F100045B
:1006600004DB4FF00044404264EB0101141E73F1BF
:10067000000405DB1C464FF00043524263EB0403C9
:10068000994208BF904230BD064C074D06E0E06835
:1006900040F0010394E8070098471034AC42F6D3C9
:1006A000FFF728FD182F0008382F000800BFFEE7CD
:1006B000704772B600BFFEE730B5DDB0044601AA50
:1006C00040F263115AA801F007FB5AA9204600F036
:1006D0002AF85AA801F0B8FA401E85B229465AA84D
:1006E00001F0E4FA5DB030BD10B50446208841F653
:1006F0000541884201D0032010BDA0781E2801DDED
:100700000420F9E7A088B0F5AC7F01DD0520F3E710
:100710002046FFF7D1FF94F86411884201D00620EB
:10072000EAE70020E8E770B504460D462188284630
:1007300001F099FBA178284601F07EFB94F8660150
:1007400010B9A088FF2808DDFF21284601F074FBBE
:10075000A188284601F087FB03E02179284601F0B3
:100760006BFBA288A11D284601F06EFB284601F014
:1007700081FA06463146284601F05EFB70BD73B52E
:10078000DCB0064600205DAB0122114600903046E9
:1007900000F082F802A9304600F00DF8044644B992
:1007A0009DF80E509DF87401854202D007205EB07E
:1007B00070BD2046FBE72DE9F04704460D464FF09B
:1007C000000800F0B9FA00F164095EE0A06801F0E9
:1007D0003BFA052800DA58E00021A06801F0BEFAD3
:1007E000804641F60540804503D0A06801F004FB37
:1007F0004BE00321A06801F09BFAFF2808D10421F7
:10080000A06801F0ABFA0646012085F8660107E012
:100810000321A06801F08CFA0646002085F86601E5
:10082000701D95F8661109B1022100E0002108440D
:1008300087B2A06801F008FAB84200DA25E0A068A3
:1008400001F0EFFA2880A06801F0D6FAA87095F8B8
:10085000660138B1A06801F0CFFAA06801F0E1FAB2
:10086000A88003E0A06801F0C7FAA880AA88A91DA3
:10087000A06801F0C7FAA06801F0BEFA85F864012B
:100880002846FFF731FFBDE8F08700F055FA4845EC
:100890009CD30220F7E700002DE9F041DAB00446CE
:1008A0000D4616461F46DDF880814FF4B4720D499F
:1008B0006846FFF747FC8DF80250ADF804608DF8EC
:1008C0006681324639460DF10600FFF73BFC68466B
:1008D0006168FFF728FF204601F0F4FC5AB0BDE83C
:1008E000F0810000B02D00080146002291F821009F
:1008F000022808D00420886300BF002081F820006F
:1009000000BF012070470868006820F00E000B68E7
:1009100018600868006820F001000B68186091F802
:10092000403001209840CB6B5860012081F82100B5
:1009300000BF002081F8200000BF1046E2E7000061
:1009400070B50446002594F82100022803D0042045
:10095000A063012548E02068006820F00E002168AF
:1009600008602068006820F00100216808601F49C5
:100970002068884201D1012026E01C4914312068FA
:10098000884201D110201FE0184928312068884290
:1009900001D1801518E015493C312068884201D109
:1009A000801411E0114950312068884202D14FF47F
:1009B000803009E00D4964312068884202D14FF44B
:1009C000801001E04FF0807008490839486001202C
:1009D00084F8210000BF002084F8200000BF606B75
:1009E00010B12046616B8847284670BD0800024060
:1009F00070B5044600F0A0F906462546681C10B103
:100A000004480078054400BF00F096F9801BA84216
:100A1000FAD370BD080000202DE9F84703460022F4
:100A200094466EE14FF0010808FA02F4D1F8008014
:100A300008EA0400A0427DD1DFF8DCA2D1F80480EE
:100A4000A8EB0A09D0453AD014DCB8F1030F50D016
:100A500009DCB8F1000F31D0B8F1010F1CD0B8F1AA
:100A6000020F49D120E0B8F1110F18D0B8F1120FE0
:100A700042D11EE0B9F5881F25D006DCB9F5803FCC
:100A800020D0B9F5801F37D11AE0B9F5001F18D072
:100A9000B9F5041F30D117E0D1F80CC02DE0D1F822
:100AA0000C8008F1040C28E0D1F80C8008F1080C47
:100AB00023E0D1F80C8008F10C0C1EE000BF00BF51
:100AC00000BF00BF00BF00BFD1F80880B8F1000F21
:100AD00002D14FF0040C0BE0D1F80880B8F1010FFF
:100AE00003D14FF0080C1C6102E04FF0080C5C6170
:100AF00003E04FF0000C00E000BF00BFFF2801D86A
:100B0000984601E003F104084646FF2802D84FEA60
:100B1000820803E0A2F108084FEA88084746D6F8A1
:100B200000804FF00F0909FA07F928EA09080CFAC2
:100B300007F900E088E048EA0908C6F80080D1F823
:100B4000048008F08058B8F1805F7DD100BFDFF8E5
:100B5000CC81D8F8188048F00108DFF8C091C9F8B6
:100B60001880C846D8F8188008F00108CDF8008031
:100B700000BF00BF4FEAB9384FEA920958F8295030
:100B80004FEA82784FEA18794FF00F0808FA09F80F
:100B900025EA0805DFF88881434502D14FF00008B7
:100BA00016E0DFF88081434502D14FF001080FE0E5
:100BB000DFF87481434502D14FF0020808E0DFF806
:100BC0006C81434502D14FF0030801E04FF0040867
:100BD0004FEA82794FEA197908FA09F848EA0505D7
:100BE000DFF84C814FEA920948F82950D1F8048087
:100BF00008F48018B8F5801F0AD1DFF83881D8F8DA
:100C0000008048EA0008DFF82C91C9F8008009E06C
:100C1000DFF82081D8F8008028EA0008DFF8149176
:100C2000C9F80080D1F8048008F40018B8F5001F56
:100C300010D1DFF8008108F10408D8F8008048EAF4
:100C40000008DFF8F09000E05AE009F10409C9F863
:100C500000800DE0DFF8DC8008F10408D8F800809F
:100C600028EA0008DFF8CC9009F10409C9F80080EF
:100C7000D1F8048008F40038B8F5003F0ED1DFF851
:100C8000B480A8F10408D8F8008048EA0008DFF82A
:100C9000A490A9F10409C9F800800DE0DFF8948060
:100CA000A8F10408D8F8008028EA0008DFF884904A
:100CB000A9F10409C9F80080D1F8048008F480384B
:100CC000B8F5803F0ED1DFF86C80A8F10808D8F89D
:100CD000008048EA0008DFF85C90A9F10809C9F82B
:100CE00000800DE0DFF84C80A8F10808D8F80080FB
:100CF00028EA0008DFF83C90A9F10809C9F800804B
:100D0000521CD1F8008028FA02F8B8F1000F7FF4E5
:100D100089AEBDE8F8870000000011100010024005
:100D200000080140000C0140001001400014014087
:100D300008000140080401400148006870470000B5
:100D4000000000200348006803490978084401496D
:100D500008607047000000200800002010B5084817
:100D6000006840F0100006490860032000F0A8F871
:100D70000F2000F007F800F02BF8002010BD000055
:100D80000020024070B504460E4800784FF47A7196
:100D9000B1FBF0F00C490968B1FBF0F5284600F012
:100DA000F9FB08B1012070BD102C07D200222146AA
:100DB000501E00F047F80548046001E00120F2E70A
:100DC0000020F0E7080000200C00002004000020B4
:100DD00008B500BF1148806940F001000F498861E3
:100DE0000846806900F00100009000BF00BF00BF0E
:100DF0000846C06940F08050C8610846C06900F0EC
:100E00008050009000BF00BF00BF0549486820F037
:100E1000E06040F00070486000BF08BD0010024074
:100E20000000014001460846002809DB00F01F03CE
:100E300001229A4043099B0003F1E023C3F80021FB
:100E400000BF70472DE9F05F80460D46164600272B
:100E500001F084FA074639462A46334601F0070076
:100E6000C0F1070ABAF1040F02D94FF0040A01E0F9
:100E7000C0F1070AD14600F1040ABAF1070F02D205
:100E80004FF0000A01E0A0F1030AD4464FF0010A36
:100E90000AFA09FAAAF1010A0AEA020A0AFA0CFA9B
:100EA0004FF0010B0BFA0CFBABF1010B0BEA030B40
:100EB0004AEA0B042146404601F058FABDE8F09F8B
:100EC00000BF00F00702064B19684FF6FF031940F8
:100ED000044B0B4343EA0221014B196000BF7047EA
:100EE0000CED00E00000FA0570B504460D460CB9A3
:100EF000012070BD5A48006800F00700A8420ED2D9
:100F00005748006820F00700284355490860084604
:100F1000006800F00700A84201D00120E9E720782E
:100F200000F0020002281DD1207800F004000428FF
:100F300005D14C48406840F4E0604A494860207858
:100F400000F00800082805D14648406840F4605089
:100F5000444948604348406820F0F000A1680843D5
:100F600040494860207800F0010078B360680128AB
:100F700006D13C48006800F4003090B90120B8E781
:100F80006068022806D13748006800F0007040B958
:100F90000120AEE73348006800F0020008B90120E4
:100FA000A7E73048406820F00300616808432D49F6
:100FB0004860FFF7C1FE064609E0FFF7BDFE801B53
:100FC00041F28831884202D9032092E707E02548A0
:100FD000406800F00C006168B0EB810FEDD1204853
:100FE000006800F00700A8420ED91D48006820F0F4
:100FF000070028431A4908600846006800F0070007
:10100000A84201D0012074E7207800F004000428F1
:1010100007D11448406820F4E060E16808431149B2
:101020004860207800F00800082808D10D48406882
:1010300020F46050216940EAC1000A49486000F08C
:101040003FF808494968C1F30311074A515CC84099
:101050000649086006480068FFF794FE002048E74C
:101060000020024000100240962D00080C000020D5
:101070000400002001480068704700000C000020B8
:1010800000B5FFF7F7FF04494968C1F30221034A9D
:10109000515CC84000BD000000100240A62D0008B1
:1010A00000B5FFF7E7FF04494968C1F3C221034ACD
:1010B000515CC84000BD000000100240A62D000891
:1010C00070B500210022002400230020134D696820
:1010D00001F00C05F5B1042D02D0082D19D101E065
:1010E0000F4819E00F4DC1F38346AB5D01F4803525
:1010F00055B10A4D6D68C5F340450B4E725D084D04
:101100005D43B5FBF2F402E0084D03FB05F4204615
:1011100002E000BF024800BF00BF70BD00100240E7
:1011200000127A00842D0008942D000800093D006B
:10113000F8B504460CB90120F8BD207800F0010094
:10114000002878D0F848406800F00C0004280CD043
:10115000F548406800F00C00082811D1F2484068BA
:1011600000F48030B0F5803F0AD1EF48006800F409
:10117000003000285FD0606800285CD10120DBE7E8
:1011800000BF6068B0F5803F06D1E748006840F4D2
:101190008030E549086028E0606858B9E248006896
:1011A00020F48030E04908600846006820F4802080
:1011B00008601AE06068B0F5A02F0BD1DA4800682B
:1011C00040F48020D84908600846006840F4803028
:1011D00008600AE0D448006820F48030D2490860F2
:1011E0000846006820F48020086000BF606888B16D
:1011F000FFF7A2FD054606E0FFF79EFD401B6428B1
:1012000001D9032098E7C848006800F4003000289E
:10121000F2D010E0FFF790FD054606E0FFF78CFDE9
:10122000401B642801D9032086E7BF48006800F40A
:1012300000300028F2D1207800F00200022857D1B7
:10124000B948406800F00C0050B1B748406800F061
:101250000C00082818D1B448406800F4803098B9D0
:10126000B148006800F0020020B12069012801D0D7
:10127000012061E7AC48006820F0F800616940EAAD
:10128000C100A949086033E02069E8B10120A749FD
:101290000860FFF751FD054606E0FFF74DFD401BD6
:1012A000022801D9032047E79F48006800F00200A8
:1012B0000028F2D09C48006820F0F800616940EAFC
:1012C000C1009949086013E0002098490860FFF7C1
:1012D00033FD054606E0FFF72FFD401B022801D92C
:1012E000032029E79048006800F002000028F2D1AE
:1012F000207800F0080008282DD1A069B8B101209D
:101300008B490860FFF718FD054606E0FFF714FD5E
:10131000401B022801D903200EE78348406A00F0F1
:1013200002000028F2D0012000F06EFC13E0002043
:101330007F490860FFF700FD054606E0FFF7FCFC6B
:10134000401B022801D90320F6E67748406A00F0E6
:1013500002000028F2D1207800F00400042873D1A4
:1013600000277148C06900F0805070B900BF6E4816
:10137000C06940F080506C49C8610846C06900F0FF
:101380008050009000BF00BF01276A48006800F449
:101390008070B0B96748006840F4807065490860A3
:1013A000FFF7CAFC054606E0FFF7C6FC401B6428B1
:1013B00001D90320C0E65F48006800F4807000286F
:1013C000F2D000BFE068012806D15748006A40F01B
:1013D00001005549086227E0E06858B95248006AA0
:1013E00020F00100504908620846006A20F004001D
:1013F000086219E0E06805280BD14B48006A40F00C
:101400000400494908620846006A40F00100086289
:101410000AE04548006A20F0010043490862084696
:10142000006A20F00400086200BFE068A0B1FFF786
:1014300083FC054609E0FFF77FFC401B41F2883141
:10144000884202D9032077E622E03748006A00F09C
:1014500002000028EFD012E0FFF76EFC054608E01E
:10146000FFF76AFC401B41F28831884201D9032012
:1014700062E62D48006A00F002000028F0D1012F3A
:1014800005D12948C06920F080502749C86100BFB4
:10149000E069C8B32448406800F00C00082860D018
:1014A000E069022848D1002020490866FFF744FC83
:1014B000054606E0FFF740FC401B022801D9032047
:1014C0003AE61948006800F000700028F2D1206A5E
:1014D000B0F5803F07D11448406820F40030A1687F
:1014E000084311494860D4E9080108430E49496896
:1014F00021F4741108430C49486001200B49086627
:10150000FFF71AFC054607E03DE0FFF715FC401B1E
:10151000022801D903200FE60348006800F000709C
:101520000028F2D02FE000000010024000004242EC
:101530008004424200700040002014490866FFF712
:10154000FBFB054606E0FFF7F7FB401B022801D92D
:101550000320F1E50E48006800F000700028F2D189
:1015600011E0E069012800D1E6E50948466806F483
:101570008031206A814204D106F47011606A814290
:1015800001D00120D8E50020D6E50000000042424D
:101590000010024070B504462546681EB0F1807FF9
:1015A00001D301200FE0681E4FF0E02148610F21B8
:1015B0004FF0FF3000F0DAFE00204FF0E0218861AC
:1015C00007200861002070BD704770472DE9F84F73
:1015D0000446206805682068C668206847694FF09F
:1015E0000009CA4605F00F09B9F1000F0AD105F04C
:1015F000200038B106F0200020B1204600F0C5FCE4
:10160000BDE8F88FB9F1000F7BD007F0010018B9E1
:1016100006F49070002874D005F0010030B106F493
:10162000807018B1606C40F00100606405F0040047
:1016300030B107F0010018B1606C40F00200606446
:1016400005F0020030B107F0010018B1606C40F005
:101650000400606405F0080048B106F0200010B9ED
:1016600007F0010018B1606C40F008006064606C25
:10167000002845D005F0200028B106F0200010B168
:10168000204600F082FC20684069C0F3801A606C3C
:1016900000F0080010B9BAF1000F2CD0204600F07D
:1016A0002EFC2068406900F0400000B300BF00BF7E
:1016B0002168143151E8001F21F0400021681431E5
:1016C00041E80002002AF3D100BFE06B50B1774837
:1016D000E16B4863E06BFFF733F988B1E06B416B76
:1016E00088470DE02046FFF770FF09E009E020463B
:1016F000FFF76BFF04E02046FFF767FF0020606400
:101700007EE7206B012877D105F01000002873D008
:1017100006F010000028FAD000BF002000902068DA
:101720000068009020684068009000BF00BF2068FB
:10173000406900F0400000285FD0E06B006840681E
:101740001FFA80F8B8F1000F55D0A08D404552DD4A
:10175000A4F82E80E06B8069202843D000BF00BF32
:1017600021680C3151E8001F21F4807021680C3190
:1017700041E80002002AF3D100BF00BF00BF21688A
:10178000143151E8001F21F001002168143141E8B3
:101790000002002AF3D100BF00BF00BF216814314E
:1017A00051E8001F21F040002168143141E8000297
:1017B000002AF3D100BF202084F8420000202063DB
:1017C00000BF00BF21680C3151E8001F21F010005C
:1017D00021680C3141E80002002AF3D100BFE06B20
:1017E000FFF782F802206063A08DE28D801A81B23B
:1017F0002046FFF7E9FE03E742E0A08DE18D401AA5
:101800001FFA80F8E08DD0B3B8F1000F37D000BFD9
:1018100000BF21680C3151E8001F21F4907021684D
:101820000C3141E80002002AF3D100BF00BF00BF25
:101830002168143151E8001F21F0010021681431A2
:1018400041E80002002AF3D100BF202084F84200C2
:101850000020206300BF00BF21680C3151E8001F49
:1018600021F0100021680C3141E80002002AF3D178
:1018700000BF0220606341462046FFF7A5FEBFE699
:1018800005F0800030B106F0800018B1204600F06D
:1018900099FCB5E605F0400030B106F0400018B103
:1018A000204600F062FBABE600BFA9E6EB1E000895
:1018B00010B504460CB9012010BDA06900B100E0CC
:1018C00000BF94F8410028B9002084F84000204669
:1018D00000F02AF8242084F841002068C06820F431
:1018E00000502168C860204600F0CEFB20680069E7
:1018F00020F49040216808612068406920F02A00A7
:10190000216848612068C06840F400502168C860C0
:1019100000206064202084F8410084F84200002008
:10192000606300BFC8E7000010B586B00446002021
:10193000029003900490059037492068884237D17F
:1019400000BF3648806940F48040344988610846C9
:10195000806900F48040019000BF00BF00BF0846CE
:10196000806940F0040088610846806900F0040046
:10197000019000BF00BF4815029002200390032091
:10198000059002A92648FFF747F84FF480600290BF
:1019900000200390049002A92148FFF73DF800229F
:1019A00011462520FFF74EFA2520FFF73BFA31E0DC
:1019B0001C49206888422DD100BF1848C06940F4F6
:1019C00000301649C8610846C06900F40030019033
:1019D00000BF00BF00BF0846806940F00400886176
:1019E0000846806900F00400019000BF00BF042099
:1019F0000290022003900320059002A90848FFF7F7
:101A00000BF80820029000200390049002A90448DB
:101A1000FFF702F806B010BD003801400010024088
:101A2000000801400044004070B504460D461646CB
:101A300094F8420020280BD105B10EB9012070BDE9
:101A40000020206332462946204600F09BFBF6E743
:101A50000220F4E770B5044609492068096809685E
:101A600088420CD10748057805498868294600F066
:101A7000AEF90349012208680249FFF7D5FF70BD9E
:101A800098050020350000202DE9F84F04460E4649
:101A9000174699464FF0000A94F84100202850D18B
:101AA00006B117B90120BDE8F88F0020606421203D
:101AB00084F84100FFF740F98246A784E784A068D4
:101AC000B0F5805F04D1206910B90025B04602E06E
:101AD00035464FF000081EE0534600228021204684
:101AE000CDF8009000F09EFB20B1202084F841004A
:101AF0000320D8E745B9B8F80000C0F30800216812
:101B0000486008F1020803E02878216848606D1CED
:101B1000E08C401EE084E08C0028DDD1534600229A
:101B200040212046CDF8009000F07CFB20B1202021
:101B300084F841000320B6E7202084F8410000200B
:101B4000B1E70220AFE7704700BFFEE708B500BF6E
:101B50000D48806940F020000B4988610846806983
:101B600000F02000009000BF00BF00BF0846806961
:101B700040F0040088610846806900F0040000908D
:101B800000BF00BF08BD00000010024010B50B48A8
:101B90000B4908604FF4E13048600021084881603B
:101BA000C16001610C21416100218161C161FFF7C8
:101BB0007FFE08B1FEF77DFD10BD0000003801403A
:101BC0003C00002010B50B480B4908604FF4E13091
:101BD0004860002108488160C16001610C214161B9
:101BE00000218161C161FFF763FE08B1FEF761FD6D
:101BF00010BD0000004400408400002000BFFEE74C
:101C000000BFFEE77047000008B508490968C90829
:101C10004FF47A72B1FBF2F14143009100BF00BF73
:101C200000994A1E00920029F9D108BD0C0000203D
:101C300010B50346184600F018F80446184600F0A0
:101C400003F8201A80B210BD01468888CA889042E5
:101C500004DCC8888A88801A80B270478888CA885D
:101C6000801A0A89101A80B2F7E701460889401ED7
:101C700080B27047F0B503461846FFF7E5FF05460A
:101C8000002400200EE09A880244521C1E8992FB18
:101C9000F6F706FB172291B21A68525C2244D4B2BE
:101CA000411C88B2A842EEDBE0B2F0BD30B503467D
:101CB0000C461846FFF7C8FFA04201DC002030BDEB
:101CC00098882044401C198990FBF1F201FB120016
:101CD00085B21868405DF2E730B50B46026000211E
:101CE0008180C180591C0181002104E00024056825
:101CF0006C544C1CA1B204898C42F7DC30BD10B589
:101D000004462046FFF794FF02462046FFF7ADFF4A
:101D1000824201D1012010BD0020FCE710B504462D
:101D20002046FFF785FF08B9012010BD0020FCE721
:101D300030B503460C461846FFF786FFA04201DC8B
:101D4000002030BD98882044401C198990FBF1F296
:101D500001FB120085B21868405DF2E730B503461A
:101D60000C461846FFF770FF611C884201DC00201A
:101D700030BD98882044401C198990FBF1F201FB8A
:101D8000120085B21989681C90FBF1F201FB120068
:101D90001968085C495D41EA0020E9E730B504466E
:101DA0002046FFF7ACFF08B1002030BDA088401CE2
:101DB000218990FBF1F201FB1200A080A18820682C
:101DC000455C0020A288216888542846EDE730B59C
:101DD00004460D462046FFF7A1FF00B130BDE08864
:101DE000401C218990FBF1F201FB1200E080E188A8
:101DF0002068455400BFF1E710B504462046FFF7C0
:101E0000CDFF10BDF0B507460D461646002405E08F
:101E10003846FFF7C3FF2855601C84B2B442F7DB95
:101E2000F0BD38B504466D46022229462046FFF72C
:101E3000E9FFBDF8000038BD30B504460D4629461F
:101E40002046FFF7C4FF30BDF0B507460D461646E5
:101E5000002405E0295D3846FFF7B9FF601C84B215
:101E6000B442F7DBF0BD33B5044601AD022229468A
:101E70002046FFF7E9FF3CBD704710B5FEF762FF53
:101E800010BD00B58FB0282105A8FEF774F9142104
:101E90006846FEF770F901200590000406900020C6
:101EA00007900120099002200C90C1030D914FF47E
:101EB000E0110E9105A8FFF73BF908B1FEF7F9FB19
:101EC0000F20009002200190002002904FF48060CB
:101ED00003900020049002216846FFF705F808B13E
:101EE000FEF7E7FB0FB000BD704770B505466C6AA2
:101EF0000020E085E0842046FFF767FB70BD00BF4F
:101F000000BF02680C3252E8002F22F49071026880
:101F10000C3242E80013002BF3D100BF00BF00BF1A
:101F20000268143252E8002F22F0010102681432D4
:101F300042E80013002BF3D100BF016B01290ED141
:101F400000BF00BF02680C3252E8002F22F01001DF
:101F500002680C3242E80013002BF3D100BF2021AD
:101F600080F8421000210163704710B504462068D4
:101F7000C06820F040002168C860202084F841003B
:101F80002046FFF7E0FD002010BDF8B5044694F8A8
:101F90004200222875D1A068B0F5805F0CD120697D
:101FA00050B90025A66A20684068C0F30800308058
:101FB000A06A801CA06215E0A56A0026A068B0F5A2
:101FC000805F03D0A06828B9206918B920684068EC
:101FD000287004E02068406800F07F002870A06A44
:101FE000401CA062E08D401E80B2E085002846D1F2
:101FF0002068C06820F020002168C8602068C068A0
:1020000020F480702168C8602068406920F00100D9
:1020100021684861202084F8420000206063206B22
:10202000012826D10020206300BF00BF21680C31A9
:1020300051E8001F21F0100021680C3141E8000236
:10204000002AF3D100BF2068006800F010001028BB
:102050000AD100BF0020009020680068009020682E
:102060004068009000BF00BFA18D2046FFF7ACFA8A
:1020700002E02046FFF7EEFC0020F8BD01E0002062
:10208000FBE70220F9E7000070B504462168096902
:1020900021F44051E2681143226811612269A1686C
:1020A0001143626941EA02052168C96841F20C6284
:1020B000914329432268D1602168496921F4407124
:1020C000A2691143226851612D4A2168914202D1CF
:1020D000FEF7E6FF01E0FEF7D3FF00EBC00101EBE6
:1020E000001162689200B1FBF2F100EBC00202EB5A
:1020F000001263689B00B2FBF3F26423B2FBF3F2BD
:1021000002EBC20303EB0212A1EB8201322202EBCB
:1021100001116422B1FBF2F101F0F00100EBC00209
:1021200002EB001263689B00B2FBF3F26423B2FB84
:10213000F3F201EB021200EBC00101EB0011636846
:102140009B00B1FBF3F100EBC00303EB00136668E7
:10215000B600B3FBF6F36426B3FBF6F303EBC3065A
:1021600006EB0313A1EB8301322303EB011164237C
:10217000B1FBF3F101F00F0111442268916070BDD1
:102180000038014010B5034699629A85DA8500202F
:102190005864222083F84200186928B11868C06882
:1021A00040F480701C68E0601868406940F00100ED
:1021B0001C6860611868C06840F020001C68E0601E
:1021C000002010BD014691F84100212828D18868DF
:1021D000B0F5805F0BD1086948B90A6A1088C0F36E
:1021E00008000B685860086A801C086205E00B6AEA
:1021F000581C086218780B685860C88C401E80B262
:10220000C88458B90868C06820F080000B68D8609E
:102210000868C06840F040000B68D8600020704734
:102220000220FCE72DE9F84304460D461746984680
:10223000089E31E0701C70B3FEF77EFDA0EB080035
:10224000B04200D816B90320BDE8F8832068C06802
:1022500000F00400F8B1802D1ED0402D1CD0206865
:102260000068C0F3C000B0B100BF0020009020683B
:102270000068009020684068009000BF00BF2046C2
:10228000FFF73DFE0820606400BF002084F8400096
:1022900000BF0120D8E7FFE7206800682840A84277
:1022A00001D1012000E00020B842C3D00020CBE7DC
:1022B00010B50248FFF78AF910BD00003C0000206D
:1022C00000BFFEE738B5044609E06068FFF766FD29
:1022D000009001231A4669462068FFF7D5FB606825
:1022E000FFF7B2FC0028F0D138BD000010B504465D
:1022F0000C4A4FF416710C48FFF7EEFC0B4A4FF4F2
:1023000016710B48FFF7E8FC09480A49886006483F
:10231000486008460460012208680749FFF784FB0B
:1023200010BD0000CC000020800500202503002007
:102330008C05002098050020350000200FB4054BC7
:1023400010B503A9044A029800F0F6F810BC5DF835
:1023500014FB0000412D00083800002002480068EE
:10236000C0F30220704700000CED00E010B500281B
:1023700004DB0A07130E054A135406E00A07140E7D
:10238000034A00F00F031B1FD45410BD00E400E00B
:1023900018ED00E002E008C8121F08C1002AFAD1B7
:1023A00070477047002001E001C1121F002AFBD1D5
:1023B000704700002DE9FF5F82B00021DDE90430A5
:1023C000020DDDF840B0034318D044F61050A2F2DD
:1023D000FF3242431514119801281FD0A5EB0B00C2
:1023E000401C5FEA000A4FF000064E4FDFF83891BC
:1023F000B046504615D5CAF1000413E011980124E7
:102400004AA3012801D16FEA0B010298119AC0E991
:102410000031C0E9024206B0BDE8F09FCBF10000F8
:10242000DFE704460021404A491842EB0450CDE959
:10243000001012E0E00707D032463B4640464946CE
:10244000FEF77FF88046894632463B4610461946DD
:10245000FEF777F806460F466410002CEAD1DDE956
:102460000401DDE90023BAF1000F06DAFEF769F88E
:1024700042464B46FEF765F805E0FDF72EFF424663
:102480004B46FDF72AFF04460E460022284BFEF776
:10249000E3F803D84FF0FF30014607E00022254B58
:1024A00020463146FDF772FEFEF7BDF8102409E024
:1024B000002C0ADB0A220023FDF794FF039B303235
:1024C0001A55641E50EA0102F2D1641C039AC4F149
:1024D00011031444119A012A03D0012208430DD19B
:1024E0000AE0084304D000204FF0110B119072E76E
:1024F000A3EB0B056D1E0DE05B4504DD4FF0000204
:1025000005F1010504E003DA4FF00002A5F1010531
:10251000002AECD002981199C0E90231C0E90045C7
:1025200079E70000000014400000F03F3000000098
:102530000000F0430000E03F2DE9FF4F95B09B46BF
:102540008946064600250FE2252877D10024274634
:10255000F84A0121059400E0044316F8013F203BAE
:1025600001FA03F01042F7D130782A2811D06FF029
:102570002F033078A0F13002092A16D8059A44F0CA
:10258000020402EB820203EB42021044761C059027
:10259000EFE759F8042B0592002A03DA504244F47D
:1025A0000054059044F00204761C30782E2816D191
:1025B00016F8010F44F004042A280DD06FF02F0202
:1025C0003078A0F13003092B09D807EB870302EB21
:1025D0004303C718761CF3E759F8047B761C307860
:1025E0006C280FD006DC4C2817D068280DD06A283C
:1025F00014D104E0742810D07A280FD10DE044F4EF
:1026000000140AE044F4801401E044F440147278A9
:10261000824202D104F58014761C761C307866283C
:102620000BD013DC582877D009DC002875D045285A
:10263000F6D04628F4D047281AD19DE118E0632847
:1026400035D0642879D0652812D195E1702873D0EF
:1026500008DC6728F1D069286FD06E280DD06F286C
:1026600006D1B5E073282CD0752875D0782874D0A1
:102670005A46179990476D1C75E1C4F30250022821
:1026800009D003280DD0D9F8001004280DD00D6012
:1026900009F1040967E1D9F80010EA17C1E900520D
:1026A000F6E7D9F800100D80F2E70D70F0E719F8A1
:1026B000041B8DF8001000208DF80100EA4601206F
:1026C00003E059F804AB4FF0FF3061074FF0000111
:1026D00002D40DE008F101018846B9420FDA8045C5
:1026E000F8DB1AF808100029F4D108E008F101011C
:1026F00088468142FADB1AF808100029F6D10598BD
:102700005B46A0EB080721463846179A00F094FA7A
:10271000284400EB080507E04DE029E10DE01AF838
:10272000010B5A4617999047B8F10108F7D25B465A
:1027300021463846179A13E142E00A220092C4F378
:1027400002524FF0000A022A08D059F804CB032A9B
:102750004FEAEC710AD00DE029E02AE009F1070107
:1027600021F00702F2E802C1914609E00FFA8CFC61
:102770004FEAEC71042A03D14FFA8CFC4FEAEC715A
:10278000002907DA0A460021DCF1000C61EB0201A6
:102790002D2202E0220504D52B228DF804200122EF
:1027A00003E0E20701D02022F7E7904659E00A2132
:1027B00002E010220DE010214FF0000A00910BE022
:1027C00010224FF0000A44F004040827009203E0AE
:1027D00008224FF0000A0092C4F30252022A05D0E8
:1027E00059F804CB0021032A08D009E009F10701B8
:1027F00021F00702F2E802C1914605E01FFA8CFCC5
:10280000042A01D10CF0FF0C4FF00008220728D554
:10281000702806D0009B83F0100353EA0A0305D00A
:102820000EE040228DF80420012208E05CEA01025B
:1028300006D030228DF804208DF805000222904643
:10284000009B83F0080353EA0A030AD15CEA010201
:1028500001D1620705D530228DF804204FF0010820
:102860007F1E582804D034A003900EA802900DE0DB
:1028700036A0F9E753466046009AFDF7B3FD84465B
:102880000398825C0298401E029002705CEA01008C
:10289000F0D1029806A9081A00F1200A600702D5B3
:1028A00024F4803400E00127574502DDA7EB0A003D
:1028B00000E0002000EB0A01009005984144401A16
:1028C0000590E00306D45B462146179A059800F070
:1028D000B3F90544002706E001A85A46C05D1799E0
:1028E00090476D1C7F1C4745F6DBE0030CD55B462B
:1028F0002146179A059800F09FF9054404E030201E
:102900005A46179990476D1C0099481E009000295F
:10291000F5DC08E0029802995A460078491C0291B9
:10292000179990476D1CBAF10001AAF1010AF1DC78
:1029300065E1000009280100303132333435363783
:1029400038396162636465660000000030313233FB
:10295000343536373839414243444546000000009B
:1029600000F058F90544761C307800287FF4ECAD6F
:1029700019B02846BDE8F08F620700D4062709F198
:10298000070222F0070CFCE80223E14603F00048AE
:102990005FEA080C02D00FF2702C0DE05FEA045CD5
:1029A00002D50FF2682C07E05FEAC47C02D00FF278
:1029B000602C01E0AFF2700C4FF0FF3823F00043C1
:1029C000CDF850C065280CD006DC452809D0462833
:1029D0001DD047283DD13DE0662818D067287ED11C
:1029E00038E00021112F01DB112000E0781CCDE937
:1029F000000106A90EA8FFF7DDFCDDE90F010E9A24
:102A000003910021009207F1010A04914DE04FF07B
:102A100000400097CDE9011006A90EA8FFF7CAFCF7
:102A2000DDE90F0203920E9B11990022DDF80CA044
:102A30000093049211B9791C00EB010AB7EB0A006C
:102A400004D4C0F1FF3007F1010A0490AAEB07009B
:102A5000019044E0012F00DA01270021112F01DD50
:102A6000112000E03846CDE9000106A90EA8FFF7C5
:102A7000A1FCDDE90F010E9A03910021049100925F
:102A8000BA4621070CD40399514500DA8A46BAF1B7
:102A9000010F05DD009AAAF10101515C302908D02F
:102AA000B84202DA10F1040F06DA0121CDE9011073
:102AB00015E0AAF10101E9E7002805DC04990144C9
:102AC0000491AAEB000102E0411C514500DD8A4659
:102AD0000499401A401C01904FF0004002902007DA
:102AE00004D40198504501DBCDF8048000208DF816
:102AF0004F0002980DF14F07B0F1004F25D02B2069
:102B00000E9002984FF0020800280CDA4042029022
:102B10002D200E9007E00A210298FDF74DFC303180
:102B2000029007F8011DB8F10001A8F10108F2DCDC
:102B300002980028EFD1791E0E980870307800F0C6
:102B4000200040F0450007F8020D12A8C01B00F15C
:102B500007081498007800B1012000EB0A010198E1
:102B600001EBE07105984144401A401E0590E003D6
:102B700006D45B462146179A059800F05DF8054497
:102B80001498007818B15A46179990476D1CE003C5
:102B900024D55B462146179A059800F04DF8054468
:102BA0001CE00498002807DBDDE90301884203DD0F
:102BB0000098405C179901E0179930205A469047D9
:102BC000049805F10105401C04900198401E0190F5
:102BD00004D12E205A46179990476D1CBAF1000176
:102BE000AAF1010ADDDC05E017F8010B5A46179936
:102BF00090476D1CB8F10001A8F10108F4DC5B46B8
:102C00002146179A0598ABE62D0000002B00000026
:102C1000200000002DE9F041044600251E4617461D
:102C2000880404D405E039462020B0476D1C641E9A
:102C3000F9D52846BDE8F0812DE9F041044600258C
:102C40001E469046C80301D5302700E0202788049F
:102C500004D505E041463846B0476D1C641EF9D5E1
:102C60002846BDE8F081000010B511A0FFF766FB13
:102C7000002110A0FFF762FB00211448FDF77FFD43
:102C8000134908700846017812A0FFF757FB104857
:102C9000007820B9002115A0FFF750FB03E00021C8
:102CA0001CA0FFF74BFB4FF47A70FDF7A1FE10BD9F
:102CB0000D0A00005B494E464F5D70696E672073D8
:102CC0006572766F202564200D0A000098050020AB
:102CD000100000205B494E464F5D7374617475733C
:102CE00020636F6465202564200D0A005B494E4611
:102CF0004F5D70696E6720737563636573732C2015
:102D0000736572766F202564206563686F200D0AF5
:102D1000000000005B4552524F525D70696E6720A3
:102D20006661696C2C20736572766F202564206E55
:102D30006F74206F6E6C696E65200D0A00000000D4
:102D400013B50C464FF6FF73012269460248FEF7A1
:102D50009BFE00981CBD000084000020FDF7FEFFD4
:102D6000FFF78FF8FEF7F2FEFEF710FFFEF72AFFDF
:102D70000348FFF7BBFA01E0FFF776FFFCE700002E
:102D80003C00002002030405060708090A0B0C0D8D
:102D90000E0F1010010200000000000000000102F0
:102DA00003040607080900000000010203040000F4
:102DB000124C0000000000000000000000000000B5
:102DC0000000000000000000000000000000000003
:102DD00000000000000000000000000000000000F3
:102DE00000000000000000000000000000000000E3
:102DF00000000000000000000000000000000000D3
:102E000000000000000000000000000000000000C2
:102E100000000000000000000000000000000000B2
:102E200000000000000000000000000000000000A2
:102E30000000000000000000000000000000000092
:102E40000000000000000000000000000000000082
:102E50000000000000000000000000000000000072
:102E60000000000000000000000000000000000062
:102E70000000000000000000000000000000000052
:102E80000000000000000000000000000000000042
:102E90000000000000000000000000000000000032
:102EA0000000000000000000000000000000000022
:102EB0000000000000000000000000000000000012
:102EC0000000000000000000000000000000000002
:102ED00000000000000000000000000000000000F2
:102EE00000000000000000000000000000000000E2
:102EF00000000000000000000000000000000000D2
:102F000000000000000000000000000000000000C1
:102F10000000000000000000382F00080000002022
:102F20003C00000094230008742F00083C0000209F
:102F30006C090000A423000800000000100000003D
:102F40000100000000127A000000000000000000F4
:102F500000000000E8032C01000000000000000059
:102F6000000000000000B80B010001050000000097
:042F7000000000005D
:04000005080000ED02
:00000001FF
