:020000040800F2
:10000000700C002001010008090100080B01000824
:100010000D0100080F010008110100080000000098
:1000200000000000000000000000000013010008B4
:10003000150100080000000017010008291300083E
:100040001B0100081B0100081B0100081B01000820
:100050001B0100081B0100081B0100081B01000810
:100060001B0100081B0100081B0100081B01000800
:100070001B0100081B0100081B0100081B010008F0
:100080001B0100081B0100081B0100081B010008E0
:100090001B0100081B0100081B0100081B010008D0
:1000A0001B0100081B0100081B0100081B010008C0
:1000B0001B0100081B0100081B0100081B010008B0
:1000C0001B0100081B0100081B0100081B010008A0
:1000D0001B01000809140008351400081B01000862
:1000E0001B0100081B0100081B010008DFF80CD0F1
:1000F00000F042FC00480047A9210008700C0020D5
:100100000648804706480047FEE7FEE7FEE7FEE7B1
:10011000FEE7FEE7FEE7FEE7FEE7FEE7A9130008BD
:10012000ED00000840EA01039B0703D009E008C97D
:10013000121F08C0042AFAD203E011F8013B00F8AC
:10014000013B521EF9D27047F0B480EA0102D40F8D
:100150004200B2EB410F02D20246084611464A0065
:1001600042D0C30DDDB2C1F3C752AD1A202D35DA2E
:10017000C1F3160141F4000204B15242C5F1200658
:1001800002FA06F12A411044B3EBD05F23D0C4B188
:10019000012DA0EBC35009DCF0BC4FF0004202EA95
:1001A000C352DBB200F5000000F02BBB400000F1B1
:1001B000807000EBC350A0F1807040EAD17049001C
:1001C00009E0490841EAC071A0EBC35000F5000006
:1001D000400800EBC350F0BC00F00ABB61420122B2
:1001E00002EB4101001BF6E7F0BC704781F00041D3
:1001F000AAE780F00040A7E780EA010210B502F00C
:100200000043400022D04A001FD0010E01EB1261D2
:10021000C0F35600C2F3560240F4000042F400025C
:10022000A0FB022000047F39140400D0401C50EAD7
:10023000124001D44000491EC2B20C0604EBD0109B
:10024000401C4008802A02D003E0002010BD20F0AE
:100250000100002900DA0020184310BD30B480EA04
:10026000010202F0004530F0004221F0004013D0BE
:1002700090B1C30DD40DC2F31601C0F31600E41AF9
:1002800041F4000140F400027D34914201D3641C2A
:1002900000E04900002C02DA30BC002070474FF427
:1002A00000000023914201D3891A034340084FEA1A
:1002B0004101F7D151B1914202D14FF0004105E027
:1002C00002D24FF0010101E06FF0010103EBC450D5
:1002D000284430BC00F08CBA2DE9FE4F804681EAFC
:1002E0000300C00F0C46009021F0004123F00045B0
:1002F000B8EB0200A94105D24046214690461C4673
:100300000B46024623F00040104347D0270DC7F3A9
:100310000A00C3F30A510290401A019040286BDA98
:10032000C3F3130040F4801B0098924620B10023D1
:10033000D2EB030A63EB0B0B01985946C0F1400264
:10034000504600F024FA06460D4650465946019A9A
:1003500000F03CFA10EB08006141002487EA1152DA
:1003600084EAE7731A4340D0009A62B3019A012AE3
:100370004FEA075215DC001B61EB02014FF000420F
:1003800002EA0752CDE90042001C41F580113246D5
:100390002B4600F073FA03B0BDE8F08F40462146CB
:1003A000F9E7001B61EB0201001C41F58013001806
:1003B0005B412018A2F5001747EB030140EAD57016
:1003C000B6196D4111E06D084FEA360645EAC07571
:1003D0004FEA0752001B61EB0201001C41F580113E
:1003E00049084FEA30000019514132462B4603B00C
:1003F000BDE8F04F00F033BA00980122400000231E
:10040000D0EB020263EBE073009821464FEAE07400
:10041000B8EB000061EB0401E9E783F000435BE720
:1004200081F0004158E72DE9FE4F81EA030404F012
:10043000004421F0004100944FF0000B23F00043F2
:1004400050EA01045ED052EA03045BD0C3F30A54BD
:10045000C1F30A552C44A4F2F3340194A0FB0254D6
:10046000C1F3130141F48011C3F3130343F4801368
:1004700001FB024400FB034E840A970A44EA8154BC
:1004800047EA8357A4FB076802958D0A05FB078599
:100490004FEA932C04FB0C542705029D4FEA0658A3
:1004A00047EA1637B5EB08056EEB070C870E920E80
:1004B00047EA811742EA8312A7FB0201B6EB0B0160
:1004C00064EB00042B0D43EA0C335E1844EB1C5024
:1004D000DA465146E7FB0201C5F313044FEA0B333A
:1004E00043EA14534FEA0432019C43EA0603A4F1A1
:1004F0000C040294009CCDE900B400F0BFF903B0F5
:10050000BDE8F08F00200146F9E72DE9F04D81EAC2
:10051000030404F0004B21F0004514464FF0000A9C
:1005200023F0004150EA050220D054EA01021DD018
:10053000C5F30A570246C5F31303C1F31300C1F311
:100540000A5640F4801543F48013A7EB0608101BED
:10055000D64608F2FD3873EB050002D308F1010816
:1005600001E092185B41B8F1000F03DA0020014668
:10057000BDE8F08D00204FF48011064684460EE061
:10058000171B73EB050705D3121B63EB050306432B
:100590004CEA010C49084FEA300092185B4150EADE
:1005A0000107EDD152EA030012D082EA040083EA87
:1005B0000501084305D0101BAB4106D201220023E0
:1005C00006E000224FF0004302E06FF001025310FA
:1005D0001AEB06004CEB085110EB0A0041EB0B0143
:1005E000BDE8F04D00F03BB996230022114600F023
:1005F00008B90EB5C10F80EAE0700844CA070021AF
:1006000040F233438DE80E000A460B4600F036F9FF
:1006100003B000BD00F0004220F00040C10DC0F367
:10062000160040F400007F2901DA00207047962967
:1006300003DCC1F19601C84001E096398840002AE8
:10064000F4D040427047C1F30A5210B5C1F3130110
:1006500040F2FF3341F480119A4201DA002010BDCC
:1006600040F233439A42A2F2334203DC524200F09A
:100670009DF810BD904010BD00F0004230F00040E9
:100680000AD0C10D01F56071C0F3160042EA0151B4
:10069000C20840071143704700200146704701F02F
:1006A000004330B421F0004150EA010206D00A0DA7
:1006B000A2F56072C1F31301002A02DC30BC0020F5
:1006C0007047440F44EAC104C100E01830BC00EB9D
:1006D000C25000F08DB80000002801DBC0F10040DE
:1006E000002901DBC1F1004181427047002801DB94
:1006F000C0F10040002901DBC1F100418842704790
:1007000030B50B46014600202022012409E021FAE1
:1007100002F59D4205D303FA02F5491B04FA02F5DE
:100720002844151EA2F10102F1DC30BD2DE9F05F75
:100730000546002092469B46884606468146402450
:100740001BE0284641464746224600F02FF8534614
:100750005A46C01A914110D311461846224600F05D
:1007600016F82D1A67EB01084F462246012000219A
:1007700000F00DF817EB00094E41201EA4F1010412
:10078000DFDC484631462A464346BDE8F09F202A32
:1007900004DB203A00FA02F1002070479140C2F1D8
:1007A000200320FA03F3194390407047202A04DB0A
:1007B000203A21FA02F00021704721FA02F3D040DA
:1007C000C2F120029140084319467047202A06DBF7
:1007D000CB17203A41FA02F043EAE07306E041FA0F
:1007E00002F3D040C2F120029140084319467047FD
:1007F0000029A8BF7047401C490008BF20F0010035
:10080000704710B4B0FA80FC00FA0CF050EA010412
:1008100004BF10BC704749B1CCF1200421FA04F4A4
:1008200011FA0CF118BF012121430843A3EB0C017D
:10083000CB1D4FEA00614FEA102042BF002010BCE0
:10084000704700EBC35010440029A4BF10BC704790
:10085000401C490008BF20F0010010BC704710B5D3
:10086000141E73F1000408DA401C41F100019218D3
:100870005B411A4301D120F0010010BD2DE9F04D7C
:1008800092469B4611B1B1FA81F202E0B0FA80F2D1
:1008900020329046FFF77BFF04460F4640EA0A00ED
:1008A00041EA0B0153465A46084313D0114653EA16
:1008B000010019D0C8F140025046FFF777FF054606
:1008C0000E46504659464246FFF761FF084305D0A1
:1008D000012004E020463946BDE8F08D00200543A4
:1008E00046EAE0762C4337430A986305E40AA0EB16
:1008F00008000022FD0A44EA47540A3002D50020CD
:100900000146E9E7010510196941DDE908450019CB
:100910006941BDE8F04DA2E7C1F30A52C1F31301EA
:1009200040F2FF3341F480119A4202DA002001467E
:10093000704740F233439A42A2F2334202DC524201
:10094000FFF734BFFFF723BF30B5041E71F1000479
:1009500004DB4FF00044404264EB0101141E73F1CC
:10096000000405DB1C464FF00043524263EB0403D6
:10097000994208BF904230BD064C074D06E0E06842
:1009800040F0010394E8070098471034AC42F6D3D6
:10099000FFF7B0FB302500085025000830B5DDB06A
:1009A000044601AA40F263115AA800F021FB5AA99B
:1009B000204600F02AF85AA800F0D2FA401E85B26C
:1009C00029465AA800F0FEFA5DB030BD10B50446C5
:1009D000208841F60541884201D0032010BDA0784F
:1009E0001E2801DD0420F9E7A088B0F5AC7F01DD09
:1009F0000520F3E72046FFF7D1FF94F86411884201
:100A000001D00620EAE70020E8E770B504460D466D
:100A10002188284600F0BCFBA178284600F098FB0E
:100A200094F8660110B9A088FF2808DDFF21284648
:100A300000F08EFBA188284600F0AAFB03E0217994
:100A4000284600F085FBA288A11D284600F088FBFF
:100A5000284600F09BFA06463146284600F078FB0F
:100A600070BD00002DE9F74FDCB0144601205B900B
:100A700000205DAB01220A2100905C9800F09AF8FA
:100A800001A95C9800F026F88346BBF1000F1DD148
:100A90009DF80A909DF87401814503D007205FB04E
:100AA000BDE8F08F9DF80B109DF80C0041EA002086
:100AB0000FFA80FA5046FFF79CFD07460022044BD0
:100AC000FFF723FD0546FFF7EAFD20605846E6E7FD
:100AD000000024402DE9F04104460D464FF0000887
:100AE000642000F0FDFB5EE0A06800F039FA052804
:100AF00000DA58E00021A06800F0BCFA804641F618
:100B00000540804503D0A06800F002FB4BE00321C4
:100B1000A06800F099FAFF2808D10421A06800F02D
:100B2000A9FA0646012085F8660107E00321A068BE
:100B300000F08AFA0646002085F86601701D95F8D7
:100B4000661109B1022100E00021084487B2A068C3
:100B500000F006FAB84200DA25E0A06800F0EDFAED
:100B60002880A06800F0D4FAA87095F8660138B122
:100B7000A06800F0CDFAA06800F0DFFAA88003E0DA
:100B8000A06800F0C5FAA880AA88A91DA06800F096
:100B9000C5FAA06800F0BCFA85F864012846FFF7A2
:100BA00015FFBDE8F08100F0ABFB00289CD00220CF
:100BB000F7E700002DE9F041DAB004460D4616468D
:100BC0001F46DDF880814FF4B4720D496846FFF787
:100BD000A9FA8DF80250ADF804608DF866813246AE
:100BE00039460DF10600FFF79DFA68466168FFF788
:100BF0000CFF204600F0F2FD5AB0BDE8F081000085
:100C0000C82300082DE9F04F87B006460F4614466A
:100C10001D46DDF840804FF0070A05AA072102A80B
:100C200000F0E6F919492046FFF760FD01D2174CA4
:100C300005E017492046FFF74FFD00D2144C394616
:100C400002A800F085FA21461248FFF7D5FA83463C
:100C5000FFF7E0FC0FFA80F9494602A800F08FFA8E
:100C6000294602A800F094FA414602A800F090FA42
:100C700000200DF115030722082100903046FFF7F0
:100C800099FF002007B0BDE8F08F0000000034435A
:100C9000000034C3000020412DE9F0410246002548
:100CA0000026002000230024002791F803C00CF048
:100CB0000F0591F803C00CF0100CBCF1000F03D02D
:100CC00091F802C04CEA050591F800C0BCF1000F94
:100CD00031D0146800202BE04FF0010C0CFA00F327
:100CE000B1F800C00CEA03069E4220D183004FF009
:100CF0000F0C0CFA03F7BC4305FA03FC4CEA04049E
:100D000091F803C0BCF1280F06D14FF0010C0CFA8A
:100D100000FCC2F814C00AE091F803C0BCF1480F0F
:100D200005D14FF0010C0CFA00FCC2F810C0401CB9
:100D30000828D1D31460B1F800C0BCF1FF0F34DD36
:100D4000546800202EE000F1080C4FF0010808FA6A
:100D50000CF3B1F800C00CEA03069E4221D18300D7
:100D60004FF00F0C0CFA03F7BC4305FA03FC4CEAF6
:100D7000040491F803C0BCF1280F05D100F1080C60
:100D800008FA0CF8C2F8148091F803C0BCF1480FBF
:100D900007D100F1080C4FF0010808FA0CF8C2F86E
:100DA0001080401C0828CED35460BDE8F0810000BC
:100DB00070B5002100230F22C47804B3154C2468B9
:100DC00004F4E064C4F5E064210AC1F10403CA40FC
:100DD000447804FA03F184781440214309010E4C4D
:100DE0000678A155047804F01F050124AC4005786D
:100DF0006D11AD0005F1E025C5F8004109E004786A
:100E000004F01F050124AC40044D0678761145F826
:100E1000264070BD0CED00E000E400E080E100E061
:100E200002490143024A1160704700000000FA05C0
:100E30000CED00E029B1064AD2690243044BDA61A5
:100E400004E0034AD2698243014BDA617047000033
:100E50000010024029B1064A92690243044B9A618C
:100E600004E0034A92698243014B9A617047000093
:100E70000010024030B500210022002400232D4D37
:100E80006D6805F00C0121B1042905D0082923D192
:100E900005E0294D056022E0274D05601FE0254D46
:100EA0006D6805F47012234D6D6805F480340225D9
:100EB00005EB92421CB9214D554305600BE01D4DD9
:100EC0006D6805F400351DB11C4D5543056002E009
:100ED000194D5543056002E0174D056000BF00BF86
:100EE000144D6D6805F0F0010909154D6B5C05683E
:100EF000DD4045600F4D6D6805F4E061090A104D55
:100F00006B5C4568DD4085600A4D6D6805F4605195
:100F1000C90A0B4D6B5C4568DD40C560054D6D68C9
:100F200005F44041890B074D6B5CC568B5FBF3F5D3
:100F3000056130BD0010024000127A0000093D003A
:100F4000240000203400002010B50346184600F0AD
:100F500018F80446184600F003F8201A80B210BDB5
:100F600001468888CA88904204DCC8888A88801A2A
:100F700080B270478888CA88801A0A89101A80B29D
:100F8000F7E701460889401E80B27047F0B5034676
:100F90001846FFF7E5FF0546002400200EE09A887A
:100FA0000244521C1E8992FBF6F706FB172291B2EF
:100FB0001A68525C2244D4B2411C88B2A842EEDBCB
:100FC000E0B2F0BD30B503460C461846FFF7C8FF47
:100FD000A04201DC002030BD98882044401C1989C3
:100FE00090FBF1F201FB120085B21868405DF2E758
:100FF00030B50B46026000218180C180591C0181FF
:10100000002104E0002405686C544C1CA1B2048942
:101010008C42F7DC30BD10B504462046FFF794FF44
:1010200002462046FFF7ADFF824201D1012010BDEC
:101030000020FCE710B504462046FFF785FF08B9FD
:10104000012010BD0020FCE730B503460C461846D1
:10105000FFF786FFA04201DC002030BD98882044C5
:10106000401C198990FBF1F201FB120085B218684F
:10107000405DF2E730B503460C461846FFF770FFB7
:10108000611C884201DC002030BD98882044401C4F
:10109000198990FBF1F201FB120085B21989681CD5
:1010A00090FBF1F201FB12001968085C495D41EA0E
:1010B0000020E9E730B504462046FFF7ACFF08B151
:1010C000002030BDA088401C218990FBF1F201FB7B
:1010D0001200A080A1882068455C0020A2882168B9
:1010E00088542846EDE730B504460D462046FFF704
:1010F000A1FF00B130BDE088401C218990FBF1F2D6
:1011000001FB1200E080E1882068455400BFF1E750
:1011100010B504462046FFF7CDFF10BDF0B50746D9
:101120000D461646002405E03846FFF7C3FF285554
:10113000601C84B2B442F7DBF0BD38B504466D469E
:10114000022229462046FFF7E9FFBDF8000038BD1E
:1011500030B504460D4629462046FFF7C4FF30BD92
:10116000F0B507460D461646002405E0295D3846D1
:10117000FFF7B9FF601C84B2B442F7DBF0BD33B5B2
:10118000044601AD022229462046FFF7E9FF3CBD97
:1011900033B5044601AD022229462046FFF7E0FFA1
:1011A0003CBD10B500F002F810BD00000CB50020E9
:1011B000019000903348006840F480303149086065
:1011C00000BF3048006800F4003000900198401CD7
:1011D0000190009818B90198B0F5A06FF1D1294895
:1011E000006800F4003010B10120009001E0002000
:1011F00000900098012843D12348006840F0100077
:10120000214908600846006820F00300086008468D
:10121000006840F0020008601A48406819494860B8
:101220000846406848600846406840F4806048606E
:101230000846406820F47C1048600846406840F446
:10124000E81048600846006840F08070086000BF01
:101250000C48006800F000700028F9D00948406888
:1012600020F00300074948600846406840F002004B
:10127000486000BF0348406800F00C000828F9D11E
:101280000CBD0000001002400020024030B50146B5
:10129000B1F1807F01D3012030BD21F07F40401E9D
:1012A0004FF0E022506150170F22002807DA130791
:1012B0001D0E094B00F00F04241F1D5503E01307FA
:1012C0001C0E064B1C5400BF00204FF0E022906122
:1012D000072010610020DFE718ED00E000E400E0E7
:1012E00001B50649009808604FF0E020006940F021
:1012F00001004FF0E021086108BD0000200000203F
:101300000348006808B9012070470020FCE700008E
:101310002000002001B503490098086000F02CF877
:1013200008BD0000200000200648006828B10548DC
:101330000068401E0349086002E00020014908607F
:10134000704700002000002010B50A4800684FF4E4
:101350007A71B0FBF1F42046FFF798FF08B100BFA7
:10136000FEE74FF0E020006920F001004FF0E0219F
:10137000086110BD380000204FF0E020006940F007
:1013800001004FF0E021086100BF06480068002816
:10139000FBD14FF0E020006920F001004FF0E02188
:1013A000086170472000002010B51348006840F025
:1013B00001001149086008464068104908400E497C
:1013C0004860084600680E4908400B490860084616
:1013D000006820F4802008600846406820F4FE0081
:1013E00048604FF41F008860FFF7DBFE4FF000609D
:1013F0000449086010BD0000001002400000FFF822
:10140000FFFFF6FE08ED00E010B540F22551074859
:1014100000F03FF840B1054800F0F6F8C4B20449C6
:1014200088682146FFF75FFE10BD000000380140CC
:101430005404002010B540F22551074800F029F867
:1014400048B10649086800F0DFF8C4B2034988686B
:101450002146FFF748FE10BD00440040640800200C
:1014600021B1828942F40052828104E082894DF6E2
:10147000FF731A408281704702460020B1F5007F59
:1014800000D100BF13880B400BB1012000E0002009
:10149000704770B50246002400230025002040F666
:1014A0006A16B14200D100BFC1F3421501F01F031B
:1014B000012606FA03F3012D02D19689334006E096
:1014C000022D02D1168A334001E0968A33400C1275
:1014D000012606FA04F41688344013B10CB1012039
:1014E00000E0002070BDF0B5034600240026002572
:1014F000002040F66A17B94200D100BF1846C1F378
:10150000421401F01F06012707FA06F5012C01D14C
:101510000C3004E0022C01D1103000E014301AB17C
:1015200007682F43076002E00768AF430760F0BD1C
:101530002DE9F04786B005460E460024A24600BFBE
:10154000A1460027B08900B100BF2F462C8A4CF677
:10155000FF700440F08804432C82AC894EF6F310EF
:101560000440B08831890843718908430443AC8141
:10157000AC8A4FF6FF400440B0890443AC8201A816
:10158000FFF778FC1F48874202D1DDF810A001E088
:10159000DDF80CA0A88900F4004040B10AEBCA00B5
:1015A00000EB0A1031684900B0FBF1F807E00AEBE4
:1015B000CA0000EB0A1031688900B0FBF1F8642022
:1015C000B8FBF0F004012009642101FB1089A8890F
:1015D00000F4004040B1322000EBC900B0FBF1F054
:1015E00000F00700044308E0322000EB09106421FA
:1015F000B0FBF1F000F00F0004432C8106B0BDE811
:10160000F08700000038014001468888C0F30800D8
:101610007047C1F3080282807047000000B587B0B0
:10162000614862490860624A4FF4FA716148FFF705
:10163000DFFC614A4FF4FA716048FFF7D9FC5F485C
:101640005A4988605B48486001218803FFF702FC23
:1016500001210420FFF7FEFB4FF40070ADF81800E5
:1016600003208DF81A0018208DF81B0006A9544895
:10167000FFF712FB4FF48060ADF8180004208DF8DE
:101680001B0006A94E48FFF707FB4FF4E13002901C
:101690000020ADF80C00ADF80E00ADF81000ADF86C
:1016A00014000C20ADF812004FF4A060FFF7B8FB57
:1016B00025208DF8040001208DF805008DF8060026
:1016C0008DF8070001A8FFF773FB02A93648FFF762
:1016D0002FFF012240F225513348FFF704FF01217B
:1016E0003148FFF7BDFE374837490860374A4FF4A5
:1016F000FA713748FFF77CFC364A4FF4FA713648E6
:10170000FFF776FC34483049886031484860012151
:101710004804FFF78FFB01210420FFF79BFB042007
:10172000ADF8180003208DF81A0018208DF81B0062
:1017300006A92348FFF7B0FA0820ADF818000420E6
:101740008DF81B0006A91E48FFF7A6FA26208DF883
:10175000040003208DF805008DF8060001208DF8A7
:10176000070001A8FFF724FB4FF4E13002900020AE
:10177000ADF80C00ADF80E00ADF81000ADF8140097
:101780000C20ADF8120002A90E48FFF7D1FE01228D
:1017900040F225510B48FFF7A6FE01210948FFF74B
:1017A0005FFE07B000BD0000003801405404002077
:1017B000500000203C040020450200204804002086
:1017C000000801400044004064080020600400203C
:1017D0004C080020550600205808002070B504462B
:1017E00007E06068FFF766FC05462946206800F0C0
:1017F00006F86068FFF7B4FB0028F2D170BD70B541
:1018000004460D4629462046FFF703FF00BF80210E
:101810002046FFF731FE0028F9D070BD0FB4054B0C
:1018200010B503A9044A029800F0DAF810BC5DF87C
:1018300014FB00007D2100084C00002002E008C8D5
:10184000121F08C1002AFAD170477047002001E03A
:1018500001C1121F002AFBD1704700002DE9FF5F74
:1018600082B00021DDE90430020DDDF840B0034311
:1018700018D044F61050A2F2FF32424315141198CA
:1018800001281FD0A5EB0B00401C5FEA000A4FF0B7
:1018900000064E4FDFF83891B046504615D5CAF1D4
:1018A000000413E0119801244AA3012801D16FEA32
:1018B0000B010298119AC0E90031C0E9024206B05A
:1018C000BDE8F09FCBF10000DFE704460021404A6D
:1018D000491842EB0450CDE9001012E0E00707D0B0
:1018E00032463B4640464946FEF79DFD80468946C6
:1018F00032463B4610461946FEF795FD06460F4612
:101900006410002CEAD1DDE90401DDE90023BAF11D
:10191000000F06DAFEF787FD42464B46FEF783FDD1
:1019200005E0FEF7F2FD42464B46FEF7EEFD0446AB
:101930000E460022284BFFF707F803D84FF0FF3080
:10194000014607E00022254B20463146FEF7C4FC45
:10195000FEF7E2FF102409E0002C0ADB0A22002334
:10196000FEF7E4FE039B30321A55641E50EA010272
:10197000F2D1641C039AC4F111031444119A012A90
:1019800003D0012208430DD10AE0084304D000200F
:101990004FF0110B119072E7A3EB0B056D1E0DE0DC
:1019A0005B4504DD4FF0000205F1010504E003DAB8
:1019B0004FF00002A5F10105002AECD00298119920
:1019C000C0E90231C0E9004579E700000000144099
:1019D0000000F03F300000000000F0430000E03F56
:1019E0002DE9FF4F95B09B468946064600250FE23C
:1019F000252877D100242746F84A0121059400E0E4
:101A0000044316F8013F203B01FA03F01042F7D1DE
:101A100030782A2811D06FF02F033078A0F13002EF
:101A2000092A16D8059A44F0020402EB820203EB5D
:101A300042021044761C0590EFE759F8042B0592FA
:101A4000002A03DA504244F40054059044F00204A2
:101A5000761C30782E2816D116F8010F44F00404B5
:101A60002A280DD06FF02F023078A0F13003092B17
:101A700009D807EB870302EB4303C718761CF3E78B
:101A800059F8047B761C30786C280FD006DC4C2883
:101A900017D068280DD06A2814D104E0742810D01B
:101AA0007A280FD10DE044F400140AE044F48014C5
:101AB00001E044F440147278824202D104F58014AB
:101AC000761C761C307866280BD013DC582877D02B
:101AD00009DC002875D04528F6D04628F4D04728E0
:101AE0001AD19DE118E0632835D0642879D06528A3
:101AF00012D195E1702873D008DC6728F1D06928ED
:101B00006FD06E280DD06F2806D1B5E073282CD089
:101B1000752875D0782874D05A46179990476D1C4F
:101B200075E1C4F30250022809D003280DD0D9F87A
:101B3000001004280DD00D6009F1040967E1D9F8FF
:101B40000010EA17C1E90052F6E7D9F800100D803D
:101B5000F2E70D70F0E719F8041B8DF80010002073
:101B60008DF80100EA46012003E059F804AB4FF07C
:101B7000FF3061074FF0000102D40DE008F10101D0
:101B80008846B9420FDA8045F8DB1AF808100029B8
:101B9000F4D108E008F1010188468142FADB1AF825
:101BA00008100029F6D105985B46A0EB08072146EE
:101BB0003846179A00F094FA284400EB080507E02D
:101BC0004DE029E10DE01AF8010B5A4617999047AC
:101BD000B8F10108F7D25B4621463846179A13E15F
:101BE00042E00A220092C4F302524FF0000A022A95
:101BF00008D059F804CB032A4FEAEC710AD00DE063
:101C000029E02AE009F1070121F00702F2E802C108
:101C1000914609E00FFA8CFC4FEAEC71042A03D1DB
:101C20004FFA8CFC4FEAEC71002907DA0A460021D2
:101C3000DCF1000C61EB02012D2202E0220504D54B
:101C40002B228DF80420012203E0E20701D020229C
:101C5000F7E7904659E00A2102E010220DE010213A
:101C60004FF0000A00910BE010224FF0000A44F000
:101C700004040827009203E008224FF0000A0092B3
:101C8000C4F30252022A05D059F804CB0021032ADA
:101C900008D009E009F1070121F00702F2E802C1CA
:101CA000914605E01FFA8CFC042A01D10CF0FF0CD0
:101CB0004FF00008220728D5702806D0009B83F03B
:101CC000100353EA0A0305D00EE040228DF80420E9
:101CD000012208E05CEA010206D030228DF80420DF
:101CE0008DF8050002229046009B83F0080353EA1A
:101CF0000A030AD15CEA010201D1620705D530224C
:101D00008DF804204FF001087F1E582804D034A01D
:101D100003900EA802900DE036A0F9E75346604606
:101D2000009AFEF703FD84460398825C0298401EE9
:101D3000029002705CEA0100F0D1029806A9081A2C
:101D400000F1200A600702D524F4803400E0012766
:101D5000574502DDA7EB0A0000E0002000EB0A0176
:101D6000009005984144401A0590E00306D45B4674
:101D70002146179A059800F0B3F90544002706E0BC
:101D800001A85A46C05D179990476D1C7F1C4745B6
:101D9000F6DBE0030CD55B462146179A059800F068
:101DA0009FF9054404E030205A46179990476D1C6E
:101DB0000099481E00900029F5DC08E0029802997D
:101DC0005A460078491C0291179990476D1CBAF148
:101DD0000001AAF1010AF1DC65E100000928010017
:101DE0003031323334353637383961626364656691
:101DF0000000000030313233343536373839414253
:101E0000434445460000000000F058F90544761CA4
:101E1000307800287FF4ECAD19B02846BDE8F08F8B
:101E2000620700D4062709F1070222F0070CFCE83C
:101E30000223E14603F000485FEA080C02D00FF2EB
:101E4000702C0DE05FEA045C02D50FF2682C07E00D
:101E50005FEAC47C02D00FF2602C01E0AFF2700C9C
:101E60004FF0FF3823F00043CDF850C065280CD068
:101E700006DC452809D046281DD047283DD13DE045
:101E8000662818D067287ED138E00021112F01DBA9
:101E9000112000E0781CCDE9000106A90EA8FFF78B
:101EA000DDFCDDE90F010E9A03910021009207F19C
:101EB000010A04914DE04FF000400097CDE9011078
:101EC00006A90EA8FFF7CAFCDDE90F0203920E9BDC
:101ED00011990022DDF80CA00093049211B9791C2D
:101EE00000EB010AB7EB0A0004D4C0F1FF3007F1A0
:101EF000010A0490AAEB0700019044E0012F00DAE8
:101F000001270021112F01DD112000E03846CDE925
:101F1000000106A90EA8FFF7A1FCDDE90F010E9A4A
:101F20000391002104910092BA4621070CD4039931
:101F3000514500DA8A46BAF1010F05DD009AAAF18F
:101F40000101515C302908D0B84202DA10F1040FC7
:101F500006DA0121CDE9011015E0AAF10101E9E756
:101F6000002805DC049901440491AAEB000102E079
:101F7000411C514500DD8A460499401A401C0190DD
:101F80004FF000400290200704D40198504501DB37
:101F9000CDF8048000208DF84F0002980DF14F0716
:101FA000B0F1004F25D02B200E9002984FF0020880
:101FB00000280CDA404202902D200E9007E00A2102
:101FC0000298FEF79DFB3031029007F8011DB8F131
:101FD0000001A8F10108F2DC02980028EFD1791E77
:101FE0000E980870307800F0200040F0450007F8A7
:101FF000020D12A8C01B00F107081498007800B168
:10200000012000EB0A01019801EBE07105984144C1
:10201000401A401E0590E00306D45B462146179AFD
:10202000059800F05DF805441498007818B15A46F8
:10203000179990476D1CE00324D55B462146179AFB
:10204000059800F04DF805441CE00498002807DBD3
:10205000DDE90301884203DD0098405C179901E047
:10206000179930205A469047049805F10105401C05
:1020700004900198401E019004D12E205A461799D1
:1020800090476D1CBAF10001AAF1010ADDDC05E000
:1020900017F8010B5A46179990476D1CB8F10001CB
:1020A000A8F10108F4DC5B462146179A0598ABE6D7
:1020B0002D0000002B000000200000002DE9F04161
:1020C000044600251E461746880404D405E0394618
:1020D0002020B0476D1C641EF9D52846BDE8F0816C
:1020E0002DE9F041044600251E469046C80301D55F
:1020F000302700E02027880404D505E04146384613
:10210000B0476D1C641EF9D52846BDE8F08100007B
:102110002DE9F84F044689469246154A214615484E
:102120000068FEF79FFC124801684846FEF7DEFA99
:1021300005D20F4801684846FEF758F804E04946C2
:102140000B480068FEF752F8834651465846FEF7A2
:1021500085F80090FEF790FA07460022064BFEF73E
:1021600062F90546FEF76FFA80B2BDE8F88F00000D
:102170000C0000200000002000408F4070B5044695
:102180000D4600BF074800680068008800F0400066
:102190000028F7D0E1B2034A12681068FFF739FA55
:1021A000204670BD040000201CB5FFF7CDF8FFF7F6
:1021B00035FA91E049484A4908604A480088FEF7E4
:1021C00013FA044622464648016847480078FFF75C
:1021D0009FFF4649088042480068FEF74DFA0446D2
:1021E0000D4643480068FEF747FA064632460B465E
:1021F00040A0CDE90045FFF711FB4348008800905F
:102200003A48038836480268374801783F480068F2
:10221000FEF7F8FC0520FFF77DF8314801683248E9
:10222000007800F07FF84FF47A70FFF773F8304AC7
:102230002D48017835480068FEF714FC2C480068EA
:10224000FEF71AFA044622460B4631A0FFF7E6FADB
:102250004FF47A70FFF75EF8314821490860214851
:102260000088FEF7C1F9044622461D4801681E4851
:102270000078FFF74DFF1D49088023480088009033
:102280000846038816480268174801781F48006806
:10229000FEF7B8FC0520FFF73DF811480168124829
:1022A000007800F03FF84FF47A70FFF733F8104AE7
:1022B0000D48017815480068FEF7D4FB0C4800680B
:1022C000FEF7DAF9044622460B4611A0FFF7A6FAFC
:1022D0004FF47A70FFF71EF86CE700000000F04240
:1022E000100000201400002008000020160000202C
:1022F0000C00002053657420536572766F202566AC
:102300002D3E20256600000018000020000000205F
:1023100046696E616C20416E676C653A20256600E7
:102320000000F0C22DE9FC470446894633E01C4A10
:1023300021461C480068FEF795FB1948016848468D
:10234000FEF7D4F905D2164801684846FDF74EFF5E
:1023500004E0494612480068FDF748FF82465046AF
:10236000FEF78AF905460E460D480068FEF784F927
:1023700007463A460B460CA0CDE90056FFF74EFA49
:10238000104801685046FEF7A7F900D804E0052080
:10239000FEF7C0FF00BFCAE700BFBDE8FC87000032
:1023A0000C00002000000020637572416E676C65B0
:1023B0003A2025662064416E676C653A2025660DDB
:1023C0000A0000001C000020124C00000000000069
:1023D00000000000000000000000000000000000FD
:1023E00000000000000000000000000000000000ED
:1023F00000000000000000000000000000000000DD
:1024000000000000000000000000000000000000CC
:1024100000000000000000000000000000000000BC
:1024200000000000000000000000000000000000AC
:10243000000000000000000000000000000000009C
:10244000000000000000000000000000000000008C
:10245000000000000000000000000000000000007C
:10246000000000000000000000000000000000006C
:10247000000000000000000000000000000000005C
:10248000000000000000000000000000000000004C
:10249000000000000000000000000000000000003C
:1024A000000000000000000000000000000000002C
:1024B000000000000000000000000000000000001C
:1024C000000000000000000000000000000000000C
:1024D00000000000000000000000000000000000FC
:1024E00000000000000000000000000000000000EC
:1024F00000000000000000000000000000000000DC
:1025000000000000000000000000000000000000CB
:1025100000000000000000000000000000000000BB
:1025200000000000000000000000000000000000AB
:102530005025000800000020500000003C18000852
:10254000A025000850000020200C00004C180008B6
:102550005404002064080020000000000000000077
:1025600000000000C8000000000000000000803FE4
:102570000000000000000000010203040102030447
:10258000060708090204060800A24A040000000029
:102590000000000001020304060708090000000013
:0400000508000101ED
:00000001FF
